{
  "_format": "hh-sol-artifact-1",
  "contractName": "NFT",
  "sourceName": "contracts/NFT.sol",
  "abi": [
    {
      "inputs": [],
      "stateMutability": "nonpayable",
      "type": "constructor"
    },
    {
      "anonymous": false,
      "inputs": [
        {
          "indexed": true,
          "internalType": "address",
          "name": "owner",
          "type": "address"
        },
        {
          "indexed": true,
          "internalType": "address",
          "name": "approved",
          "type": "address"
        },
        {
          "indexed": true,
          "internalType": "uint256",
          "name": "tokenId",
          "type": "uint256"
        }
      ],
      "name": "Approval",
      "type": "event"
    },
    {
      "anonymous": false,
      "inputs": [
        {
          "indexed": true,
          "internalType": "address",
          "name": "owner",
          "type": "address"
        },
        {
          "indexed": true,
          "internalType": "address",
          "name": "operator",
          "type": "address"
        },
        {
          "indexed": false,
          "internalType": "bool",
          "name": "approved",
          "type": "bool"
        }
      ],
      "name": "ApprovalForAll",
      "type": "event"
    },
    {
      "anonymous": false,
      "inputs": [
        {
          "indexed": true,
          "internalType": "address",
          "name": "previousOwner",
          "type": "address"
        },
        {
          "indexed": true,
          "internalType": "address",
          "name": "newOwner",
          "type": "address"
        }
      ],
      "name": "OwnershipTransferred",
      "type": "event"
    },
    {
      "anonymous": false,
      "inputs": [
        {
          "indexed": true,
          "internalType": "address",
          "name": "from",
          "type": "address"
        },
        {
          "indexed": true,
          "internalType": "address",
          "name": "to",
          "type": "address"
        },
        {
          "indexed": true,
          "internalType": "uint256",
          "name": "tokenId",
          "type": "uint256"
        }
      ],
      "name": "Transfer",
      "type": "event"
    },
    {
      "inputs": [
        {
          "internalType": "address",
          "name": "to",
          "type": "address"
        },
        {
          "internalType": "uint256",
          "name": "tokenId",
          "type": "uint256"
        }
      ],
      "name": "approve",
      "outputs": [],
      "stateMutability": "nonpayable",
      "type": "function"
    },
    {
      "inputs": [
        {
          "internalType": "address",
          "name": "owner",
          "type": "address"
        }
      ],
      "name": "balanceOf",
      "outputs": [
        {
          "internalType": "uint256",
          "name": "",
          "type": "uint256"
        }
      ],
      "stateMutability": "view",
      "type": "function"
    },
    {
      "inputs": [
        {
          "internalType": "uint256",
          "name": "tokenId",
          "type": "uint256"
        }
      ],
      "name": "getApproved",
      "outputs": [
        {
          "internalType": "address",
          "name": "",
          "type": "address"
        }
      ],
      "stateMutability": "view",
      "type": "function"
    },
    {
      "inputs": [
        {
          "internalType": "address",
          "name": "owner",
          "type": "address"
        },
        {
          "internalType": "address",
          "name": "operator",
          "type": "address"
        }
      ],
      "name": "isApprovedForAll",
      "outputs": [
        {
          "internalType": "bool",
          "name": "",
          "type": "bool"
        }
      ],
      "stateMutability": "view",
      "type": "function"
    },
    {
      "inputs": [],
      "name": "name",
      "outputs": [
        {
          "internalType": "string",
          "name": "",
          "type": "string"
        }
      ],
      "stateMutability": "view",
      "type": "function"
    },
    {
      "inputs": [],
      "name": "owner",
      "outputs": [
        {
          "internalType": "address",
          "name": "",
          "type": "address"
        }
      ],
      "stateMutability": "view",
      "type": "function"
    },
    {
      "inputs": [
        {
          "internalType": "uint256",
          "name": "tokenId",
          "type": "uint256"
        }
      ],
      "name": "ownerOf",
      "outputs": [
        {
          "internalType": "address",
          "name": "",
          "type": "address"
        }
      ],
      "stateMutability": "view",
      "type": "function"
    },
    {
      "inputs": [],
      "name": "renounceOwnership",
      "outputs": [],
      "stateMutability": "nonpayable",
      "type": "function"
    },
    {
      "inputs": [
        {
          "internalType": "address",
          "name": "to",
          "type": "address"
        },
        {
          "internalType": "string",
          "name": "uri",
          "type": "string"
        }
      ],
      "name": "safeMint",
      "outputs": [],
      "stateMutability": "nonpayable",
      "type": "function"
    },
    {
      "inputs": [
        {
          "internalType": "address",
          "name": "from",
          "type": "address"
        },
        {
          "internalType": "address",
          "name": "to",
          "type": "address"
        },
        {
          "internalType": "uint256",
          "name": "tokenId",
          "type": "uint256"
        }
      ],
      "name": "safeTransferFrom",
      "outputs": [],
      "stateMutability": "nonpayable",
      "type": "function"
    },
    {
      "inputs": [
        {
          "internalType": "address",
          "name": "from",
          "type": "address"
        },
        {
          "internalType": "address",
          "name": "to",
          "type": "address"
        },
        {
          "internalType": "uint256",
          "name": "tokenId",
          "type": "uint256"
        },
        {
          "internalType": "bytes",
          "name": "data",
          "type": "bytes"
        }
      ],
      "name": "safeTransferFrom",
      "outputs": [],
      "stateMutability": "nonpayable",
      "type": "function"
    },
    {
      "inputs": [
        {
          "internalType": "address",
          "name": "operator",
          "type": "address"
        },
        {
          "internalType": "bool",
          "name": "approved",
          "type": "bool"
        }
      ],
      "name": "setApprovalForAll",
      "outputs": [],
      "stateMutability": "nonpayable",
      "type": "function"
    },
    {
      "inputs": [
        {
          "internalType": "bytes4",
          "name": "interfaceId",
          "type": "bytes4"
        }
      ],
      "name": "supportsInterface",
      "outputs": [
        {
          "internalType": "bool",
          "name": "",
          "type": "bool"
        }
      ],
      "stateMutability": "view",
      "type": "function"
    },
    {
      "inputs": [],
      "name": "symbol",
      "outputs": [
        {
          "internalType": "string",
          "name": "",
          "type": "string"
        }
      ],
      "stateMutability": "view",
      "type": "function"
    },
    {
      "inputs": [
        {
          "internalType": "uint256",
          "name": "index",
          "type": "uint256"
        }
      ],
      "name": "tokenByIndex",
      "outputs": [
        {
          "internalType": "uint256",
          "name": "",
          "type": "uint256"
        }
      ],
      "stateMutability": "view",
      "type": "function"
    },
    {
      "inputs": [
        {
          "internalType": "address",
          "name": "owner",
          "type": "address"
        },
        {
          "internalType": "uint256",
          "name": "index",
          "type": "uint256"
        }
      ],
      "name": "tokenOfOwnerByIndex",
      "outputs": [
        {
          "internalType": "uint256",
          "name": "",
          "type": "uint256"
        }
      ],
      "stateMutability": "view",
      "type": "function"
    },
    {
      "inputs": [
        {
          "internalType": "uint256",
          "name": "tokenId",
          "type": "uint256"
        }
      ],
      "name": "tokenURI",
      "outputs": [
        {
          "internalType": "string",
          "name": "",
          "type": "string"
        }
      ],
      "stateMutability": "view",
      "type": "function"
    },
    {
      "inputs": [],
      "name": "totalSupply",
      "outputs": [
        {
          "internalType": "uint256",
          "name": "",
          "type": "uint256"
        }
      ],
      "stateMutability": "view",
      "type": "function"
    },
    {
      "inputs": [
        {
          "internalType": "address",
          "name": "from",
          "type": "address"
        },
        {
          "internalType": "address",
          "name": "to",
          "type": "address"
        },
        {
          "internalType": "uint256",
          "name": "tokenId",
          "type": "uint256"
        }
      ],
      "name": "transferFrom",
      "outputs": [],
      "stateMutability": "nonpayable",
      "type": "function"
    },
    {
      "inputs": [
        {
          "internalType": "address",
          "name": "newOwner",
          "type": "address"
        }
      ],
      "name": "transferOwnership",
      "outputs": [],
      "stateMutability": "nonpayable",
      "type": "function"
    }
  ],
  "bytecode": "0x60806040523480156200001157600080fd5b5060408051808201825260038082526213919560ea1b6020808401828152855180870190965292855284015281519192916200005091600091620000df565b50805162000066906001906020840190620000df565b505050620000836200007d6200008960201b60201c565b6200008d565b620001c2565b3390565b600b80546001600160a01b038381166001600160a01b0319831681179093556040519116919082907f8be0079c531659141344cd1fd0a4f28419497f9722a3daafe3b4186f6b6457e090600090a35050565b828054620000ed9062000185565b90600052602060002090601f0160209004810192826200011157600085556200015c565b82601f106200012c57805160ff19168380011785556200015c565b828001600101855582156200015c579182015b828111156200015c5782518255916020019190600101906200013f565b506200016a9291506200016e565b5090565b5b808211156200016a57600081556001016200016f565b600181811c908216806200019a57607f821691505b60208210811415620001bc57634e487b7160e01b600052602260045260246000fd5b50919050565b611bb480620001d26000396000f3fe608060405234801561001057600080fd5b506004361061012c5760003560e01c806370a08231116100ad578063b88d4fde11610071578063b88d4fde14610266578063c87b56dd14610279578063d204c45e1461028c578063e985e9c51461029f578063f2fde38b146102db57600080fd5b806370a082311461021f578063715018a6146102325780638da5cb5b1461023a57806395d89b411461024b578063a22cb4651461025357600080fd5b806323b872dd116100f457806323b872dd146101c05780632f745c59146101d357806342842e0e146101e65780634f6ccce7146101f95780636352211e1461020c57600080fd5b806301ffc9a71461013157806306fdde0314610159578063081812fc1461016e578063095ea7b31461019957806318160ddd146101ae575b600080fd5b61014461013f3660046118b2565b6102ee565b60405190151581526020015b60405180910390f35b6101616102ff565b604051610150919061199a565b61018161017c3660046118ea565b610391565b6040516001600160a01b039091168152602001610150565b6101ac6101a7366004611889565b6103b8565b005b6008545b604051908152602001610150565b6101ac6101ce36600461173c565b6104d3565b6101b26101e1366004611889565b610504565b6101ac6101f436600461173c565b61059a565b6101b26102073660046118ea565b6105b5565b61018161021a3660046118ea565b610656565b6101b261022d3660046116f0565b6106b6565b6101ac61073c565b600b546001600160a01b0316610181565b610161610750565b6101ac6102613660046117f0565b61075f565b6101ac610274366004611777565b61076e565b6101616102873660046118ea565b6107a6565b6101ac61029a36600461182a565b6107b1565b6101446102ad36600461170a565b6001600160a01b03918216600090815260056020908152604080832093909416825291909152205460ff1690565b6101ac6102e93660046116f0565b6107e0565b60006102f982610859565b92915050565b60606000805461030e90611abc565b80601f016020809104026020016040519081016040528092919081815260200182805461033a90611abc565b80156103875780601f1061035c57610100808354040283529160200191610387565b820191906000526020600020905b81548152906001019060200180831161036a57829003601f168201915b5050505050905090565b600061039c8261087e565b506000908152600460205260409020546001600160a01b031690565b60006103c382610656565b9050806001600160a01b0316836001600160a01b031614156104365760405162461bcd60e51b815260206004820152602160248201527f4552433732313a20617070726f76616c20746f2063757272656e74206f776e656044820152603960f91b60648201526084015b60405180910390fd5b336001600160a01b0382161480610452575061045281336102ad565b6104c45760405162461bcd60e51b815260206004820152603e60248201527f4552433732313a20617070726f76652063616c6c6572206973206e6f7420746f60448201527f6b656e206f776e6572206e6f7220617070726f76656420666f7220616c6c0000606482015260840161042d565b6104ce83836108dd565b505050565b6104dd338261094b565b6104f95760405162461bcd60e51b815260040161042d906119ff565b6104ce8383836109ca565b600061050f836106b6565b82106105715760405162461bcd60e51b815260206004820152602b60248201527f455243373231456e756d657261626c653a206f776e657220696e646578206f7560448201526a74206f6620626f756e647360a81b606482015260840161042d565b506001600160a01b03919091166000908152600660209081526040808320938352929052205490565b6104ce8383836040518060200160405280600081525061076e565b60006105c060085490565b82106106235760405162461bcd60e51b815260206004820152602c60248201527f455243373231456e756d657261626c653a20676c6f62616c20696e646578206f60448201526b7574206f6620626f756e647360a01b606482015260840161042d565b6008828154811061064457634e487b7160e01b600052603260045260246000fd5b90600052602060002001549050919050565b6000818152600260205260408120546001600160a01b0316806102f95760405162461bcd60e51b8152602060048201526018602482015277115490cdcc8c4e881a5b9d985b1a59081d1bdad95b88125160421b604482015260640161042d565b60006001600160a01b0382166107205760405162461bcd60e51b815260206004820152602960248201527f4552433732313a2061646472657373207a65726f206973206e6f7420612076616044820152683634b21037bbb732b960b91b606482015260840161042d565b506001600160a01b031660009081526003602052604090205490565b610744610b71565b61074e6000610bcb565b565b60606001805461030e90611abc565b61076a338383610c1d565b5050565b610778338361094b565b6107945760405162461bcd60e51b815260040161042d906119ff565b6107a084848484610cec565b50505050565b60606102f982610d1f565b60006107bc600c5490565b90506107cc600c80546001019055565b6107d68382610e28565b6104ce8183610e42565b6107e8610b71565b6001600160a01b03811661084d5760405162461bcd60e51b815260206004820152602660248201527f4f776e61626c653a206e6577206f776e657220697320746865207a65726f206160448201526564647265737360d01b606482015260840161042d565b61085681610bcb565b50565b60006001600160e01b0319821663780e9d6360e01b14806102f957506102f982610edc565b6000818152600260205260409020546001600160a01b03166108565760405162461bcd60e51b8152602060048201526018602482015277115490cdcc8c4e881a5b9d985b1a59081d1bdad95b88125160421b604482015260640161042d565b600081815260046020526040902080546001600160a01b0319166001600160a01b038416908117909155819061091282610656565b6001600160a01b03167f8c5be1e5ebec7d5bd14f71427d1e84f3dd0314c0f7b2291e5b200ac8c7c3b92560405160405180910390a45050565b60008061095783610656565b9050806001600160a01b0316846001600160a01b0316148061099e57506001600160a01b0380821660009081526005602090815260408083209388168352929052205460ff165b806109c25750836001600160a01b03166109b784610391565b6001600160a01b0316145b949350505050565b826001600160a01b03166109dd82610656565b6001600160a01b031614610a415760405162461bcd60e51b815260206004820152602560248201527f4552433732313a207472616e736665722066726f6d20696e636f72726563742060448201526437bbb732b960d91b606482015260840161042d565b6001600160a01b038216610aa35760405162461bcd60e51b8152602060048201526024808201527f4552433732313a207472616e7366657220746f20746865207a65726f206164646044820152637265737360e01b606482015260840161042d565b610aae838383610f2c565b610ab96000826108dd565b6001600160a01b0383166000908152600360205260408120805460019290610ae2908490611a79565b90915550506001600160a01b0382166000908152600360205260408120805460019290610b10908490611a4d565b909155505060008181526002602052604080822080546001600160a01b0319166001600160a01b0386811691821790925591518493918716917fddf252ad1be2c89b69c2b068fc378daa952ba7f163c4a11628f55a4df523b3ef91a4505050565b600b546001600160a01b0316331461074e5760405162461bcd60e51b815260206004820181905260248201527f4f776e61626c653a2063616c6c6572206973206e6f7420746865206f776e6572604482015260640161042d565b600b80546001600160a01b038381166001600160a01b0319831681179093556040519116919082907f8be0079c531659141344cd1fd0a4f28419497f9722a3daafe3b4186f6b6457e090600090a35050565b816001600160a01b0316836001600160a01b03161415610c7f5760405162461bcd60e51b815260206004820152601960248201527f4552433732313a20617070726f766520746f2063616c6c657200000000000000604482015260640161042d565b6001600160a01b03838116600081815260056020908152604080832094871680845294825291829020805460ff191686151590811790915591519182527f17307eab39ab6107e8899845ad3d59bd9653f200f220920489ca2b5937696c31910160405180910390a3505050565b610cf78484846109ca565b610d0384848484610f37565b6107a05760405162461bcd60e51b815260040161042d906119ad565b6060610d2a8261087e565b6000828152600a602052604081208054610d4390611abc565b80601f0160208091040260200160405190810160405280929190818152602001828054610d6f90611abc565b8015610dbc5780601f10610d9157610100808354040283529160200191610dbc565b820191906000526020600020905b815481529060010190602001808311610d9f57829003601f168201915b505050505090506000610dda60408051602081019091526000815290565b9050805160001415610ded575092915050565b815115610e1f578082604051602001610e0792919061192e565b60405160208183030381529060405292505050919050565b6109c284611044565b61076a8282604051806020016040528060008152506110b8565b6000828152600260205260409020546001600160a01b0316610ebd5760405162461bcd60e51b815260206004820152602e60248201527f45524337323155524953746f726167653a2055524920736574206f66206e6f6e60448201526d32bc34b9ba32b73a103a37b5b2b760911b606482015260840161042d565b6000828152600a6020908152604090912082516104ce928401906115c5565b60006001600160e01b031982166380ac58cd60e01b1480610f0d57506001600160e01b03198216635b5e139f60e01b145b806102f957506301ffc9a760e01b6001600160e01b03198316146102f9565b6104ce8383836110eb565b60006001600160a01b0384163b1561103957604051630a85bd0160e11b81526001600160a01b0385169063150b7a0290610f7b90339089908890889060040161195d565b602060405180830381600087803b158015610f9557600080fd5b505af1925050508015610fc5575060408051601f3d908101601f19168201909252610fc2918101906118ce565b60015b61101f573d808015610ff3576040519150601f19603f3d011682016040523d82523d6000602084013e610ff8565b606091505b5080516110175760405162461bcd60e51b815260040161042d906119ad565b805181602001fd5b6001600160e01b031916630a85bd0160e11b1490506109c2565b506001949350505050565b606061104f8261087e565b600061106660408051602081019091526000815290565b9050600081511161108657604051806020016040528060008152506110b1565b80611090846111a3565b6040516020016110a192919061192e565b6040516020818303038152906040525b9392505050565b6110c283836112bd565b6110cf6000848484610f37565b6104ce5760405162461bcd60e51b815260040161042d906119ad565b6001600160a01b0383166111465761114181600880546000838152600960205260408120829055600182018355919091527ff3f7a9fe364faab93b216da50a3214154f22a0a2b415b23a84c8169e8b636ee30155565b611169565b816001600160a01b0316836001600160a01b03161461116957611169838261140b565b6001600160a01b038216611180576104ce816114a8565b826001600160a01b0316826001600160a01b0316146104ce576104ce8282611581565b6060816111c75750506040805180820190915260018152600360fc1b602082015290565b8160005b81156111f157806111db81611af7565b91506111ea9050600a83611a65565b91506111cb565b60008167ffffffffffffffff81111561121a57634e487b7160e01b600052604160045260246000fd5b6040519080825280601f01601f191660200182016040528015611244576020820181803683370190505b5090505b84156109c257611259600183611a79565b9150611266600a86611b12565b611271906030611a4d565b60f81b81838151811061129457634e487b7160e01b600052603260045260246000fd5b60200101906001600160f81b031916908160001a9053506112b6600a86611a65565b9450611248565b6001600160a01b0382166113135760405162461bcd60e51b815260206004820181905260248201527f4552433732313a206d696e7420746f20746865207a65726f2061646472657373604482015260640161042d565b6000818152600260205260409020546001600160a01b0316156113785760405162461bcd60e51b815260206004820152601c60248201527f4552433732313a20746f6b656e20616c7265616479206d696e74656400000000604482015260640161042d565b61138460008383610f2c565b6001600160a01b03821660009081526003602052604081208054600192906113ad908490611a4d565b909155505060008181526002602052604080822080546001600160a01b0319166001600160a01b03861690811790915590518392907fddf252ad1be2c89b69c2b068fc378daa952ba7f163c4a11628f55a4df523b3ef908290a45050565b60006001611418846106b6565b6114229190611a79565b600083815260076020526040902054909150808214611475576001600160a01b03841660009081526006602090815260408083208584528252808320548484528184208190558352600790915290208190555b5060009182526007602090815260408084208490556001600160a01b039094168352600681528383209183525290812055565b6008546000906114ba90600190611a79565b600083815260096020526040812054600880549394509092849081106114f057634e487b7160e01b600052603260045260246000fd5b90600052602060002001549050806008838154811061151f57634e487b7160e01b600052603260045260246000fd5b600091825260208083209091019290925582815260099091526040808220849055858252812055600880548061156557634e487b7160e01b600052603160045260246000fd5b6001900381819060005260206000200160009055905550505050565b600061158c836106b6565b6001600160a01b039093166000908152600660209081526040808320868452825280832085905593825260079052919091209190915550565b8280546115d190611abc565b90600052602060002090601f0160209004810192826115f35760008555611639565b82601f1061160c57805160ff1916838001178555611639565b82800160010185558215611639579182015b8281111561163957825182559160200191906001019061161e565b50611645929150611649565b5090565b5b80821115611645576000815560010161164a565b600067ffffffffffffffff8084111561167957611679611b52565b604051601f8501601f19908116603f011681019082821181831017156116a1576116a1611b52565b816040528093508581528686860111156116ba57600080fd5b858560208301376000602087830101525050509392505050565b80356001600160a01b03811681146116eb57600080fd5b919050565b600060208284031215611701578081fd5b6110b1826116d4565b6000806040838503121561171c578081fd5b611725836116d4565b9150611733602084016116d4565b90509250929050565b600080600060608486031215611750578081fd5b611759846116d4565b9250611767602085016116d4565b9150604084013590509250925092565b6000806000806080858703121561178c578081fd5b611795856116d4565b93506117a3602086016116d4565b925060408501359150606085013567ffffffffffffffff8111156117c5578182fd5b8501601f810187136117d5578182fd5b6117e48782356020840161165e565b91505092959194509250565b60008060408385031215611802578182fd5b61180b836116d4565b91506020830135801515811461181f578182fd5b809150509250929050565b6000806040838503121561183c578182fd5b611845836116d4565b9150602083013567ffffffffffffffff811115611860578182fd5b8301601f81018513611870578182fd5b61187f8582356020840161165e565b9150509250929050565b6000806040838503121561189b578182fd5b6118a4836116d4565b946020939093013593505050565b6000602082840312156118c3578081fd5b81356110b181611b68565b6000602082840312156118df578081fd5b81516110b181611b68565b6000602082840312156118fb578081fd5b5035919050565b6000815180845261191a816020860160208601611a90565b601f01601f19169290920160200192915050565b60008351611940818460208801611a90565b835190830190611954818360208801611a90565b01949350505050565b6001600160a01b038581168252841660208201526040810183905260806060820181905260009061199090830184611902565b9695505050505050565b6020815260006110b16020830184611902565b60208082526032908201527f4552433732313a207472616e7366657220746f206e6f6e20455243373231526560408201527131b2b4bb32b91034b6b83632b6b2b73a32b960711b606082015260800190565b6020808252602e908201527f4552433732313a2063616c6c6572206973206e6f7420746f6b656e206f776e6560408201526d1c881b9bdc88185c1c1c9bdd995960921b606082015260800190565b60008219821115611a6057611a60611b26565b500190565b600082611a7457611a74611b3c565b500490565b600082821015611a8b57611a8b611b26565b500390565b60005b83811015611aab578181015183820152602001611a93565b838111156107a05750506000910152565b600181811c90821680611ad057607f821691505b60208210811415611af157634e487b7160e01b600052602260045260246000fd5b50919050565b6000600019821415611b0b57611b0b611b26565b5060010190565b600082611b2157611b21611b3c565b500690565b634e487b7160e01b600052601160045260246000fd5b634e487b7160e01b600052601260045260246000fd5b634e487b7160e01b600052604160045260246000fd5b6001600160e01b03198116811461085657600080fdfea2646970667358221220be5a6fec0dd1c98e15898f27543b2c96ad4fc83d2dc79fdea1ad420ee913ffe464736f6c63430008040033",
  "linkReferences": {},
  "deployedLinkReferences": {}
}