{
  "_format": "hh-sol-artifact-1",
  "contractName": "MyToken",
  "sourceName": "contracts/erc721.sol",
  "abi": [
    {
      "inputs": [],
      "stateMutability": "nonpayable",
      "type": "constructor"
    },
    {
      "anonymous": false,
      "inputs": [
        {
          "indexed": true,
          "internalType": "address",
          "name": "owner",
          "type": "address"
        },
        {
          "indexed": true,
          "internalType": "address",
          "name": "approved",
          "type": "address"
        },
        {
          "indexed": true,
          "internalType": "uint256",
          "name": "tokenId",
          "type": "uint256"
        }
      ],
      "name": "Approval",
      "type": "event"
    },
    {
      "anonymous": false,
      "inputs": [
        {
          "indexed": true,
          "internalType": "address",
          "name": "owner",
          "type": "address"
        },
        {
          "indexed": true,
          "internalType": "address",
          "name": "operator",
          "type": "address"
        },
        {
          "indexed": false,
          "internalType": "bool",
          "name": "approved",
          "type": "bool"
        }
      ],
      "name": "ApprovalForAll",
      "type": "event"
    },
    {
      "anonymous": false,
      "inputs": [
        {
          "indexed": true,
          "internalType": "address",
          "name": "previousOwner",
          "type": "address"
        },
        {
          "indexed": true,
          "internalType": "address",
          "name": "newOwner",
          "type": "address"
        }
      ],
      "name": "OwnershipTransferred",
      "type": "event"
    },
    {
      "anonymous": false,
      "inputs": [
        {
          "indexed": true,
          "internalType": "address",
          "name": "from",
          "type": "address"
        },
        {
          "indexed": true,
          "internalType": "address",
          "name": "to",
          "type": "address"
        },
        {
          "indexed": true,
          "internalType": "uint256",
          "name": "tokenId",
          "type": "uint256"
        }
      ],
      "name": "Transfer",
      "type": "event"
    },
    {
      "inputs": [
        {
          "internalType": "address",
          "name": "to",
          "type": "address"
        },
        {
          "internalType": "uint256",
          "name": "tokenId",
          "type": "uint256"
        }
      ],
      "name": "approve",
      "outputs": [],
      "stateMutability": "nonpayable",
      "type": "function"
    },
    {
      "inputs": [
        {
          "internalType": "address",
          "name": "owner",
          "type": "address"
        }
      ],
      "name": "balanceOf",
      "outputs": [
        {
          "internalType": "uint256",
          "name": "",
          "type": "uint256"
        }
      ],
      "stateMutability": "view",
      "type": "function"
    },
    {
      "inputs": [
        {
          "internalType": "uint256",
          "name": "tokenId",
          "type": "uint256"
        }
      ],
      "name": "getApproved",
      "outputs": [
        {
          "internalType": "address",
          "name": "",
          "type": "address"
        }
      ],
      "stateMutability": "view",
      "type": "function"
    },
    {
      "inputs": [
        {
          "internalType": "address",
          "name": "owner",
          "type": "address"
        },
        {
          "internalType": "address",
          "name": "operator",
          "type": "address"
        }
      ],
      "name": "isApprovedForAll",
      "outputs": [
        {
          "internalType": "bool",
          "name": "",
          "type": "bool"
        }
      ],
      "stateMutability": "view",
      "type": "function"
    },
    {
      "inputs": [],
      "name": "name",
      "outputs": [
        {
          "internalType": "string",
          "name": "",
          "type": "string"
        }
      ],
      "stateMutability": "view",
      "type": "function"
    },
    {
      "inputs": [],
      "name": "owner",
      "outputs": [
        {
          "internalType": "address",
          "name": "",
          "type": "address"
        }
      ],
      "stateMutability": "view",
      "type": "function"
    },
    {
      "inputs": [
        {
          "internalType": "uint256",
          "name": "tokenId",
          "type": "uint256"
        }
      ],
      "name": "ownerOf",
      "outputs": [
        {
          "internalType": "address",
          "name": "",
          "type": "address"
        }
      ],
      "stateMutability": "view",
      "type": "function"
    },
    {
      "inputs": [],
      "name": "renounceOwnership",
      "outputs": [],
      "stateMutability": "nonpayable",
      "type": "function"
    },
    {
      "inputs": [
        {
          "internalType": "address",
          "name": "to",
          "type": "address"
        }
      ],
      "name": "safeMint",
      "outputs": [],
      "stateMutability": "nonpayable",
      "type": "function"
    },
    {
      "inputs": [
        {
          "internalType": "address",
          "name": "from",
          "type": "address"
        },
        {
          "internalType": "address",
          "name": "to",
          "type": "address"
        },
        {
          "internalType": "uint256",
          "name": "tokenId",
          "type": "uint256"
        }
      ],
      "name": "safeTransferFrom",
      "outputs": [],
      "stateMutability": "nonpayable",
      "type": "function"
    },
    {
      "inputs": [
        {
          "internalType": "address",
          "name": "from",
          "type": "address"
        },
        {
          "internalType": "address",
          "name": "to",
          "type": "address"
        },
        {
          "internalType": "uint256",
          "name": "tokenId",
          "type": "uint256"
        },
        {
          "internalType": "bytes",
          "name": "data",
          "type": "bytes"
        }
      ],
      "name": "safeTransferFrom",
      "outputs": [],
      "stateMutability": "nonpayable",
      "type": "function"
    },
    {
      "inputs": [
        {
          "internalType": "address",
          "name": "operator",
          "type": "address"
        },
        {
          "internalType": "bool",
          "name": "approved",
          "type": "bool"
        }
      ],
      "name": "setApprovalForAll",
      "outputs": [],
      "stateMutability": "nonpayable",
      "type": "function"
    },
    {
      "inputs": [
        {
          "internalType": "bytes4",
          "name": "interfaceId",
          "type": "bytes4"
        }
      ],
      "name": "supportsInterface",
      "outputs": [
        {
          "internalType": "bool",
          "name": "",
          "type": "bool"
        }
      ],
      "stateMutability": "view",
      "type": "function"
    },
    {
      "inputs": [],
      "name": "symbol",
      "outputs": [
        {
          "internalType": "string",
          "name": "",
          "type": "string"
        }
      ],
      "stateMutability": "view",
      "type": "function"
    },
    {
      "inputs": [
        {
          "internalType": "uint256",
          "name": "tokenId",
          "type": "uint256"
        }
      ],
      "name": "tokenURI",
      "outputs": [
        {
          "internalType": "string",
          "name": "",
          "type": "string"
        }
      ],
      "stateMutability": "view",
      "type": "function"
    },
    {
      "inputs": [
        {
          "internalType": "address",
          "name": "from",
          "type": "address"
        },
        {
          "internalType": "address",
          "name": "to",
          "type": "address"
        },
        {
          "internalType": "uint256",
          "name": "tokenId",
          "type": "uint256"
        }
      ],
      "name": "transferFrom",
      "outputs": [],
      "stateMutability": "nonpayable",
      "type": "function"
    },
    {
      "inputs": [
        {
          "internalType": "address",
          "name": "newOwner",
          "type": "address"
        }
      ],
      "name": "transferOwnership",
      "outputs": [],
      "stateMutability": "nonpayable",
      "type": "function"
    }
  ],
  "bytecode": "0x60806040523480156200001157600080fd5b506040518060400160405280600781526020017f4d79546f6b656e000000000000000000000000000000000000000000000000008152506040518060400160405280600381526020017f4d544b0000000000000000000000000000000000000000000000000000000000815250816000908051906020019062000096929190620001a6565b508060019080519060200190620000af929190620001a6565b505050620000d2620000c6620000d860201b60201c565b620000e060201b60201c565b620002bb565b600033905090565b6000600660009054906101000a900473ffffffffffffffffffffffffffffffffffffffff16905081600660006101000a81548173ffffffffffffffffffffffffffffffffffffffff021916908373ffffffffffffffffffffffffffffffffffffffff1602179055508173ffffffffffffffffffffffffffffffffffffffff168173ffffffffffffffffffffffffffffffffffffffff167f8be0079c531659141344cd1fd0a4f28419497f9722a3daafe3b4186f6b6457e060405160405180910390a35050565b828054620001b49062000256565b90600052602060002090601f016020900481019282620001d8576000855562000224565b82601f10620001f357805160ff191683800117855562000224565b8280016001018555821562000224579182015b828111156200022357825182559160200191906001019062000206565b5b50905062000233919062000237565b5090565b5b808211156200025257600081600090555060010162000238565b5090565b600060028204905060018216806200026f57607f821691505b602082108114156200028657620002856200028c565b5b50919050565b7f4e487b7100000000000000000000000000000000000000000000000000000000600052602260045260246000fd5b61288c80620002cb6000396000f3fe608060405234801561001057600080fd5b506004361061010b5760003560e01c806370a08231116100a2578063a22cb46511610071578063a22cb465146102a4578063b88d4fde146102c0578063c87b56dd146102dc578063e985e9c51461030c578063f2fde38b1461033c5761010b565b806370a082311461022e578063715018a61461025e5780638da5cb5b1461026857806395d89b41146102865761010b565b806323b872dd116100de57806323b872dd146101aa57806340d097c3146101c657806342842e0e146101e25780636352211e146101fe5761010b565b806301ffc9a71461011057806306fdde0314610140578063081812fc1461015e578063095ea7b31461018e575b600080fd5b61012a60048036038101906101259190611b6c565b610358565b6040516101379190611f09565b60405180910390f35b61014861043a565b6040516101559190611f24565b60405180910390f35b61017860048036038101906101739190611bbe565b6104cc565b6040516101859190611ea2565b60405180910390f35b6101a860048036038101906101a39190611b30565b610512565b005b6101c460048036038101906101bf9190611a2a565b61062a565b005b6101e060048036038101906101db91906119c5565b61068a565b005b6101fc60048036038101906101f79190611a2a565b6106b8565b005b61021860048036038101906102139190611bbe565b6106d8565b6040516102259190611ea2565b60405180910390f35b610248600480360381019061024391906119c5565b61078a565b60405161025591906120e6565b60405180910390f35b610266610842565b005b610270610856565b60405161027d9190611ea2565b60405180910390f35b61028e610880565b60405161029b9190611f24565b60405180910390f35b6102be60048036038101906102b99190611af4565b610912565b005b6102da60048036038101906102d59190611a79565b610928565b005b6102f660048036038101906102f19190611bbe565b61098a565b6040516103039190611f24565b60405180910390f35b610326600480360381019061032191906119ee565b6109f2565b6040516103339190611f09565b60405180910390f35b610356600480360381019061035191906119c5565b610a86565b005b60007f80ac58cd000000000000000000000000000000000000000000000000000000007bffffffffffffffffffffffffffffffffffffffffffffffffffffffff1916827bffffffffffffffffffffffffffffffffffffffffffffffffffffffff1916148061042357507f5b5e139f000000000000000000000000000000000000000000000000000000007bffffffffffffffffffffffffffffffffffffffffffffffffffffffff1916827bffffffffffffffffffffffffffffffffffffffffffffffffffffffff1916145b80610433575061043282610b0a565b5b9050919050565b6060600080546104499061230b565b80601f01602080910402602001604051908101604052809291908181526020018280546104759061230b565b80156104c25780601f10610497576101008083540402835291602001916104c2565b820191906000526020600020905b8154815290600101906020018083116104a557829003601f168201915b5050505050905090565b60006104d782610b74565b6004600083815260200190815260200160002060009054906101000a900473ffffffffffffffffffffffffffffffffffffffff169050919050565b600061051d826106d8565b90508073ffffffffffffffffffffffffffffffffffffffff168373ffffffffffffffffffffffffffffffffffffffff16141561058e576040517f08c379a0000000000000000000000000000000000000000000000000000000008152600401610585906120a6565b60405180910390fd5b8073ffffffffffffffffffffffffffffffffffffffff166105ad610bbf565b73ffffffffffffffffffffffffffffffffffffffff1614806105dc57506105db816105d6610bbf565b6109f2565b5b61061b576040517f08c379a000000000000000000000000000000000000000000000000000000000815260040161061290612026565b60405180910390fd5b6106258383610bc7565b505050565b61063b610635610bbf565b82610c80565b61067a576040517f08c379a0000000000000000000000000000000000000000000000000000000008152600401610671906120c6565b60405180910390fd5b610685838383610d15565b505050565b610692610f7c565b600061069e6007610ffa565b90506106aa6007611008565b6106b4828261101e565b5050565b6106d383838360405180602001604052806000815250610928565b505050565b6000806002600084815260200190815260200160002060009054906101000a900473ffffffffffffffffffffffffffffffffffffffff169050600073ffffffffffffffffffffffffffffffffffffffff168173ffffffffffffffffffffffffffffffffffffffff161415610781576040517f08c379a000000000000000000000000000000000000000000000000000000000815260040161077890612086565b60405180910390fd5b80915050919050565b60008073ffffffffffffffffffffffffffffffffffffffff168273ffffffffffffffffffffffffffffffffffffffff1614156107fb576040517f08c379a00000000000000000000000000000000000000000000000000000000081526004016107f290612006565b60405180910390fd5b600360008373ffffffffffffffffffffffffffffffffffffffff1673ffffffffffffffffffffffffffffffffffffffff168152602001908152602001600020549050919050565b61084a610f7c565b610854600061103c565b565b6000600660009054906101000a900473ffffffffffffffffffffffffffffffffffffffff16905090565b60606001805461088f9061230b565b80601f01602080910402602001604051908101604052809291908181526020018280546108bb9061230b565b80156109085780601f106108dd57610100808354040283529160200191610908565b820191906000526020600020905b8154815290600101906020018083116108eb57829003601f168201915b5050505050905090565b61092461091d610bbf565b8383611102565b5050565b610939610933610bbf565b83610c80565b610978576040517f08c379a000000000000000000000000000000000000000000000000000000000815260040161096f906120c6565b60405180910390fd5b6109848484848461126f565b50505050565b606061099582610b74565b600061099f6112cb565b905060008151116109bf57604051806020016040528060008152506109ea565b806109c9846112e2565b6040516020016109da929190611e7e565b6040516020818303038152906040525b915050919050565b6000600560008473ffffffffffffffffffffffffffffffffffffffff1673ffffffffffffffffffffffffffffffffffffffff16815260200190815260200160002060008373ffffffffffffffffffffffffffffffffffffffff1673ffffffffffffffffffffffffffffffffffffffff16815260200190815260200160002060009054906101000a900460ff16905092915050565b610a8e610f7c565b600073ffffffffffffffffffffffffffffffffffffffff168173ffffffffffffffffffffffffffffffffffffffff161415610afe576040517f08c379a0000000000000000000000000000000000000000000000000000000008152600401610af590611f66565b60405180910390fd5b610b078161103c565b50565b60007f01ffc9a7000000000000000000000000000000000000000000000000000000007bffffffffffffffffffffffffffffffffffffffffffffffffffffffff1916827bffffffffffffffffffffffffffffffffffffffffffffffffffffffff1916149050919050565b610b7d8161148f565b610bbc576040517f08c379a0000000000000000000000000000000000000000000000000000000008152600401610bb390612086565b60405180910390fd5b50565b600033905090565b816004600083815260200190815260200160002060006101000a81548173ffffffffffffffffffffffffffffffffffffffff021916908373ffffffffffffffffffffffffffffffffffffffff160217905550808273ffffffffffffffffffffffffffffffffffffffff16610c3a836106d8565b73ffffffffffffffffffffffffffffffffffffffff167f8c5be1e5ebec7d5bd14f71427d1e84f3dd0314c0f7b2291e5b200ac8c7c3b92560405160405180910390a45050565b600080610c8c836106d8565b90508073ffffffffffffffffffffffffffffffffffffffff168473ffffffffffffffffffffffffffffffffffffffff161480610cce5750610ccd81856109f2565b5b80610d0c57508373ffffffffffffffffffffffffffffffffffffffff16610cf4846104cc565b73ffffffffffffffffffffffffffffffffffffffff16145b91505092915050565b8273ffffffffffffffffffffffffffffffffffffffff16610d35826106d8565b73ffffffffffffffffffffffffffffffffffffffff1614610d8b576040517f08c379a0000000000000000000000000000000000000000000000000000000008152600401610d8290611f86565b60405180910390fd5b600073ffffffffffffffffffffffffffffffffffffffff168273ffffffffffffffffffffffffffffffffffffffff161415610dfb576040517f08c379a0000000000000000000000000000000000000000000000000000000008152600401610df290611fc6565b60405180910390fd5b610e068383836114fb565b610e11600082610bc7565b6001600360008573ffffffffffffffffffffffffffffffffffffffff1673ffffffffffffffffffffffffffffffffffffffff1681526020019081526020016000206000828254610e619190612221565b925050819055506001600360008473ffffffffffffffffffffffffffffffffffffffff1673ffffffffffffffffffffffffffffffffffffffff1681526020019081526020016000206000828254610eb8919061219a565b92505081905550816002600083815260200190815260200160002060006101000a81548173ffffffffffffffffffffffffffffffffffffffff021916908373ffffffffffffffffffffffffffffffffffffffff160217905550808273ffffffffffffffffffffffffffffffffffffffff168473ffffffffffffffffffffffffffffffffffffffff167fddf252ad1be2c89b69c2b068fc378daa952ba7f163c4a11628f55a4df523b3ef60405160405180910390a4610f77838383611500565b505050565b610f84610bbf565b73ffffffffffffffffffffffffffffffffffffffff16610fa2610856565b73ffffffffffffffffffffffffffffffffffffffff1614610ff8576040517f08c379a0000000000000000000000000000000000000000000000000000000008152600401610fef90612066565b60405180910390fd5b565b600081600001549050919050565b6001816000016000828254019250508190555050565b611038828260405180602001604052806000815250611505565b5050565b6000600660009054906101000a900473ffffffffffffffffffffffffffffffffffffffff16905081600660006101000a81548173ffffffffffffffffffffffffffffffffffffffff021916908373ffffffffffffffffffffffffffffffffffffffff1602179055508173ffffffffffffffffffffffffffffffffffffffff168173ffffffffffffffffffffffffffffffffffffffff167f8be0079c531659141344cd1fd0a4f28419497f9722a3daafe3b4186f6b6457e060405160405180910390a35050565b8173ffffffffffffffffffffffffffffffffffffffff168373ffffffffffffffffffffffffffffffffffffffff161415611171576040517f08c379a000000000000000000000000000000000000000000000000000000000815260040161116890611fe6565b60405180910390fd5b80600560008573ffffffffffffffffffffffffffffffffffffffff1673ffffffffffffffffffffffffffffffffffffffff16815260200190815260200160002060008473ffffffffffffffffffffffffffffffffffffffff1673ffffffffffffffffffffffffffffffffffffffff16815260200190815260200160002060006101000a81548160ff0219169083151502179055508173ffffffffffffffffffffffffffffffffffffffff168373ffffffffffffffffffffffffffffffffffffffff167f17307eab39ab6107e8899845ad3d59bd9653f200f220920489ca2b5937696c31836040516112629190611f09565b60405180910390a3505050565b61127a848484610d15565b61128684848484611560565b6112c5576040517f08c379a00000000000000000000000000000000000000000000000000000000081526004016112bc90611f46565b60405180910390fd5b50505050565b606060405180602001604052806000815250905090565b6060600082141561132a576040518060400160405280600181526020017f3000000000000000000000000000000000000000000000000000000000000000815250905061148a565b600082905060005b6000821461135c5780806113459061236e565b915050600a8261135591906121f0565b9150611332565b60008167ffffffffffffffff81111561139e577f4e487b7100000000000000000000000000000000000000000000000000000000600052604160045260246000fd5b6040519080825280601f01601f1916602001820160405280156113d05781602001600182028036833780820191505090505b5090505b60008514611483576001826113e99190612221565b9150600a856113f891906123b7565b6030611404919061219a565b60f81b818381518110611440577f4e487b7100000000000000000000000000000000000000000000000000000000600052603260045260246000fd5b60200101907effffffffffffffffffffffffffffffffffffffffffffffffffffffffffffff1916908160001a905350600a8561147c91906121f0565b94506113d4565b8093505050505b919050565b60008073ffffffffffffffffffffffffffffffffffffffff166002600084815260200190815260200160002060009054906101000a900473ffffffffffffffffffffffffffffffffffffffff1673ffffffffffffffffffffffffffffffffffffffff1614159050919050565b505050565b505050565b61150f83836116f7565b61151c6000848484611560565b61155b576040517f08c379a000000000000000000000000000000000000000000000000000000000815260040161155290611f46565b60405180910390fd5b505050565b60006115818473ffffffffffffffffffffffffffffffffffffffff166118d1565b156116ea578373ffffffffffffffffffffffffffffffffffffffff1663150b7a026115aa610bbf565b8786866040518563ffffffff1660e01b81526004016115cc9493929190611ebd565b602060405180830381600087803b1580156115e657600080fd5b505af192505050801561161757506040513d601f19601f820116820180604052508101906116149190611b95565b60015b61169a573d8060008114611647576040519150601f19603f3d011682016040523d82523d6000602084013e61164c565b606091505b50600081511415611692576040517f08c379a000000000000000000000000000000000000000000000000000000000815260040161168990611f46565b60405180910390fd5b805181602001fd5b63150b7a0260e01b7bffffffffffffffffffffffffffffffffffffffffffffffffffffffff1916817bffffffffffffffffffffffffffffffffffffffffffffffffffffffff1916149150506116ef565b600190505b949350505050565b600073ffffffffffffffffffffffffffffffffffffffff168273ffffffffffffffffffffffffffffffffffffffff161415611767576040517f08c379a000000000000000000000000000000000000000000000000000000000815260040161175e90612046565b60405180910390fd5b6117708161148f565b156117b0576040517f08c379a00000000000000000000000000000000000000000000000000000000081526004016117a790611fa6565b60405180910390fd5b6117bc600083836114fb565b6001600360008473ffffffffffffffffffffffffffffffffffffffff1673ffffffffffffffffffffffffffffffffffffffff168152602001908152602001600020600082825461180c919061219a565b92505081905550816002600083815260200190815260200160002060006101000a81548173ffffffffffffffffffffffffffffffffffffffff021916908373ffffffffffffffffffffffffffffffffffffffff160217905550808273ffffffffffffffffffffffffffffffffffffffff16600073ffffffffffffffffffffffffffffffffffffffff167fddf252ad1be2c89b69c2b068fc378daa952ba7f163c4a11628f55a4df523b3ef60405160405180910390a46118cd60008383611500565b5050565b6000808273ffffffffffffffffffffffffffffffffffffffff163b119050919050565b600061190761190284612126565b612101565b90508281526020810184848401111561191f57600080fd5b61192a8482856122c9565b509392505050565b600081359050611941816127fa565b92915050565b60008135905061195681612811565b92915050565b60008135905061196b81612828565b92915050565b60008151905061198081612828565b92915050565b600082601f83011261199757600080fd5b81356119a78482602086016118f4565b91505092915050565b6000813590506119bf8161283f565b92915050565b6000602082840312156119d757600080fd5b60006119e584828501611932565b91505092915050565b60008060408385031215611a0157600080fd5b6000611a0f85828601611932565b9250506020611a2085828601611932565b9150509250929050565b600080600060608486031215611a3f57600080fd5b6000611a4d86828701611932565b9350506020611a5e86828701611932565b9250506040611a6f868287016119b0565b9150509250925092565b60008060008060808587031215611a8f57600080fd5b6000611a9d87828801611932565b9450506020611aae87828801611932565b9350506040611abf878288016119b0565b925050606085013567ffffffffffffffff811115611adc57600080fd5b611ae887828801611986565b91505092959194509250565b60008060408385031215611b0757600080fd5b6000611b1585828601611932565b9250506020611b2685828601611947565b9150509250929050565b60008060408385031215611b4357600080fd5b6000611b5185828601611932565b9250506020611b62858286016119b0565b9150509250929050565b600060208284031215611b7e57600080fd5b6000611b8c8482850161195c565b91505092915050565b600060208284031215611ba757600080fd5b6000611bb584828501611971565b91505092915050565b600060208284031215611bd057600080fd5b6000611bde848285016119b0565b91505092915050565b611bf081612255565b82525050565b611bff81612267565b82525050565b6000611c1082612157565b611c1a818561216d565b9350611c2a8185602086016122d8565b611c33816124a4565b840191505092915050565b6000611c4982612162565b611c53818561217e565b9350611c638185602086016122d8565b611c6c816124a4565b840191505092915050565b6000611c8282612162565b611c8c818561218f565b9350611c9c8185602086016122d8565b80840191505092915050565b6000611cb560328361217e565b9150611cc0826124b5565b604082019050919050565b6000611cd860268361217e565b9150611ce382612504565b604082019050919050565b6000611cfb60258361217e565b9150611d0682612553565b604082019050919050565b6000611d1e601c8361217e565b9150611d29826125a2565b602082019050919050565b6000611d4160248361217e565b9150611d4c826125cb565b604082019050919050565b6000611d6460198361217e565b9150611d6f8261261a565b602082019050919050565b6000611d8760298361217e565b9150611d9282612643565b604082019050919050565b6000611daa603e8361217e565b9150611db582612692565b604082019050919050565b6000611dcd60208361217e565b9150611dd8826126e1565b602082019050919050565b6000611df060208361217e565b9150611dfb8261270a565b602082019050919050565b6000611e1360188361217e565b9150611e1e82612733565b602082019050919050565b6000611e3660218361217e565b9150611e418261275c565b604082019050919050565b6000611e59602e8361217e565b9150611e64826127ab565b604082019050919050565b611e78816122bf565b82525050565b6000611e8a8285611c77565b9150611e968284611c77565b91508190509392505050565b6000602082019050611eb76000830184611be7565b92915050565b6000608082019050611ed26000830187611be7565b611edf6020830186611be7565b611eec6040830185611e6f565b8181036060830152611efe8184611c05565b905095945050505050565b6000602082019050611f1e6000830184611bf6565b92915050565b60006020820190508181036000830152611f3e8184611c3e565b905092915050565b60006020820190508181036000830152611f5f81611ca8565b9050919050565b60006020820190508181036000830152611f7f81611ccb565b9050919050565b60006020820190508181036000830152611f9f81611cee565b9050919050565b60006020820190508181036000830152611fbf81611d11565b9050919050565b60006020820190508181036000830152611fdf81611d34565b9050919050565b60006020820190508181036000830152611fff81611d57565b9050919050565b6000602082019050818103600083015261201f81611d7a565b9050919050565b6000602082019050818103600083015261203f81611d9d565b9050919050565b6000602082019050818103600083015261205f81611dc0565b9050919050565b6000602082019050818103600083015261207f81611de3565b9050919050565b6000602082019050818103600083015261209f81611e06565b9050919050565b600060208201905081810360008301526120bf81611e29565b9050919050565b600060208201905081810360008301526120df81611e4c565b9050919050565b60006020820190506120fb6000830184611e6f565b92915050565b600061210b61211c565b9050612117828261233d565b919050565b6000604051905090565b600067ffffffffffffffff82111561214157612140612475565b5b61214a826124a4565b9050602081019050919050565b600081519050919050565b600081519050919050565b600082825260208201905092915050565b600082825260208201905092915050565b600081905092915050565b60006121a5826122bf565b91506121b0836122bf565b9250827fffffffffffffffffffffffffffffffffffffffffffffffffffffffffffffffff038211156121e5576121e46123e8565b5b828201905092915050565b60006121fb826122bf565b9150612206836122bf565b92508261221657612215612417565b5b828204905092915050565b600061222c826122bf565b9150612237836122bf565b92508282101561224a576122496123e8565b5b828203905092915050565b60006122608261229f565b9050919050565b60008115159050919050565b60007fffffffff0000000000000000000000000000000000000000000000000000000082169050919050565b600073ffffffffffffffffffffffffffffffffffffffff82169050919050565b6000819050919050565b82818337600083830152505050565b60005b838110156122f65780820151818401526020810190506122db565b83811115612305576000848401525b50505050565b6000600282049050600182168061232357607f821691505b6020821081141561233757612336612446565b5b50919050565b612346826124a4565b810181811067ffffffffffffffff8211171561236557612364612475565b5b80604052505050565b6000612379826122bf565b91507fffffffffffffffffffffffffffffffffffffffffffffffffffffffffffffffff8214156123ac576123ab6123e8565b5b600182019050919050565b60006123c2826122bf565b91506123cd836122bf565b9250826123dd576123dc612417565b5b828206905092915050565b7f4e487b7100000000000000000000000000000000000000000000000000000000600052601160045260246000fd5b7f4e487b7100000000000000000000000000000000000000000000000000000000600052601260045260246000fd5b7f4e487b7100000000000000000000000000000000000000000000000000000000600052602260045260246000fd5b7f4e487b7100000000000000000000000000000000000000000000000000000000600052604160045260246000fd5b6000601f19601f8301169050919050565b7f4552433732313a207472616e7366657220746f206e6f6e20455243373231526560008201527f63656976657220696d706c656d656e7465720000000000000000000000000000602082015250565b7f4f776e61626c653a206e6577206f776e657220697320746865207a65726f206160008201527f6464726573730000000000000000000000000000000000000000000000000000602082015250565b7f4552433732313a207472616e736665722066726f6d20696e636f72726563742060008201527f6f776e6572000000000000000000000000000000000000000000000000000000602082015250565b7f4552433732313a20746f6b656e20616c7265616479206d696e74656400000000600082015250565b7f4552433732313a207472616e7366657220746f20746865207a65726f2061646460008201527f7265737300000000000000000000000000000000000000000000000000000000602082015250565b7f4552433732313a20617070726f766520746f2063616c6c657200000000000000600082015250565b7f4552433732313a2061646472657373207a65726f206973206e6f74206120766160008201527f6c6964206f776e65720000000000000000000000000000000000000000000000602082015250565b7f4552433732313a20617070726f76652063616c6c6572206973206e6f7420746f60008201527f6b656e206f776e6572206e6f7220617070726f76656420666f7220616c6c0000602082015250565b7f4552433732313a206d696e7420746f20746865207a65726f2061646472657373600082015250565b7f4f776e61626c653a2063616c6c6572206973206e6f7420746865206f776e6572600082015250565b7f4552433732313a20696e76616c696420746f6b656e2049440000000000000000600082015250565b7f4552433732313a20617070726f76616c20746f2063757272656e74206f776e6560008201527f7200000000000000000000000000000000000000000000000000000000000000602082015250565b7f4552433732313a2063616c6c6572206973206e6f7420746f6b656e206f776e6560008201527f72206e6f7220617070726f766564000000000000000000000000000000000000602082015250565b61280381612255565b811461280e57600080fd5b50565b61281a81612267565b811461282557600080fd5b50565b61283181612273565b811461283c57600080fd5b50565b612848816122bf565b811461285357600080fd5b5056fea264697066735822122035831036c370be748a60acdff227bcead7655e543753de1b78c6c34dea3e7adf64736f6c63430008040033",
  "linkReferences": {},
  "deployedLinkReferences": {}
}