{
  "_format": "hh-sol-artifact-1",
  "contractName": "IDO",
  "sourceName": "contracts/IDO.sol",
  "abi": [
    {
      "inputs": [
        {
          "internalType": "address",
          "name": "_token",
          "type": "address"
        },
        {
          "internalType": "address",
          "name": "_busd",
          "type": "address"
        },
        {
          "internalType": "address",
          "name": "_dev",
          "type": "address"
        },
        {
          "internalType": "uint256",
          "name": "_startBuyTime",
          "type": "uint256"
        },
        {
          "internalType": "uint256",
          "name": "_endBuyTime",
          "type": "uint256"
        },
        {
          "internalType": "uint256",
          "name": "_claimTime",
          "type": "uint256"
        },
        {
          "internalType": "uint256",
          "name": "_cliffTime",
          "type": "uint256"
        },
        {
          "internalType": "uint256",
          "name": "_listingTime",
          "type": "uint256"
        }
      ],
      "stateMutability": "nonpayable",
      "type": "constructor"
    },
    {
      "anonymous": false,
      "inputs": [
        {
          "indexed": false,
          "internalType": "address",
          "name": "buyer",
          "type": "address"
        },
        {
          "indexed": false,
          "internalType": "uint256",
          "name": "amount",
          "type": "uint256"
        },
        {
          "indexed": false,
          "internalType": "uint256",
          "name": "timestamp",
          "type": "uint256"
        }
      ],
      "name": "Buy",
      "type": "event"
    },
    {
      "anonymous": false,
      "inputs": [
        {
          "indexed": false,
          "internalType": "address",
          "name": "caller",
          "type": "address"
        },
        {
          "indexed": false,
          "internalType": "uint256",
          "name": "amount",
          "type": "uint256"
        },
        {
          "indexed": false,
          "internalType": "uint256",
          "name": "timestamp",
          "type": "uint256"
        }
      ],
      "name": "Claim",
      "type": "event"
    },
    {
      "anonymous": false,
      "inputs": [
        {
          "indexed": true,
          "internalType": "address",
          "name": "previousOwner",
          "type": "address"
        },
        {
          "indexed": true,
          "internalType": "address",
          "name": "newOwner",
          "type": "address"
        }
      ],
      "name": "OwnershipTransferred",
      "type": "event"
    },
    {
      "inputs": [],
      "name": "VESTING_DURATION",
      "outputs": [
        {
          "internalType": "uint256",
          "name": "",
          "type": "uint256"
        }
      ],
      "stateMutability": "view",
      "type": "function"
    },
    {
      "inputs": [],
      "name": "VESTING_WINDOW",
      "outputs": [
        {
          "internalType": "uint256",
          "name": "",
          "type": "uint256"
        }
      ],
      "stateMutability": "view",
      "type": "function"
    },
    {
      "inputs": [],
      "name": "busd",
      "outputs": [
        {
          "internalType": "contract IERC20",
          "name": "",
          "type": "address"
        }
      ],
      "stateMutability": "view",
      "type": "function"
    },
    {
      "inputs": [
        {
          "internalType": "uint256",
          "name": "buyAmount",
          "type": "uint256"
        }
      ],
      "name": "buy",
      "outputs": [],
      "stateMutability": "nonpayable",
      "type": "function"
    },
    {
      "inputs": [],
      "name": "claim",
      "outputs": [],
      "stateMutability": "nonpayable",
      "type": "function"
    },
    {
      "inputs": [],
      "name": "claimTime",
      "outputs": [
        {
          "internalType": "uint256",
          "name": "",
          "type": "uint256"
        }
      ],
      "stateMutability": "view",
      "type": "function"
    },
    {
      "inputs": [],
      "name": "cliffTime",
      "outputs": [
        {
          "internalType": "uint256",
          "name": "",
          "type": "uint256"
        }
      ],
      "stateMutability": "view",
      "type": "function"
    },
    {
      "inputs": [],
      "name": "currentSale",
      "outputs": [
        {
          "internalType": "uint256",
          "name": "",
          "type": "uint256"
        }
      ],
      "stateMutability": "view",
      "type": "function"
    },
    {
      "inputs": [],
      "name": "dailyVestingPercent",
      "outputs": [
        {
          "internalType": "uint256",
          "name": "",
          "type": "uint256"
        }
      ],
      "stateMutability": "view",
      "type": "function"
    },
    {
      "inputs": [],
      "name": "dev",
      "outputs": [
        {
          "internalType": "address",
          "name": "",
          "type": "address"
        }
      ],
      "stateMutability": "view",
      "type": "function"
    },
    {
      "inputs": [],
      "name": "endBuyTime",
      "outputs": [
        {
          "internalType": "uint256",
          "name": "",
          "type": "uint256"
        }
      ],
      "stateMutability": "view",
      "type": "function"
    },
    {
      "inputs": [],
      "name": "getVestingAmount",
      "outputs": [
        {
          "internalType": "uint256",
          "name": "",
          "type": "uint256"
        }
      ],
      "stateMutability": "view",
      "type": "function"
    },
    {
      "inputs": [],
      "name": "initVestingPercent",
      "outputs": [
        {
          "internalType": "uint256",
          "name": "",
          "type": "uint256"
        }
      ],
      "stateMutability": "view",
      "type": "function"
    },
    {
      "inputs": [],
      "name": "ipoPrice",
      "outputs": [
        {
          "internalType": "uint256",
          "name": "",
          "type": "uint256"
        }
      ],
      "stateMutability": "view",
      "type": "function"
    },
    {
      "inputs": [],
      "name": "listingTime",
      "outputs": [
        {
          "internalType": "uint256",
          "name": "",
          "type": "uint256"
        }
      ],
      "stateMutability": "view",
      "type": "function"
    },
    {
      "inputs": [],
      "name": "maxBuyAmount",
      "outputs": [
        {
          "internalType": "uint256",
          "name": "",
          "type": "uint256"
        }
      ],
      "stateMutability": "view",
      "type": "function"
    },
    {
      "inputs": [],
      "name": "minBuyAmount",
      "outputs": [
        {
          "internalType": "uint256",
          "name": "",
          "type": "uint256"
        }
      ],
      "stateMutability": "view",
      "type": "function"
    },
    {
      "inputs": [],
      "name": "owner",
      "outputs": [
        {
          "internalType": "address",
          "name": "",
          "type": "address"
        }
      ],
      "stateMutability": "view",
      "type": "function"
    },
    {
      "inputs": [],
      "name": "progress",
      "outputs": [
        {
          "internalType": "uint256",
          "name": "",
          "type": "uint256"
        }
      ],
      "stateMutability": "view",
      "type": "function"
    },
    {
      "inputs": [
        {
          "internalType": "address",
          "name": "_user",
          "type": "address"
        }
      ],
      "name": "refund",
      "outputs": [],
      "stateMutability": "nonpayable",
      "type": "function"
    },
    {
      "inputs": [],
      "name": "renounceOwnership",
      "outputs": [],
      "stateMutability": "nonpayable",
      "type": "function"
    },
    {
      "inputs": [],
      "name": "revokeBusd",
      "outputs": [],
      "stateMutability": "nonpayable",
      "type": "function"
    },
    {
      "inputs": [],
      "name": "revokeToken",
      "outputs": [],
      "stateMutability": "nonpayable",
      "type": "function"
    },
    {
      "inputs": [],
      "name": "startBuyTime",
      "outputs": [
        {
          "internalType": "uint256",
          "name": "",
          "type": "uint256"
        }
      ],
      "stateMutability": "view",
      "type": "function"
    },
    {
      "inputs": [],
      "name": "token",
      "outputs": [
        {
          "internalType": "contract IERC20",
          "name": "",
          "type": "address"
        }
      ],
      "stateMutability": "view",
      "type": "function"
    },
    {
      "inputs": [],
      "name": "totalSale",
      "outputs": [
        {
          "internalType": "uint256",
          "name": "",
          "type": "uint256"
        }
      ],
      "stateMutability": "view",
      "type": "function"
    },
    {
      "inputs": [
        {
          "internalType": "address",
          "name": "newOwner",
          "type": "address"
        }
      ],
      "name": "transferOwnership",
      "outputs": [],
      "stateMutability": "nonpayable",
      "type": "function"
    },
    {
      "inputs": [
        {
          "internalType": "address",
          "name": "",
          "type": "address"
        }
      ],
      "name": "userByAddress",
      "outputs": [
        {
          "internalType": "uint256",
          "name": "buyAmount",
          "type": "uint256"
        },
        {
          "internalType": "uint256",
          "name": "initVestingAmount",
          "type": "uint256"
        },
        {
          "internalType": "uint256",
          "name": "initVestingDebt",
          "type": "uint256"
        },
        {
          "internalType": "uint256",
          "name": "dailyVestingAmount",
          "type": "uint256"
        },
        {
          "internalType": "uint256",
          "name": "dailyVestingDebt",
          "type": "uint256"
        }
      ],
      "stateMutability": "view",
      "type": "function"
    }
  ],
  "bytecode": "0x60c0604052600f6009819055661c6bf526340000600a556201518060805260b760a0526601f0fddc23ba0e600b5569261dd1ce2f2088800000600c556000600d556830ca024f987b900000600e55681043561a882930000090553480156200006657600080fd5b50604051620013cb380380620013cb8339810160408190526200008991620001a7565b62000094336200013a565b600180546001600160a01b03808b166001600160a01b031992831617909255600280548a8416908316179055600380549289169290911691909117905560048590556005849055600683905560078290556008819055818311156200012c5760405162461bcd60e51b815260206004820152600a60248201526934b734ba1032b93937b960b11b604482015260640160405180910390fd5b505050505050505062000221565b600080546001600160a01b038381166001600160a01b0319831681178455604051919092169283917f8be0079c531659141344cd1fd0a4f28419497f9722a3daafe3b4186f6b6457e09190a35050565b80516001600160a01b0381168114620001a257600080fd5b919050565b600080600080600080600080610100898b031215620001c4578384fd5b620001cf896200018a565b9750620001df60208a016200018a565b9650620001ef60408a016200018a565b9550606089015194506080890151935060a0890151925060c0890151915060e089015190509295985092959890939650565b60805160a051611168620002636000396000818161024b0152818161044901528181610476015261049a01526000818161029b015261040b01526111686000f3fe608060405234801561001057600080fd5b50600436106101c45760003560e01c806389a1420f116100f9578063d96a094a11610097578063f2fde38b11610071578063f2fde38b14610386578063f66bf22914610399578063fa89401a146103a2578063fc0c546a146103b557600080fd5b8063d96a094a14610361578063ea4ce23914610374578063f01d226f1461037d57600080fd5b8063989e5ea9116100d3578063989e5ea9146102e1578063a05d03fd14610346578063aa6826821461034f578063d00d10121461035857600080fd5b806389a1420f146102965780638da5cb5b146102bd57806391cca3db146102ce57600080fd5b806346339493116101665780635597bc41116101405780635597bc4114610275578063577bd3361461027d578063715018a61461028557806388e765ff1461028d57600080fd5b8063463394931461023c5780634cfc4d30146102465780634e71d92d1461026d57600080fd5b806327b3bf11116101a257806327b3bf11146101f757806333b14742146102005780633ca5b234146102095780633f57faa91461023457600080fd5b806308e695ad146101c95780630f1a6444146101e5578063247d867f146101ee575b600080fd5b6101d2600a5481565b6040519081526020015b60405180910390f35b6101d260075481565b6101d260095481565b6101d260065481565b6101d260085481565b60025461021c906001600160a01b031681565b6040516001600160a01b0390911681526020016101dc565b6101d26103c8565b610244610530565b005b6101d27f000000000000000000000000000000000000000000000000000000000000000081565b6102446105d1565b6102446106d5565b6101d2610773565b6102446107a2565b6101d2600e5481565b6101d27f000000000000000000000000000000000000000000000000000000000000000081565b6000546001600160a01b031661021c565b60035461021c906001600160a01b031681565b61031e6102ef366004610fbc565b601060205260009081526040902080546001820154600283015460038401546004909401549293919290919085565b604080519586526020860194909452928401919091526060830152608082015260a0016101dc565b6101d2600d5481565b6101d260045481565b6101d2600b5481565b61024461036f366004611003565b6107b6565b6101d2600c5481565b6101d260055481565b610244610394366004610fbc565b610a70565b6101d2600f5481565b6102446103b0366004610fbc565b610ae6565b60015461021c906001600160a01b031681565b336000908152601060205260408120600654829042106103f957816002015482600101546103f691906110d9565b90505b6000600754421061051e5760006104457f000000000000000000000000000000000000000000000000000000000000000061043f60045442610bee90919063ffffffff16565b90610c01565b90507f000000000000000000000000000000000000000000000000000000000000000081116104745780610496565b7f00000000000000000000000000000000000000000000000000000000000000005b90507f00000000000000000000000000000000000000000000000000000000000000008114156104db57836004015484600301546104d491906110d9565b915061051c565b836004015461050f8261050967016345785d8a000061043f600b548a60030154610c0d90919063ffffffff16565b90610c0d565b61051991906110d9565b91505b505b6105288183611082565b935050505090565b610538610c19565b6001546040516370a0823160e01b81523060048201526000916001600160a01b0316906370a082319060240160206040518083038186803b15801561057c57600080fd5b505afa158015610590573d6000803e3d6000fd5b505050506040513d601f19601f820116820180604052508101906105b4919061101b565b6001549091506105ce906001600160a01b03163383610c73565b50565b60006105db6103c8565b9050600081116106215760405162461bcd60e51b815260206004820152600c60248201526b31b630b4b69d1032b93937b960a11b60448201526064015b60405180910390fd5b600154610638906001600160a01b03163383610c73565b3360009081526010602052604081206004810180549192849261065c908490611082565b9091555050600281015461069257806001015481600401600082825461068291906110d9565b9091555050600181015460028201555b6040805133815260208101849052428183015290517f34fcbac0073d7c3d388e51312faf357774904998eeb8fca628b9e6f65ee1cbf79181900360600190a15050565b6106dd610c19565b6002546040516370a0823160e01b81523060048201526000916001600160a01b0316906370a082319060240160206040518083038186803b15801561072157600080fd5b505afa158015610735573d6000803e3d6000fd5b505050506040513d601f19601f82011682018060405250810190610759919061101b565b6002549091506105ce906001600160a01b03163383610c73565b600061079d6064610509600c5461043f670de0b6b3a7640000600d54610c0d90919063ffffffff16565b905090565b6107aa610c19565b6107b46000610cdb565b565b6004544210156107f85760405162461bcd60e51b815260206004820152600d60248201526c313abc9d103737ba1037b832b760991b6044820152606401610618565b6005544211156108425760405162461bcd60e51b8152602060048201526015602482015274189d5e4e88189d5e481d1a5b5948195e1c1a5c9959605a1b6044820152606401610618565b600f5481101580156108565750600e548111155b6108985760405162461bcd60e51b8152602060048201526013602482015272189d5e4e881a5b9d985b1a5908185b5bdd5b9d606a1b6044820152606401610618565b600c5481600d546108a99190611082565b11156108f75760405162461bcd60e51b815260206004820152601760248201527f6275793a206578636565647320746f74616c2073616c650000000000000000006044820152606401610618565b336000908152601060205260409020600e548154610916908490611082565b11156109645760405162461bcd60e51b815260206004820152601760248201527f6275793a206d617820616d6f756e7420657863656564730000000000000000006044820152606401610618565b600354600254610983916001600160a01b039182169133911685610d2b565b81600d60008282546109959190611082565b90915550508054829082906000906109ae908490611082565b9091555050600a546000906109cf9061043f85670de0b6b3a7640000610c0d565b905060006109ed606461043f60095485610c0d90919063ffffffff16565b905080836001016000828254610a039190611082565b90915550610a1390508282610bee565b836003016000828254610a269190611082565b90915550506040805133815260208101869052428183015290517f1cbc5ab135991bd2b6a4b034a04aa2aa086dac1371cb9b16b8b5e2ed6b036bed9181900360600190a150505050565b610a78610c19565b6001600160a01b038116610add5760405162461bcd60e51b815260206004820152602660248201527f4f776e61626c653a206e6577206f776e657220697320746865207a65726f206160448201526564647265737360d01b6064820152608401610618565b6105ce81610cdb565b610aee610c19565b6001600160a01b03811660009081526010602052604090208054610b4d5760405162461bcd60e51b81526020600482015260166024820152751c99599d5b990e881a5b9d985b1a5908185b5bdd5b9d60521b6044820152606401610618565b600081600401548260020154610b639190611082565b1115610b9657610b96333083600401548460020154610b829190611082565b6001546001600160a01b0316929190610d2b565b8054600254610bb2916001600160a01b03909116903390610c73565b8054600d8054600090610bc69084906110d9565b9091555050600080825560018201819055600282018190556003820181905560049091015550565b6000610bfa82846110d9565b9392505050565b6000610bfa828461109a565b6000610bfa82846110ba565b6000546001600160a01b031633146107b45760405162461bcd60e51b815260206004820181905260248201527f4f776e61626c653a2063616c6c6572206973206e6f7420746865206f776e65726044820152606401610618565b6040516001600160a01b038316602482015260448101829052610cd690849063a9059cbb60e01b906064015b60408051601f198184030181529190526020810180516001600160e01b03166001600160e01b031990931692909217909152610d69565b505050565b600080546001600160a01b038381166001600160a01b0319831681178455604051919092169283917f8be0079c531659141344cd1fd0a4f28419497f9722a3daafe3b4186f6b6457e09190a35050565b6040516001600160a01b0380851660248301528316604482015260648101829052610d639085906323b872dd60e01b90608401610c9f565b50505050565b6000610dbe826040518060400160405280602081526020017f5361666545524332303a206c6f772d6c6576656c2063616c6c206661696c6564815250856001600160a01b0316610e3b9092919063ffffffff16565b805190915015610cd65780806020019051810190610ddc9190610fe3565b610cd65760405162461bcd60e51b815260206004820152602a60248201527f5361666545524332303a204552433230206f7065726174696f6e20646964206e6044820152691bdd081cdd58d8d9595960b21b6064820152608401610618565b6060610e4a8484600085610e52565b949350505050565b606082471015610eb35760405162461bcd60e51b815260206004820152602660248201527f416464726573733a20696e73756666696369656e742062616c616e636520666f6044820152651c8818d85b1b60d21b6064820152608401610618565b6001600160a01b0385163b610f0a5760405162461bcd60e51b815260206004820152601d60248201527f416464726573733a2063616c6c20746f206e6f6e2d636f6e74726163740000006044820152606401610618565b600080866001600160a01b03168587604051610f269190611033565b60006040518083038185875af1925050503d8060008114610f63576040519150601f19603f3d011682016040523d82523d6000602084013e610f68565b606091505b5091509150610f78828286610f83565b979650505050505050565b60608315610f92575081610bfa565b825115610fa25782518084602001fd5b8160405162461bcd60e51b8152600401610618919061104f565b600060208284031215610fcd578081fd5b81356001600160a01b0381168114610bfa578182fd5b600060208284031215610ff4578081fd5b81518015158114610bfa578182fd5b600060208284031215611014578081fd5b5035919050565b60006020828403121561102c578081fd5b5051919050565b600082516110458184602087016110f0565b9190910192915050565b602081526000825180602084015261106e8160408501602087016110f0565b601f01601f19169190910160400192915050565b600082198211156110955761109561111c565b500190565b6000826110b557634e487b7160e01b81526012600452602481fd5b500490565b60008160001904831182151516156110d4576110d461111c565b500290565b6000828210156110eb576110eb61111c565b500390565b60005b8381101561110b5781810151838201526020016110f3565b83811115610d635750506000910152565b634e487b7160e01b600052601160045260246000fdfea264697066735822122028e18c9839ca35d57c6115b3c11538858f7ad6253f7c2ba4733624e4a0f3ba4d64736f6c63430008040033",
  "linkReferences": {},
  "deployedLinkReferences": {}
}