{
  "_format": "hh-sol-artifact-1",
  "contractName": "IDO",
  "sourceName": "contracts/IDO.sol",
  "abi": [
    {
      "inputs": [
        {
          "internalType": "address",
          "name": "_token",
          "type": "address"
        },
        {
          "internalType": "address",
          "name": "_busd",
          "type": "address"
        },
        {
          "internalType": "address",
          "name": "_dev",
          "type": "address"
        },
        {
          "internalType": "uint256",
          "name": "_startBuyTime",
          "type": "uint256"
        },
        {
          "internalType": "uint256",
          "name": "_endBuyTime",
          "type": "uint256"
        },
        {
          "internalType": "uint256",
          "name": "_claimTime",
          "type": "uint256"
        },
        {
          "internalType": "uint256",
          "name": "_cliffTime",
          "type": "uint256"
        }
      ],
      "stateMutability": "nonpayable",
      "type": "constructor"
    },
    {
      "anonymous": false,
      "inputs": [
        {
          "indexed": false,
          "internalType": "address",
          "name": "buyer",
          "type": "address"
        },
        {
          "indexed": false,
          "internalType": "uint256",
          "name": "amount",
          "type": "uint256"
        },
        {
          "indexed": false,
          "internalType": "uint256",
          "name": "timestamp",
          "type": "uint256"
        }
      ],
      "name": "Buy",
      "type": "event"
    },
    {
      "anonymous": false,
      "inputs": [
        {
          "indexed": false,
          "internalType": "address",
          "name": "caller",
          "type": "address"
        },
        {
          "indexed": false,
          "internalType": "uint256",
          "name": "amount",
          "type": "uint256"
        },
        {
          "indexed": false,
          "internalType": "uint256",
          "name": "timestamp",
          "type": "uint256"
        }
      ],
      "name": "Claim",
      "type": "event"
    },
    {
      "anonymous": false,
      "inputs": [
        {
          "indexed": true,
          "internalType": "address",
          "name": "previousOwner",
          "type": "address"
        },
        {
          "indexed": true,
          "internalType": "address",
          "name": "newOwner",
          "type": "address"
        }
      ],
      "name": "OwnershipTransferred",
      "type": "event"
    },
    {
      "inputs": [],
      "name": "VESTING_DURATION",
      "outputs": [
        {
          "internalType": "uint256",
          "name": "",
          "type": "uint256"
        }
      ],
      "stateMutability": "view",
      "type": "function"
    },
    {
      "inputs": [],
      "name": "VESTING_WINDOW",
      "outputs": [
        {
          "internalType": "uint256",
          "name": "",
          "type": "uint256"
        }
      ],
      "stateMutability": "view",
      "type": "function"
    },
    {
      "inputs": [],
      "name": "busd",
      "outputs": [
        {
          "internalType": "contract IERC20",
          "name": "",
          "type": "address"
        }
      ],
      "stateMutability": "view",
      "type": "function"
    },
    {
      "inputs": [
        {
          "internalType": "uint256",
          "name": "buyAmount",
          "type": "uint256"
        },
        {
          "internalType": "address",
          "name": "ref",
          "type": "address"
        }
      ],
      "name": "buy",
      "outputs": [],
      "stateMutability": "nonpayable",
      "type": "function"
    },
    {
      "inputs": [],
      "name": "claim",
      "outputs": [],
      "stateMutability": "nonpayable",
      "type": "function"
    },
    {
      "inputs": [],
      "name": "claimTime",
      "outputs": [
        {
          "internalType": "uint256",
          "name": "",
          "type": "uint256"
        }
      ],
      "stateMutability": "view",
      "type": "function"
    },
    {
      "inputs": [],
      "name": "cliffTime",
      "outputs": [
        {
          "internalType": "uint256",
          "name": "",
          "type": "uint256"
        }
      ],
      "stateMutability": "view",
      "type": "function"
    },
    {
      "inputs": [],
      "name": "currentSale",
      "outputs": [
        {
          "internalType": "uint256",
          "name": "",
          "type": "uint256"
        }
      ],
      "stateMutability": "view",
      "type": "function"
    },
    {
      "inputs": [],
      "name": "dailyVestingPercent",
      "outputs": [
        {
          "internalType": "uint256",
          "name": "",
          "type": "uint256"
        }
      ],
      "stateMutability": "view",
      "type": "function"
    },
    {
      "inputs": [],
      "name": "dev",
      "outputs": [
        {
          "internalType": "address",
          "name": "",
          "type": "address"
        }
      ],
      "stateMutability": "view",
      "type": "function"
    },
    {
      "inputs": [],
      "name": "endBuyTime",
      "outputs": [
        {
          "internalType": "uint256",
          "name": "",
          "type": "uint256"
        }
      ],
      "stateMutability": "view",
      "type": "function"
    },
    {
      "inputs": [],
      "name": "getRefs",
      "outputs": [
        {
          "internalType": "address[]",
          "name": "",
          "type": "address[]"
        }
      ],
      "stateMutability": "view",
      "type": "function"
    },
    {
      "inputs": [],
      "name": "getVestingAmount",
      "outputs": [
        {
          "internalType": "uint256",
          "name": "",
          "type": "uint256"
        }
      ],
      "stateMutability": "view",
      "type": "function"
    },
    {
      "inputs": [],
      "name": "initVestingPercent",
      "outputs": [
        {
          "internalType": "uint256",
          "name": "",
          "type": "uint256"
        }
      ],
      "stateMutability": "view",
      "type": "function"
    },
    {
      "inputs": [],
      "name": "ipoPrice",
      "outputs": [
        {
          "internalType": "uint256",
          "name": "",
          "type": "uint256"
        }
      ],
      "stateMutability": "view",
      "type": "function"
    },
    {
      "inputs": [],
      "name": "maxBuyAmount",
      "outputs": [
        {
          "internalType": "uint256",
          "name": "",
          "type": "uint256"
        }
      ],
      "stateMutability": "view",
      "type": "function"
    },
    {
      "inputs": [],
      "name": "minBuyAmount",
      "outputs": [
        {
          "internalType": "uint256",
          "name": "",
          "type": "uint256"
        }
      ],
      "stateMutability": "view",
      "type": "function"
    },
    {
      "inputs": [],
      "name": "owner",
      "outputs": [
        {
          "internalType": "address",
          "name": "",
          "type": "address"
        }
      ],
      "stateMutability": "view",
      "type": "function"
    },
    {
      "inputs": [],
      "name": "progress",
      "outputs": [
        {
          "internalType": "uint256",
          "name": "",
          "type": "uint256"
        }
      ],
      "stateMutability": "view",
      "type": "function"
    },
    {
      "inputs": [
        {
          "internalType": "address",
          "name": "",
          "type": "address"
        }
      ],
      "name": "refCount",
      "outputs": [
        {
          "internalType": "uint256",
          "name": "",
          "type": "uint256"
        }
      ],
      "stateMutability": "view",
      "type": "function"
    },
    {
      "inputs": [
        {
          "internalType": "uint256",
          "name": "",
          "type": "uint256"
        }
      ],
      "name": "refs",
      "outputs": [
        {
          "internalType": "address",
          "name": "",
          "type": "address"
        }
      ],
      "stateMutability": "view",
      "type": "function"
    },
    {
      "inputs": [
        {
          "internalType": "address",
          "name": "_user",
          "type": "address"
        }
      ],
      "name": "refund",
      "outputs": [],
      "stateMutability": "nonpayable",
      "type": "function"
    },
    {
      "inputs": [],
      "name": "renounceOwnership",
      "outputs": [],
      "stateMutability": "nonpayable",
      "type": "function"
    },
    {
      "inputs": [],
      "name": "revokeBusd",
      "outputs": [],
      "stateMutability": "nonpayable",
      "type": "function"
    },
    {
      "inputs": [],
      "name": "revokeToken",
      "outputs": [],
      "stateMutability": "nonpayable",
      "type": "function"
    },
    {
      "inputs": [],
      "name": "startBuyTime",
      "outputs": [
        {
          "internalType": "uint256",
          "name": "",
          "type": "uint256"
        }
      ],
      "stateMutability": "view",
      "type": "function"
    },
    {
      "inputs": [],
      "name": "token",
      "outputs": [
        {
          "internalType": "contract IERC20",
          "name": "",
          "type": "address"
        }
      ],
      "stateMutability": "view",
      "type": "function"
    },
    {
      "inputs": [],
      "name": "totalSale",
      "outputs": [
        {
          "internalType": "uint256",
          "name": "",
          "type": "uint256"
        }
      ],
      "stateMutability": "view",
      "type": "function"
    },
    {
      "inputs": [
        {
          "internalType": "address",
          "name": "newOwner",
          "type": "address"
        }
      ],
      "name": "transferOwnership",
      "outputs": [],
      "stateMutability": "nonpayable",
      "type": "function"
    },
    {
      "inputs": [
        {
          "internalType": "address",
          "name": "",
          "type": "address"
        }
      ],
      "name": "userByAddress",
      "outputs": [
        {
          "internalType": "uint256",
          "name": "buyAmount",
          "type": "uint256"
        },
        {
          "internalType": "uint256",
          "name": "initVestingAmount",
          "type": "uint256"
        },
        {
          "internalType": "uint256",
          "name": "initVestingDebt",
          "type": "uint256"
        },
        {
          "internalType": "uint256",
          "name": "dailyVestingAmount",
          "type": "uint256"
        },
        {
          "internalType": "uint256",
          "name": "dailyVestingDebt",
          "type": "uint256"
        }
      ],
      "stateMutability": "view",
      "type": "function"
    }
  ],
  "bytecode": "0x60c06040526037600a5566470de4df820000600b5562015180608052605a60a0526603f28cb71571c8600c55693f870857a3e0e3800000600d556000600e55683635c9adc5dea00000600f5568056bc75e2d631000006010553480156200006557600080fd5b506040516200161a3803806200161a8339810160408190526200008891620001a0565b620000933362000133565b600180546001600160a01b03808a166001600160a01b031992831617909255600280548984169083161790556003805492881692909116919091179055600684905560078390556008829055600981905580821115620001265760405162461bcd60e51b815260206004820152600a60248201526934b734ba1032b93937b960b11b604482015260640160405180910390fd5b5050505050505062000210565b600080546001600160a01b038381166001600160a01b0319831681178455604051919092169283917f8be0079c531659141344cd1fd0a4f28419497f9722a3daafe3b4186f6b6457e09190a35050565b80516001600160a01b03811681146200019b57600080fd5b919050565b600080600080600080600060e0888a031215620001bb578283fd5b620001c68862000183565b9650620001d66020890162000183565b9550620001e66040890162000183565b9450606088015193506080880151925060a0880151915060c0880151905092959891949750929550565b60805160a0516113c862000252600039600081816102580152818161049e015281816104cb01526104ef0152600081816102e3015261046001526113c86000f3fe608060405234801561001057600080fd5b50600436106101da5760003560e01c806388e765ff11610104578063d00d1012116100a2578063f2fde38b11610071578063f2fde38b146103db578063f66bf229146103ee578063fa89401a146103f7578063fc0c546a1461040a57600080fd5b8063d00d1012146103a0578063ea4ce239146103a9578063ec8f95fc146103b2578063f01d226f146103d257600080fd5b806391cca3db116100de57806391cca3db14610316578063989e5ea914610329578063a05d03fd1461038e578063aa6826821461039757600080fd5b806388e765ff146102d557806389a1420f146102de5780638da5cb5b1461030557600080fd5b80634cfc4d301161017c578063584e59571161014b578063584e595714610292578063715018a6146102a75780637deb6025146102af578063845af085146102c257600080fd5b80634cfc4d30146102535780634e71d92d1461027a5780635597bc4114610282578063577bd3361461028a57600080fd5b806327b3bf11116101b857806327b3bf111461020d5780633ca5b234146102165780633f57faa914610241578063463394931461024957600080fd5b806308e695ad146101df5780630f1a6444146101fb578063247d867f14610204575b600080fd5b6101e8600b5481565b6040519081526020015b60405180910390f35b6101e860095481565b6101e8600a5481565b6101e860085481565b600254610229906001600160a01b031681565b6040516001600160a01b0390911681526020016101f2565b6101e861041d565b610251610585565b005b6101e87f000000000000000000000000000000000000000000000000000000000000000081565b610251610626565b61025161072a565b6101e86107c8565b61029a6107f7565b6040516101f29190611262565b610251610859565b6102516102bd36600461121b565b61086d565b6102296102d03660046111eb565b610c1f565b6101e8600f5481565b6101e87f000000000000000000000000000000000000000000000000000000000000000081565b6000546001600160a01b0316610229565b600354610229906001600160a01b031681565b6103666103373660046111b1565b601160205260009081526040902080546001820154600283015460038401546004909401549293919290919085565b604080519586526020860194909452928401919091526060830152608082015260a0016101f2565b6101e8600e5481565b6101e860065481565b6101e8600c5481565b6101e8600d5481565b6101e86103c03660046111b1565b60056020526000908152604090205481565b6101e860075481565b6102516103e93660046111b1565b610c49565b6101e860105481565b6102516104053660046111b1565b610cbf565b600154610229906001600160a01b031681565b3360009081526011602052604081206008548290421061044e578160020154826001015461044b9190611339565b90505b6000600954421061057357600061049a7f000000000000000000000000000000000000000000000000000000000000000061049460065442610dc790919063ffffffff16565b90610dda565b90507f000000000000000000000000000000000000000000000000000000000000000081116104c957806104eb565b7f00000000000000000000000000000000000000000000000000000000000000005b90507f000000000000000000000000000000000000000000000000000000000000000081141561053057836004015484600301546105299190611339565b9150610571565b83600401546105648261055e67016345785d8a0000610494600c548a60030154610de690919063ffffffff16565b90610de6565b61056e9190611339565b91505b505b61057d81836112e2565b935050505090565b61058d610df2565b6001546040516370a0823160e01b81523060048201526000916001600160a01b0316906370a082319060240160206040518083038186803b1580156105d157600080fd5b505afa1580156105e5573d6000803e3d6000fd5b505050506040513d601f19601f820116820180604052508101906106099190611203565b600154909150610623906001600160a01b03163383610e4c565b50565b600061063061041d565b9050600081116106765760405162461bcd60e51b815260206004820152600c60248201526b31b630b4b69d1032b93937b960a11b60448201526064015b60405180910390fd5b60015461068d906001600160a01b03163383610e4c565b336000908152601160205260408120600481018054919284926106b19084906112e2565b909155505060028101546106e75780600101548160040160008282546106d79190611339565b9091555050600181015460028201555b6040805133815260208101849052428183015290517f34fcbac0073d7c3d388e51312faf357774904998eeb8fca628b9e6f65ee1cbf79181900360600190a15050565b610732610df2565b6002546040516370a0823160e01b81523060048201526000916001600160a01b0316906370a082319060240160206040518083038186803b15801561077657600080fd5b505afa15801561078a573d6000803e3d6000fd5b505050506040513d601f19601f820116820180604052508101906107ae9190611203565b600254909150610623906001600160a01b03163383610e4c565b60006107f2606461055e600d54610494670de0b6b3a7640000600e54610de690919063ffffffff16565b905090565b6060600480548060200260200160405190810160405280929190818152602001828054801561084f57602002820191906000526020600020905b81546001600160a01b03168152600190910190602001808311610831575b5050505050905090565b610861610df2565b61086b6000610eb4565b565b6006544210156108af5760405162461bcd60e51b815260206004820152600d60248201526c313abc9d103737ba1037b832b760991b604482015260640161066d565b6007544211156108f95760405162461bcd60e51b8152602060048201526015602482015274189d5e4e88189d5e481d1a5b5948195e1c1a5c9959605a1b604482015260640161066d565b601054821015801561090d5750600f548211155b61094f5760405162461bcd60e51b8152602060048201526013602482015272189d5e4e881a5b9d985b1a5908185b5bdd5b9d606a1b604482015260640161066d565b600d5482600e5461096091906112e2565b11156109ae5760405162461bcd60e51b815260206004820152601760248201527f6275793a206578636565647320746f74616c2073616c65000000000000000000604482015260640161066d565b336001600160a01b0382161415610a075760405162461bcd60e51b815260206004820152601d60248201527f6275793a20796f752063616e206e6f742072656620796f757273656c66000000604482015260640161066d565b336000908152601160205260409020600f548154610a269085906112e2565b1115610a745760405162461bcd60e51b815260206004820152601760248201527f6275793a206d617820616d6f756e742065786365656473000000000000000000604482015260640161066d565b6001600160a01b038216600090815260056020526040902054610add57600480546001810182556000919091527f8a35acfbc15ff81a39ae7d344fd709f28e8600b4aa8c65c6b64bfe7fe36bd19b0180546001600160a01b0319166001600160a01b0384161790555b8054610b12576001600160a01b0382166000908152600560205260408120805460019290610b0c9084906112e2565b90915550505b600354600254610b31916001600160a01b039182169133911686610f04565b82600e6000828254610b4391906112e2565b9091555050805483908290600090610b5c9084906112e2565b9091555050600b54600090610b7d9061049486670de0b6b3a7640000610de6565b90506000610b9b6064610494600a5485610de690919063ffffffff16565b905080836001016000828254610bb191906112e2565b90915550610bc190508282610dc7565b836003016000828254610bd491906112e2565b90915550506040805133815260208101879052428183015290517f1cbc5ab135991bd2b6a4b034a04aa2aa086dac1371cb9b16b8b5e2ed6b036bed9181900360600190a15050505050565b60048181548110610c2f57600080fd5b6000918252602090912001546001600160a01b0316905081565b610c51610df2565b6001600160a01b038116610cb65760405162461bcd60e51b815260206004820152602660248201527f4f776e61626c653a206e6577206f776e657220697320746865207a65726f206160448201526564647265737360d01b606482015260840161066d565b61062381610eb4565b610cc7610df2565b6001600160a01b03811660009081526011602052604090208054610d265760405162461bcd60e51b81526020600482015260166024820152751c99599d5b990e881a5b9d985b1a5908185b5bdd5b9d60521b604482015260640161066d565b600081600401548260020154610d3c91906112e2565b1115610d6f57610d6f333083600401548460020154610d5b91906112e2565b6001546001600160a01b0316929190610f04565b8054600254610d8b916001600160a01b03909116903390610e4c565b8054600e8054600090610d9f908490611339565b9091555050600080825560018201819055600282018190556003820181905560049091015550565b6000610dd38284611339565b9392505050565b6000610dd382846112fa565b6000610dd3828461131a565b6000546001600160a01b0316331461086b5760405162461bcd60e51b815260206004820181905260248201527f4f776e61626c653a2063616c6c6572206973206e6f7420746865206f776e6572604482015260640161066d565b6040516001600160a01b038316602482015260448101829052610eaf90849063a9059cbb60e01b906064015b60408051601f198184030181529190526020810180516001600160e01b03166001600160e01b031990931692909217909152610f42565b505050565b600080546001600160a01b038381166001600160a01b0319831681178455604051919092169283917f8be0079c531659141344cd1fd0a4f28419497f9722a3daafe3b4186f6b6457e09190a35050565b6040516001600160a01b0380851660248301528316604482015260648101829052610f3c9085906323b872dd60e01b90608401610e78565b50505050565b6000610f97826040518060400160405280602081526020017f5361666545524332303a206c6f772d6c6576656c2063616c6c206661696c6564815250856001600160a01b03166110149092919063ffffffff16565b805190915015610eaf5780806020019051810190610fb591906111cb565b610eaf5760405162461bcd60e51b815260206004820152602a60248201527f5361666545524332303a204552433230206f7065726174696f6e20646964206e6044820152691bdd081cdd58d8d9595960b21b606482015260840161066d565b6060611023848460008561102b565b949350505050565b60608247101561108c5760405162461bcd60e51b815260206004820152602660248201527f416464726573733a20696e73756666696369656e742062616c616e636520666f6044820152651c8818d85b1b60d21b606482015260840161066d565b6001600160a01b0385163b6110e35760405162461bcd60e51b815260206004820152601d60248201527f416464726573733a2063616c6c20746f206e6f6e2d636f6e7472616374000000604482015260640161066d565b600080866001600160a01b031685876040516110ff9190611246565b60006040518083038185875af1925050503d806000811461113c576040519150601f19603f3d011682016040523d82523d6000602084013e611141565b606091505b509150915061115182828661115c565b979650505050505050565b6060831561116b575081610dd3565b82511561117b5782518084602001fd5b8160405162461bcd60e51b815260040161066d91906112af565b80356001600160a01b03811681146111ac57600080fd5b919050565b6000602082840312156111c2578081fd5b610dd382611195565b6000602082840312156111dc578081fd5b81518015158114610dd3578182fd5b6000602082840312156111fc578081fd5b5035919050565b600060208284031215611214578081fd5b5051919050565b6000806040838503121561122d578081fd5b8235915061123d60208401611195565b90509250929050565b60008251611258818460208701611350565b9190910192915050565b6020808252825182820181905260009190848201906040850190845b818110156112a35783516001600160a01b03168352928401929184019160010161127e565b50909695505050505050565b60208152600082518060208401526112ce816040850160208701611350565b601f01601f19169190910160400192915050565b600082198211156112f5576112f561137c565b500190565b60008261131557634e487b7160e01b81526012600452602481fd5b500490565b60008160001904831182151516156113345761133461137c565b500290565b60008282101561134b5761134b61137c565b500390565b60005b8381101561136b578181015183820152602001611353565b83811115610f3c5750506000910152565b634e487b7160e01b600052601160045260246000fdfea2646970667358221220f88e3ac6b45ea9587929ab16d8e8aef0248e728382cc1b8b168aa4a7afb90df864736f6c63430008040033",
  "linkReferences": {},
  "deployedLinkReferences": {}
}