{
  "_format": "hh-sol-artifact-1",
  "contractName": "Marketplace",
  "sourceName": "contracts/Marketplace.sol",
  "abi": [
    {
      "inputs": [
        {
          "internalType": "address payable",
          "name": "_feeRecipient",
          "type": "address"
        },
        {
          "internalType": "uint16",
          "name": "_platformFee",
          "type": "uint16"
        }
      ],
      "stateMutability": "nonpayable",
      "type": "constructor"
    },
    {
      "anonymous": false,
      "inputs": [
        {
          "indexed": true,
          "internalType": "address",
          "name": "owner",
          "type": "address"
        },
        {
          "indexed": true,
          "internalType": "address",
          "name": "nft",
          "type": "address"
        },
        {
          "indexed": false,
          "internalType": "uint256",
          "name": "tokenId",
          "type": "uint256"
        }
      ],
      "name": "ItemCanceled",
      "type": "event"
    },
    {
      "anonymous": false,
      "inputs": [
        {
          "indexed": true,
          "internalType": "address",
          "name": "owner",
          "type": "address"
        },
        {
          "indexed": true,
          "internalType": "address",
          "name": "nft",
          "type": "address"
        },
        {
          "indexed": false,
          "internalType": "uint256",
          "name": "tokenId",
          "type": "uint256"
        },
        {
          "indexed": false,
          "internalType": "uint256",
          "name": "quantity",
          "type": "uint256"
        },
        {
          "indexed": false,
          "internalType": "address",
          "name": "payToken",
          "type": "address"
        },
        {
          "indexed": false,
          "internalType": "uint256",
          "name": "pricePerItem",
          "type": "uint256"
        },
        {
          "indexed": false,
          "internalType": "uint256",
          "name": "startingTime",
          "type": "uint256"
        }
      ],
      "name": "ItemListed",
      "type": "event"
    },
    {
      "anonymous": false,
      "inputs": [
        {
          "indexed": true,
          "internalType": "address",
          "name": "seller",
          "type": "address"
        },
        {
          "indexed": true,
          "internalType": "address",
          "name": "buyer",
          "type": "address"
        },
        {
          "indexed": true,
          "internalType": "address",
          "name": "nft",
          "type": "address"
        },
        {
          "indexed": false,
          "internalType": "uint256",
          "name": "tokenId",
          "type": "uint256"
        },
        {
          "indexed": false,
          "internalType": "uint256",
          "name": "quantity",
          "type": "uint256"
        },
        {
          "indexed": false,
          "internalType": "address",
          "name": "payToken",
          "type": "address"
        },
        {
          "indexed": false,
          "internalType": "int256",
          "name": "unitPrice",
          "type": "int256"
        },
        {
          "indexed": false,
          "internalType": "uint256",
          "name": "pricePerItem",
          "type": "uint256"
        }
      ],
      "name": "ItemSold",
      "type": "event"
    },
    {
      "anonymous": false,
      "inputs": [
        {
          "indexed": true,
          "internalType": "address",
          "name": "owner",
          "type": "address"
        },
        {
          "indexed": true,
          "internalType": "address",
          "name": "nft",
          "type": "address"
        },
        {
          "indexed": false,
          "internalType": "uint256",
          "name": "tokenId",
          "type": "uint256"
        },
        {
          "indexed": false,
          "internalType": "address",
          "name": "payToken",
          "type": "address"
        },
        {
          "indexed": false,
          "internalType": "uint256",
          "name": "newPrice",
          "type": "uint256"
        }
      ],
      "name": "ItemUpdated",
      "type": "event"
    },
    {
      "anonymous": false,
      "inputs": [
        {
          "indexed": true,
          "internalType": "address",
          "name": "creator",
          "type": "address"
        },
        {
          "indexed": true,
          "internalType": "address",
          "name": "nft",
          "type": "address"
        },
        {
          "indexed": false,
          "internalType": "uint256",
          "name": "tokenId",
          "type": "uint256"
        }
      ],
      "name": "OfferCanceled",
      "type": "event"
    },
    {
      "anonymous": false,
      "inputs": [
        {
          "indexed": true,
          "internalType": "address",
          "name": "creator",
          "type": "address"
        },
        {
          "indexed": true,
          "internalType": "address",
          "name": "nft",
          "type": "address"
        },
        {
          "indexed": false,
          "internalType": "uint256",
          "name": "tokenId",
          "type": "uint256"
        },
        {
          "indexed": false,
          "internalType": "uint256",
          "name": "quantity",
          "type": "uint256"
        },
        {
          "indexed": false,
          "internalType": "address",
          "name": "payToken",
          "type": "address"
        },
        {
          "indexed": false,
          "internalType": "uint256",
          "name": "pricePerItem",
          "type": "uint256"
        },
        {
          "indexed": false,
          "internalType": "uint256",
          "name": "deadline",
          "type": "uint256"
        }
      ],
      "name": "OfferCreated",
      "type": "event"
    },
    {
      "anonymous": false,
      "inputs": [
        {
          "indexed": true,
          "internalType": "address",
          "name": "previousOwner",
          "type": "address"
        },
        {
          "indexed": true,
          "internalType": "address",
          "name": "newOwner",
          "type": "address"
        }
      ],
      "name": "OwnershipTransferred",
      "type": "event"
    },
    {
      "anonymous": false,
      "inputs": [
        {
          "indexed": false,
          "internalType": "uint16",
          "name": "platformFee",
          "type": "uint16"
        }
      ],
      "name": "UpdatePlatformFee",
      "type": "event"
    },
    {
      "anonymous": false,
      "inputs": [
        {
          "indexed": false,
          "internalType": "address payable",
          "name": "platformFeeRecipient",
          "type": "address"
        }
      ],
      "name": "UpdatePlatformFeeRecipient",
      "type": "event"
    },
    {
      "inputs": [
        {
          "internalType": "address",
          "name": "_nftAddress",
          "type": "address"
        },
        {
          "internalType": "uint256",
          "name": "_tokenId",
          "type": "uint256"
        },
        {
          "internalType": "address",
          "name": "_creator",
          "type": "address"
        }
      ],
      "name": "acceptOffer",
      "outputs": [],
      "stateMutability": "nonpayable",
      "type": "function"
    },
    {
      "inputs": [],
      "name": "addressRegistry",
      "outputs": [
        {
          "internalType": "contract IFantomAddressRegistry",
          "name": "",
          "type": "address"
        }
      ],
      "stateMutability": "view",
      "type": "function"
    },
    {
      "inputs": [
        {
          "internalType": "address",
          "name": "_nftAddress",
          "type": "address"
        },
        {
          "internalType": "uint256",
          "name": "_tokenId",
          "type": "uint256"
        },
        {
          "internalType": "address",
          "name": "_payToken",
          "type": "address"
        },
        {
          "internalType": "address",
          "name": "_owner",
          "type": "address"
        }
      ],
      "name": "buyItem",
      "outputs": [],
      "stateMutability": "nonpayable",
      "type": "function"
    },
    {
      "inputs": [
        {
          "internalType": "address",
          "name": "_nftAddress",
          "type": "address"
        },
        {
          "internalType": "uint256",
          "name": "_tokenId",
          "type": "uint256"
        }
      ],
      "name": "cancelListing",
      "outputs": [],
      "stateMutability": "nonpayable",
      "type": "function"
    },
    {
      "inputs": [
        {
          "internalType": "address",
          "name": "_nftAddress",
          "type": "address"
        },
        {
          "internalType": "uint256",
          "name": "_tokenId",
          "type": "uint256"
        }
      ],
      "name": "cancelOffer",
      "outputs": [],
      "stateMutability": "nonpayable",
      "type": "function"
    },
    {
      "inputs": [
        {
          "internalType": "address",
          "name": "",
          "type": "address"
        }
      ],
      "name": "collectionRoyalties",
      "outputs": [
        {
          "internalType": "uint16",
          "name": "royalty",
          "type": "uint16"
        },
        {
          "internalType": "address",
          "name": "creator",
          "type": "address"
        },
        {
          "internalType": "address",
          "name": "feeRecipient",
          "type": "address"
        }
      ],
      "stateMutability": "view",
      "type": "function"
    },
    {
      "inputs": [
        {
          "internalType": "address",
          "name": "_nftAddress",
          "type": "address"
        },
        {
          "internalType": "uint256",
          "name": "_tokenId",
          "type": "uint256"
        },
        {
          "internalType": "contract IERC20",
          "name": "_payToken",
          "type": "address"
        },
        {
          "internalType": "uint256",
          "name": "_quantity",
          "type": "uint256"
        },
        {
          "internalType": "uint256",
          "name": "_pricePerItem",
          "type": "uint256"
        },
        {
          "internalType": "uint256",
          "name": "_deadline",
          "type": "uint256"
        }
      ],
      "name": "createOffer",
      "outputs": [],
      "stateMutability": "nonpayable",
      "type": "function"
    },
    {
      "inputs": [],
      "name": "feeReceipient",
      "outputs": [
        {
          "internalType": "address payable",
          "name": "",
          "type": "address"
        }
      ],
      "stateMutability": "view",
      "type": "function"
    },
    {
      "inputs": [
        {
          "internalType": "address",
          "name": "_payToken",
          "type": "address"
        }
      ],
      "name": "getPrice",
      "outputs": [
        {
          "internalType": "int256",
          "name": "",
          "type": "int256"
        }
      ],
      "stateMutability": "view",
      "type": "function"
    },
    {
      "inputs": [
        {
          "internalType": "address",
          "name": "_nftAddress",
          "type": "address"
        },
        {
          "internalType": "uint256",
          "name": "_tokenId",
          "type": "uint256"
        },
        {
          "internalType": "uint256",
          "name": "_quantity",
          "type": "uint256"
        },
        {
          "internalType": "address",
          "name": "_payToken",
          "type": "address"
        },
        {
          "internalType": "uint256",
          "name": "_pricePerItem",
          "type": "uint256"
        },
        {
          "internalType": "uint256",
          "name": "_startingTime",
          "type": "uint256"
        }
      ],
      "name": "listItem",
      "outputs": [],
      "stateMutability": "nonpayable",
      "type": "function"
    },
    {
      "inputs": [
        {
          "internalType": "address",
          "name": "",
          "type": "address"
        },
        {
          "internalType": "uint256",
          "name": "",
          "type": "uint256"
        },
        {
          "internalType": "address",
          "name": "",
          "type": "address"
        }
      ],
      "name": "listings",
      "outputs": [
        {
          "internalType": "uint256",
          "name": "quantity",
          "type": "uint256"
        },
        {
          "internalType": "address",
          "name": "payToken",
          "type": "address"
        },
        {
          "internalType": "uint256",
          "name": "pricePerItem",
          "type": "uint256"
        },
        {
          "internalType": "uint256",
          "name": "startingTime",
          "type": "uint256"
        }
      ],
      "stateMutability": "view",
      "type": "function"
    },
    {
      "inputs": [
        {
          "internalType": "address",
          "name": "",
          "type": "address"
        },
        {
          "internalType": "uint256",
          "name": "",
          "type": "uint256"
        }
      ],
      "name": "minters",
      "outputs": [
        {
          "internalType": "address",
          "name": "",
          "type": "address"
        }
      ],
      "stateMutability": "view",
      "type": "function"
    },
    {
      "inputs": [
        {
          "internalType": "address",
          "name": "",
          "type": "address"
        },
        {
          "internalType": "uint256",
          "name": "",
          "type": "uint256"
        },
        {
          "internalType": "address",
          "name": "",
          "type": "address"
        }
      ],
      "name": "offers",
      "outputs": [
        {
          "internalType": "contract IERC20",
          "name": "payToken",
          "type": "address"
        },
        {
          "internalType": "uint256",
          "name": "quantity",
          "type": "uint256"
        },
        {
          "internalType": "uint256",
          "name": "pricePerItem",
          "type": "uint256"
        },
        {
          "internalType": "uint256",
          "name": "deadline",
          "type": "uint256"
        }
      ],
      "stateMutability": "view",
      "type": "function"
    },
    {
      "inputs": [],
      "name": "owner",
      "outputs": [
        {
          "internalType": "address",
          "name": "",
          "type": "address"
        }
      ],
      "stateMutability": "view",
      "type": "function"
    },
    {
      "inputs": [],
      "name": "platformFee",
      "outputs": [
        {
          "internalType": "uint16",
          "name": "",
          "type": "uint16"
        }
      ],
      "stateMutability": "view",
      "type": "function"
    },
    {
      "inputs": [
        {
          "internalType": "address",
          "name": "_nftAddress",
          "type": "address"
        },
        {
          "internalType": "address",
          "name": "_creator",
          "type": "address"
        },
        {
          "internalType": "uint16",
          "name": "_royalty",
          "type": "uint16"
        },
        {
          "internalType": "address",
          "name": "_feeRecipient",
          "type": "address"
        }
      ],
      "name": "registerCollectionRoyalty",
      "outputs": [],
      "stateMutability": "nonpayable",
      "type": "function"
    },
    {
      "inputs": [
        {
          "internalType": "address",
          "name": "_nftAddress",
          "type": "address"
        },
        {
          "internalType": "uint256",
          "name": "_tokenId",
          "type": "uint256"
        },
        {
          "internalType": "uint16",
          "name": "_royalty",
          "type": "uint16"
        }
      ],
      "name": "registerRoyalty",
      "outputs": [],
      "stateMutability": "nonpayable",
      "type": "function"
    },
    {
      "inputs": [],
      "name": "renounceOwnership",
      "outputs": [],
      "stateMutability": "nonpayable",
      "type": "function"
    },
    {
      "inputs": [
        {
          "internalType": "address",
          "name": "",
          "type": "address"
        },
        {
          "internalType": "uint256",
          "name": "",
          "type": "uint256"
        }
      ],
      "name": "royalties",
      "outputs": [
        {
          "internalType": "uint16",
          "name": "",
          "type": "uint16"
        }
      ],
      "stateMutability": "view",
      "type": "function"
    },
    {
      "inputs": [
        {
          "internalType": "address",
          "name": "newOwner",
          "type": "address"
        }
      ],
      "name": "transferOwnership",
      "outputs": [],
      "stateMutability": "nonpayable",
      "type": "function"
    },
    {
      "inputs": [
        {
          "internalType": "address",
          "name": "_registry",
          "type": "address"
        }
      ],
      "name": "updateAddressRegistry",
      "outputs": [],
      "stateMutability": "nonpayable",
      "type": "function"
    },
    {
      "inputs": [
        {
          "internalType": "address",
          "name": "_nftAddress",
          "type": "address"
        },
        {
          "internalType": "uint256",
          "name": "_tokenId",
          "type": "uint256"
        },
        {
          "internalType": "address",
          "name": "_payToken",
          "type": "address"
        },
        {
          "internalType": "uint256",
          "name": "_newPrice",
          "type": "uint256"
        }
      ],
      "name": "updateListing",
      "outputs": [],
      "stateMutability": "nonpayable",
      "type": "function"
    },
    {
      "inputs": [
        {
          "internalType": "uint16",
          "name": "_platformFee",
          "type": "uint16"
        }
      ],
      "name": "updatePlatformFee",
      "outputs": [],
      "stateMutability": "nonpayable",
      "type": "function"
    },
    {
      "inputs": [
        {
          "internalType": "address payable",
          "name": "_platformFeeRecipient",
          "type": "address"
        }
      ],
      "name": "updatePlatformFeeRecipient",
      "outputs": [],
      "stateMutability": "nonpayable",
      "type": "function"
    },
    {
      "inputs": [
        {
          "internalType": "address",
          "name": "_nftAddress",
          "type": "address"
        },
        {
          "internalType": "uint256",
          "name": "_tokenId",
          "type": "uint256"
        },
        {
          "internalType": "address",
          "name": "_seller",
          "type": "address"
        },
        {
          "internalType": "address",
          "name": "_buyer",
          "type": "address"
        }
      ],
      "name": "validateItemSold",
      "outputs": [],
      "stateMutability": "nonpayable",
      "type": "function"
    }
  ],
  "bytecode": "0x60806040523480156200001157600080fd5b5060405162003f7938038062003f798339810160408190526200003491620000c9565b6200003f3362000079565b60018055600680546001600160a01b0390931662010000026001600160b01b031990931661ffff9092169190911791909117905562000116565b600080546001600160a01b038381166001600160a01b0319831681178455604051919092169283917f8be0079c531659141344cd1fd0a4f28419497f9722a3daafe3b4186f6b6457e09190a35050565b60008060408385031215620000dc578182fd5b82516001600160a01b0381168114620000f3578283fd5b602084015190925061ffff811681146200010b578182fd5b809150509250929050565b613e5380620001266000396000f3fe608060405234801561001057600080fd5b50600436106101735760003560e01c806385f9d345116100de578063e1e549c411610097578063f2fde38b11610071578063f2fde38b1461049b578063f3880b6e146104ae578063f3ad65f4146104c1578063f5fe7f71146104d457600080fd5b8063e1e549c414610446578063e940ebeb14610475578063e984f2eb1461048857600080fd5b806385f9d3451461036f5780638da5cb5b14610382578063afb0695214610393578063b2ddee06146103a6578063c1661a9a146103b9578063d3f494cc146103cc57600080fd5b806342cbb4b81161013057806342cbb4b81461022b57806357b275b41461023e57806368e79e89146102a85780636bd3a64b146102bb578063715018a61461033357806378746d0d1461033b57600080fd5b8063058a56ac1461017857806326232a2e1461018d5780633740ebb3146101b35780633bbb2806146101e45780633fc1cc26146101f757806341976e091461020a575b600080fd5b61018b610186366004613747565b6104e7565b005b60065461019b9061ffff1681565b60405161ffff90911681526020015b60405180910390f35b6006546101cc906201000090046001600160a01b031681565b6040516001600160a01b0390911681526020016101aa565b61018b6101f2366004613772565b610633565b61018b6102053660046138c9565b610d23565b61021d6102183660046136b6565b611238565b6040519081526020016101aa565b61018b610239366004613831565b6114b1565b61027e61024c3660046136b6565b6007602052600090815260409020805460019091015461ffff8216916001600160a01b03620100009091048116911683565b6040805161ffff90941684526001600160a01b0392831660208501529116908201526060016101aa565b61018b6102b63660046136b6565b611910565b61030b6102c9366004613772565b6004602090815260009384526040808520825292845282842090528252902080546001820154600283015460039093015491926001600160a01b039091169184565b604080519485526001600160a01b0390931660208501529183015260608201526080016101aa565b61018b61193a565b6101cc610349366004613747565b60026020908152600092835260408084209091529082529020546001600160a01b031681565b61018b61037d3660046137b3565b61194e565b6000546001600160a01b03166101cc565b61018b6103a1366004613978565b611b4c565b61018b6103b4366004613747565b611b9f565b61018b6103c73660046136ee565b611c60565b61041c6103da366004613772565b600560209081526000938452604080852082529284528284209052825290208054600182015460028301546003909301546001600160a01b0390921692909184565b604080516001600160a01b03909516855260208501939093529183015260608201526080016101aa565b61019b610454366004613747565b600360209081526000928352604080842090915290825290205461ffff1681565b61018b6104833660046137b3565b611e93565b61018b6104963660046137ea565b61206f565b61018b6104a93660046136b6565b6121de565b61018b6104bc36600461388c565b612257565b6008546101cc906001600160a01b031681565b61018b6104e23660046136b6565b612399565b8181336001600160a01b03808416600090815260056020908152604080832086845282528083208585168452825291829020825160808101845281549094168452600181015491840182905260028101549284019290925260039091015460608301521580159061055b5750428160600151115b6105ac5760405162461bcd60e51b815260206004820152601b60248201527f6f66666572206e6f7420657869737473206f722065787069726564000000000060448201526064015b60405180910390fd5b6001600160a01b038616600081815260056020908152604080832089845282528083203380855290835281842080546001600160a01b0319168155600181018590556002810185905560030193909355518881527fc6e24dcedb16cc237925b586889d0a38102c719734d6cc56acb89b013099b3a7910160405180910390a3505050505050565b600260015414156106565760405162461bcd60e51b81526004016105a390613aaa565b600260018181556001600160a01b038086166000908152600560209081526040808320888452825280832084881684528252918290208251608081018452815490941684529384015490830181905293830154908201526003909101546060820152849184918491158015906106cf5750428160600151115b61071b5760405162461bcd60e51b815260206004820152601b60248201527f6f66666572206e6f7420657869737473206f722065787069726564000000000060448201526064016105a3565b6001600160a01b0387811660009081526005602090815260408083208a84528252808320898516845282529182902082516080810184528154909416845260018101549184019190915260028101549183019190915260030154606082015261078a88883384602001516123f9565b60006107a78260200151836040015161265490919063ffffffff16565b6006549091506000906107cd906103e8906107c790859061ffff16612654565b90612669565b60065484519192506000916107f7916001600160a01b03918216918c916201000090041685612675565b6001600160a01b03808c1660008181526002602090815260408083208f8452825280832054938352600382528083208f845290915290205491169061ffff168115801590610848575061ffff811615155b156108965761086b6127106107c761ffff841661086589896126cf565b90612654565b8651909350610885906001600160a01b03168c8486612675565b61088f84846126db565b9350610915565b50506001600160a01b03808c1660009081526007602052604090206001810154905491169061ffff1681158015906108d1575061ffff811615155b15610915576108ee6127106107c761ffff841661086589896126cf565b8651909350610908906001600160a01b03168c8486612675565b61091284846126db565b93505b6109378b3361092488886126cf565b89516001600160a01b0316929190612675565b6040516301ffc9a760e01b81526001600160a01b038e16906301ffc9a79061096a906380ac58cd60e01b90600401613a2c565b60206040518083038186803b15801561098257600080fd5b505afa158015610996573d6000803e3d6000fd5b505050506040513d601f19601f820116820180604052508101906109ba9190613924565b15610a3c576001600160a01b038d166342842e0e336040516001600160e01b031960e084901b1681526001600160a01b039182166004820152908e166024820152604481018f9052606401600060405180830381600087803b158015610a1f57600080fd5b505af1158015610a33573d6000803e3d6000fd5b50505050610ab6565b6001600160a01b038d1663f242432a338d8f8a60200151604051806020016040528060008152506040518663ffffffff1660e01b8152600401610a839594939291906139f2565b600060405180830381600087803b158015610a9d57600080fd5b505af1158015610ab1573d6000803e3d6000fd5b505050505b600860009054906101000a90046001600160a01b03166001600160a01b0316639e1f5b286040518163ffffffff1660e01b815260040160206040518083038186803b158015610b0457600080fd5b505afa158015610b18573d6000803e3d6000fd5b505050506040513d601f19601f82011682018060405250810190610b3c91906136d2565b6001600160a01b03166327c1f4f48e8e89602001516040518463ffffffff1660e01b8152600401610b8b939291906001600160a01b039390931683526020830191909152604082015260600190565b600060405180830381600087803b158015610ba557600080fd5b505af1158015610bb9573d6000803e3d6000fd5b505050508c6001600160a01b03168b6001600160a01b0316610bd83390565b6001600160a01b03167f949d1413baca5c0e4ab96b0198d536cac8cdcc17cb909b9ea24594f42ed9fa0d8f8a602001518b60000151610c1a8d60000151611238565b8d60400151604051610c30959493929190613b0a565b60405180910390a48c6001600160a01b03168b6001600160a01b03167fc6e24dcedb16cc237925b586889d0a38102c719734d6cc56acb89b013099b3a78e604051610c7d91815260200190565b60405180910390a3505050506001600160a01b0398891660008181526004602090815260408083208c845282528083203384528252808320838155600180820180546001600160a01b031990811690915560028084018790556003938401879055968652600585528386209e86529d84528285209c909e1684529a90915281208054909a168a55898b018190559089018190559790960196909655505050928055505050565b8585336001600160a01b038084166000908152600460209081526040808320868452825280832085851684528252918290208251608081018452815480825260018301549095169281019290925260028101549282019290925260039091015460608201529015610dc75760405162461bcd60e51b815260206004820152600e60248201526d185b1c9958591e481b1a5cdd195960921b60448201526064016105a3565b6040516301ffc9a760e01b81526001600160a01b038b16906301ffc9a790610dfa906380ac58cd60e01b90600401613a2c565b60206040518083038186803b158015610e1257600080fd5b505afa158015610e26573d6000803e3d6000fd5b505050506040513d601f19601f82011682018060405250810190610e4a9190613924565b15610fc65789336040516331a9108f60e11b8152600481018c90526001600160a01b0391821691831690636352211e9060240160206040518083038186803b158015610e9557600080fd5b505afa158015610ea9573d6000803e3d6000fd5b505050506040513d601f19601f82011682018060405250810190610ecd91906136d2565b6001600160a01b031614610ef35760405162461bcd60e51b81526004016105a390613a81565b6001600160a01b03811663e985e9c5336040516001600160e01b031960e084901b1681526001600160a01b03909116600482015230602482015260440160206040518083038186803b158015610f4857600080fd5b505afa158015610f5c573d6000803e3d6000fd5b505050506040513d601f19601f82011682018060405250810190610f809190613924565b610fc05760405162461bcd60e51b81526020600482015260116024820152701a5d195b481b9bdd08185c1c1c9bdd9959607a1b60448201526064016105a3565b5061113b565b6040516301ffc9a760e01b81526001600160a01b038b16906301ffc9a790610ff990636cdb3d1360e11b90600401613a2c565b60206040518083038186803b15801561101157600080fd5b505afa158015611025573d6000803e3d6000fd5b505050506040513d601f19601f820116820180604052508101906110499190613924565b156111235789886001600160a01b03821662fdd58e336040516001600160e01b031960e084901b1681526001600160a01b039091166004820152602481018e905260440160206040518083038186803b1580156110a557600080fd5b505afa1580156110b9573d6000803e3d6000fd5b505050506040513d601f19601f820116820180604052508101906110dd9190613992565b1015610ef35760405162461bcd60e51b81526020600482015260156024820152746d75737420686f6c6420656e6f756768206e66747360581b60448201526064016105a3565b60405162461bcd60e51b81526004016105a390613a54565b611144876126e7565b604080516080810182528981526001600160a01b038981166020808401919091528284018a905260608301899052908d166000908152600482528381208d82529091529182209091336001600160a01b039081168252602080830193909352604091820160002084518155928401516001840180546001600160a01b0319169183169190911790559083015160028301556060909201516003909101558a16336001600160a01b03167fa0294f02f8ad82fe4744717b0f953a105547196cd3c67056200c1a4ae3aa26298b8b8b8b8b604051611224959493929190613b0a565b60405180910390a350505050505050505050565b600080600080600860009054906101000a90046001600160a01b03166001600160a01b031663741bef1a6040518163ffffffff1660e01b815260040160206040518083038186803b15801561128c57600080fd5b505afa1580156112a0573d6000803e3d6000fd5b505050506040513d601f19601f820116820180604052508101906112c491906136d2565b90506001600160a01b0385166113d457806001600160a01b03166341976e09826001600160a01b031663050d63ec6040518163ffffffff1660e01b815260040160206040518083038186803b15801561131c57600080fd5b505afa158015611330573d6000803e3d6000fd5b505050506040513d601f19601f8201168201806040525081019061135491906136d2565b6040516001600160e01b031960e084901b1681526001600160a01b039091166004820152602401604080518083038186803b15801561139257600080fd5b505afa1580156113a6573d6000803e3d6000fd5b505050506040513d601f19601f820116820180604052508101906113ca9190613944565b9093509150611452565b6040516341976e0960e01b81526001600160a01b0386811660048301528216906341976e0990602401604080518083038186803b15801561141457600080fd5b505afa158015611428573d6000803e3d6000fd5b505050506040513d601f19601f8201168201806040525081019061144c9190613944565b90935091505b60128260ff16101561148557611469826012613d8d565b61147490600a613cc5565b61147e9084613cd4565b92506114a8565b611490601283613d8d565b61149b90600a613cc5565b6114a59084613b4e565b92505b50909392505050565b8585336001600160a01b03808416600090815260056020908152604080832086845282528083208585168452825291829020825160808101845281549094168452600181015491840182905260028101549284019290925260039091015460608301521580611524575042816060015111155b6115685760405162461bcd60e51b81526020600482015260156024820152741bd999995c88185b1c9958591e4818dc99585d1959605a1b60448201526064016105a3565b6040516301ffc9a760e01b81526001600160a01b038b16906301ffc9a79061159b906380ac58cd60e01b90600401613a2c565b60206040518083038186803b1580156115b357600080fd5b505afa1580156115c7573d6000803e3d6000fd5b505050506040513d601f19601f820116820180604052508101906115eb9190613924565b8061167457506040516301ffc9a760e01b81526001600160a01b038b16906301ffc9a79061162490636cdb3d1360e11b90600401613a2c565b60206040518083038186803b15801561163c57600080fd5b505afa158015611650573d6000803e3d6000fd5b505050506040513d601f19601f820116820180604052508101906116749190613924565b6116905760405162461bcd60e51b81526004016105a390613a54565b600860009054906101000a90046001600160a01b03166001600160a01b0316637d9f6db56040518163ffffffff1660e01b815260040160206040518083038186803b1580156116de57600080fd5b505afa1580156116f2573d6000803e3d6000fd5b505050506040513d601f19601f8201168201806040525081019061171691906136d2565b6040516331a9108f60e11b8152600481018b90526001600160a01b03918216918c1690636352211e9060240160206040518083038186803b15801561175a57600080fd5b505afa15801561176e573d6000803e3d6000fd5b505050506040513d601f19601f8201168201806040525081019061179291906136d2565b6001600160a01b031614156117e95760405162461bcd60e51b815260206004820152601760248201527f4e46542061756374696f6e20697320676f696e67206f6e00000000000000000060448201526064016105a3565b42851161182d5760405162461bcd60e51b815260206004820152601260248201527134b73b30b634b21032bc3834b930ba34b7b760711b60448201526064016105a3565b611836886126e7565b604080516080810182526001600160a01b038a8116825260208083018b90528284018a905260608301899052908d166000908152600582528381208d82529091529182209091336001600160a01b0390811682526020808301939093526040918201600020845181546001600160a01b0319169083161781559284015160018401559083015160028301556060909201516003909101558a16336001600160a01b03167f89f255157c655b5155655107b77c620998e5ad4e7485d749e4e6d7ddb63e70f68b8a8c8b8b604051611224959493929190613b0a565b6119186128c8565b600880546001600160a01b0319166001600160a01b0392909216919091179055565b6119426128c8565b61194c6000612922565b565b600260015414156119715760405162461bcd60e51b81526004016105a390613aaa565b600260018181556001600160a01b0380871660009081526004602090815260408083208984528252808320848816845282529182902082516080810184528154808252958201549094169184019190915293840154908201526003909201546060830152859185918491906119f85760405162461bcd60e51b81526004016105a390613ae1565b6001600160a01b0380891660009081526004602090815260408083208b84528252808320848a168452825291829020825160808101845281548082526001830154909516928101929092526002810154928201929092526003909101546060820152899189918891611a6f908590859085906123f9565b6060810151421015611ab65760405162461bcd60e51b815260206004820152601060248201526f6974656d206e6f742062757961626c6560801b60448201526064016105a3565b6001600160a01b038c811660009081526004602090815260408083208f845282528083208d851684529091529020600101548116908b1614611b2e5760405162461bcd60e51b815260206004820152601160248201527034b73b30b634b2103830bc903a37b5b2b760791b60448201526064016105a3565b611b3a8c8c8c8c612972565b50506001805550505050505050505050565b611b546128c8565b6006805461ffff191661ffff83169081179091556040519081527fcabead39256298cdf7d1228eee68b47bc54a2192283d8d93574da08d2d7ac303906020015b60405180910390a150565b60026001541415611bc25760405162461bcd60e51b81526004016105a390613aaa565b60026001558181336001600160a01b0380841660009081526004602090815260408083208684528252808320858516845282529182902082516080810184528154808252600183015490951692810192909252600281015492820192909252600390910154606082015290611c495760405162461bcd60e51b81526004016105a390613ae1565b611c54868633612e8f565b50506001805550505050565b611c686128c8565b6001600160a01b038316611cbe5760405162461bcd60e51b815260206004820152601760248201527f696e76616c69642063726561746f72206164647265737300000000000000000060448201526064016105a3565b6127108261ffff161115611d065760405162461bcd60e51b815260206004820152600f60248201526e696e76616c696420726f79616c747960881b60448201526064016105a3565b61ffff82161580611d1f57506001600160a01b03811615155b611d6b5760405162461bcd60e51b815260206004820152601d60248201527f696e76616c69642066656520726563697069656e74206164647265737300000060448201526064016105a3565b611d7484612f8d565b15611d915760405162461bcd60e51b81526004016105a390613a54565b6001600160a01b0384811660009081526007602052604090205462010000900416611e39576040805160608101825261ffff84811682526001600160a01b0386811660208085019182528683168587019081528a84166000908152600790925295902093518454915193166001600160b01b03199091161762010000928216929092029190911782559151600190910180546001600160a01b03191691909216179055611e8d565b6001600160a01b03808516600090815260076020526040902080546001820180548585166001600160a01b031990911617905591851662010000026001600160b01b031990921661ffff8516179190911790555b50505050565b600854604080516313c3eb6560e31b8152905133926001600160a01b031691639e1f5b28916004808301926020929190829003018186803b158015611ed757600080fd5b505afa158015611eeb573d6000803e3d6000fd5b505050506040513d601f19601f82011682018060405250810190611f0f91906136d2565b6001600160a01b031614611f6f5760405162461bcd60e51b815260206004820152602160248201527f73656e646572206d7573742062652062756e646c65206d61726b6574706c61636044820152606560f81b60648201526084016105a3565b6001600160a01b038085166000908152600460209081526040808320878452825280832086851684528252918290208251608081018452815480825260018301549095169281019290925260028101549282019290925260039091015460608201529015611fe257611fe2858585612e8f565b6001600160a01b038581166000818152600560209081526040808320898452825280832094871680845294825280832080546001600160a01b031916815560018101849055600281018490556003019290925590518781529192917fc6e24dcedb16cc237925b586889d0a38102c719734d6cc56acb89b013099b3a7910160405180910390a35050505050565b600260015414156120925760405162461bcd60e51b81526004016105a390613aaa565b60026001558383336001600160a01b03808416600090815260046020908152604080832086845282528083208585168452825291829020825160808101845281548082526001830154909516928101929092526002810154928201929092526003909101546060820152906121195760405162461bcd60e51b81526004016105a390613ae1565b6001600160a01b03881660009081526004602090815260408083208a8452825280832033808552925290912080549091612156918b918b916123f9565b61215f876126e7565b6001810180546001600160a01b038981166001600160a01b0319909216821790925560028301889055604080518b8152602081019290925281810189905251918b169133917f60a11f1619b1716bc2857bf610d4bc631336e14d197025fd5875c1aca1ac7cbd919081900360600190a350506001805550505050505050565b6121e66128c8565b6001600160a01b03811661224b5760405162461bcd60e51b815260206004820152602660248201527f4f776e61626c653a206e6577206f776e657220697320746865207a65726f206160448201526564647265737360d01b60648201526084016105a3565b61225481612922565b50565b6127108161ffff16111561229f5760405162461bcd60e51b815260206004820152600f60248201526e696e76616c696420726f79616c747960881b60448201526064016105a3565b6122a883612f8d565b6122c45760405162461bcd60e51b81526004016105a390613a54565b6122d183833360016123f9565b6001600160a01b038381166000908152600260209081526040808320868452909152902054161561233a5760405162461bcd60e51b81526020600482015260136024820152721c9bde585b1d1e48185b1c9958591e481cd95d606a1b60448201526064016105a3565b6001600160a01b03929092166000818152600260209081526040808320858452825280832080546001600160a01b0319163317905592825260038152828220938252929092529020805461ffff90921661ffff19909216919091179055565b6123a16128c8565b6006805462010000600160b01b031916620100006001600160a01b038416908102919091179091556040519081527fe57e7c1f36cc83fade34e32351e6eee7eb9da532662b1b5da10c631e8222aca790602001611b94565b6040516301ffc9a760e01b81526001600160a01b038516906301ffc9a79061242c906380ac58cd60e01b90600401613a2c565b60206040518083038186803b15801561244457600080fd5b505afa158015612458573d6000803e3d6000fd5b505050506040513d601f19601f8201168201806040525081019061247c9190613924565b1561252c576040516331a9108f60e11b81526004810184905284906001600160a01b038481169190831690636352211e9060240160206040518083038186803b1580156124c857600080fd5b505afa1580156124dc573d6000803e3d6000fd5b505050506040513d601f19601f8201168201806040525081019061250091906136d2565b6001600160a01b0316146125265760405162461bcd60e51b81526004016105a390613a81565b50611e8d565b6040516301ffc9a760e01b81526001600160a01b038516906301ffc9a79061255f90636cdb3d1360e11b90600401613a2c565b60206040518083038186803b15801561257757600080fd5b505afa15801561258b573d6000803e3d6000fd5b505050506040513d601f19601f820116820180604052508101906125af9190613924565b1561112357604051627eeac760e11b81526001600160a01b038381166004830152602482018590528591839183169062fdd58e9060440160206040518083038186803b1580156125fe57600080fd5b505afa158015612612573d6000803e3d6000fd5b505050506040513d601f19601f820116820180604052508101906126369190613992565b10156125265760405162461bcd60e51b81526004016105a390613a81565b60006126608284613d57565b90505b92915050565b60006126608284613b7c565b604080516001600160a01b0385811660248301528416604482015260648082018490528251808303909101815260849091019091526020810180516001600160e01b03166323b872dd60e01b179052611e8d908590613445565b60006126608284613d76565b60006126608284613b36565b6001600160a01b0381161580612888575060085460408051639d23c4c760e01b815290516000926001600160a01b031691639d23c4c7916004808301926020929190829003018186803b15801561273d57600080fd5b505afa158015612751573d6000803e3d6000fd5b505050506040513d601f19601f8201168201806040525081019061277591906136d2565b6001600160a01b0316141580156128885750600860009054906101000a90046001600160a01b03166001600160a01b0316639d23c4c76040518163ffffffff1660e01b815260040160206040518083038186803b1580156127d557600080fd5b505afa1580156127e9573d6000803e3d6000fd5b505050506040513d601f19601f8201168201806040525081019061280d91906136d2565b6040516398afdfe360e01b81526001600160a01b03838116600483015291909116906398afdfe39060240160206040518083038186803b15801561285057600080fd5b505afa158015612864573d6000803e3d6000fd5b505050506040513d601f19601f820116820180604052508101906128889190613924565b6122545760405162461bcd60e51b815260206004820152601160248201527034b73b30b634b2103830bc903a37b5b2b760791b60448201526064016105a3565b6000546001600160a01b0316331461194c5760405162461bcd60e51b815260206004820181905260248201527f4f776e61626c653a2063616c6c6572206973206e6f7420746865206f776e657260448201526064016105a3565b600080546001600160a01b038381166001600160a01b0319831681178455604051919092169283917f8be0079c531659141344cd1fd0a4f28419497f9722a3daafe3b4186f6b6457e09190a35050565b6001600160a01b03808516600090815260046020908152604080832087845282528083208585168452825280832081516080810183528154808252600183015490961693810193909352600281015491830182905260030154606083015290926129dc9190612654565b6006549091506000906129fc906103e8906107c790859061ffff16612654565b9050612a1f336006546001600160a01b0388811692916201000090041684612675565b6001600160a01b0380881660008181526002602090815260408083208b8452825280832054938352600382528083208b845290915290205491169061ffff168115801590612a70575061ffff811615155b15612aba576000612a8f6127106107c761ffff851661086589896126cf565b9050612aa8335b6001600160a01b038a16908584612675565b612ab284826126db565b935050612b2d565b50506001600160a01b0380881660009081526007602052604090206001810154905491169061ffff168115801590612af5575061ffff811615155b15612b2d576000612b146127106107c761ffff851661086589896126cf565b9050612b1f33612a96565b612b2984826126db565b9350505b612b4e3387612b3c87876126cf565b6001600160a01b038b16929190612675565b6040516301ffc9a760e01b81526001600160a01b038a16906301ffc9a790612b81906380ac58cd60e01b90600401613a2c565b60206040518083038186803b158015612b9957600080fd5b505afa158015612bad573d6000803e3d6000fd5b505050506040513d601f19601f82011682018060405250810190612bd19190613924565b15612c53576001600160a01b0389166342842e0e87336040516001600160e01b031960e085901b1681526001600160a01b03928316600482015291166024820152604481018b9052606401600060405180830381600087803b158015612c3657600080fd5b505af1158015612c4a573d6000803e3d6000fd5b50505050612cc5565b845160408051602081018252600081529051637921219560e11b81526001600160a01b038c169263f242432a92612c92928b9233928f926004016139f2565b600060405180830381600087803b158015612cac57600080fd5b505af1158015612cc0573d6000803e3d6000fd5b505050505b600860009054906101000a90046001600160a01b03166001600160a01b0316639e1f5b286040518163ffffffff1660e01b815260040160206040518083038186803b158015612d1357600080fd5b505afa158015612d27573d6000803e3d6000fd5b505050506040513d601f19601f82011682018060405250810190612d4b91906136d2565b85516040516309f07d3d60e21b81526001600160a01b038c81166004830152602482018c905260448201929092529116906327c1f4f490606401600060405180830381600087803b158015612d9f57600080fd5b505af1158015612db3573d6000803e3d6000fd5b50505050886001600160a01b0316612dc83390565b6001600160a01b0316876001600160a01b03167f949d1413baca5c0e4ab96b0198d536cac8cdcc17cb909b9ea24594f42ed9fa0d8b89600001518c612e0c8e611238565b8c51612e19908d90612669565b604051612e2a959493929190613b0a565b60405180910390a45050506001600160a01b03958616600090815260046020908152604080832097835296815286822094909716815292909552509182208281556001810180546001600160a01b031916905560028101839055600301919091555050565b6001600160a01b0380841660009081526004602090815260408083208684528252808320858516845282529182902082516080810184528154808252600183015490951692810192909252600281015492820192909252600390910154606082015290612f01908590859085906123f9565b6001600160a01b03848116600081815260046020908152604080832088845282528083209487168084529482528083208381556001810180546001600160a01b0319169055600281018490556003019290925590518681529192917f9ba1a3cb55ce8d63d072a886f94d2a744f50cddf82128e897d0661f5ec623158910160405180910390a350505050565b6000816001600160a01b0316600860009054906101000a90046001600160a01b03166001600160a01b03166318944e556040518163ffffffff1660e01b815260040160206040518083038186803b158015612fe757600080fd5b505afa158015612ffb573d6000803e3d6000fd5b505050506040513d601f19601f8201168201806040525081019061301f91906136d2565b6001600160a01b031614806131305750600860009054906101000a90046001600160a01b03166001600160a01b031663c45a01556040518163ffffffff1660e01b815260040160206040518083038186803b15801561307d57600080fd5b505afa158015613091573d6000803e3d6000fd5b505050506040513d601f19601f820116820180604052508101906130b591906136d2565b604051637b51e92760e11b81526001600160a01b038481166004830152919091169063f6a3d24e9060240160206040518083038186803b1580156130f857600080fd5b505afa15801561310c573d6000803e3d6000fd5b505050506040513d601f19601f820116820180604052508101906131309190613924565b806132375750600860009054906101000a90046001600160a01b03166001600160a01b031663735db9396040518163ffffffff1660e01b815260040160206040518083038186803b15801561318457600080fd5b505afa158015613198573d6000803e3d6000fd5b505050506040513d601f19601f820116820180604052508101906131bc91906136d2565b604051637b51e92760e11b81526001600160a01b038481166004830152919091169063f6a3d24e9060240160206040518083038186803b1580156131ff57600080fd5b505afa158015613213573d6000803e3d6000fd5b505050506040513d601f19601f820116820180604052508101906132379190613924565b8061333e5750600860009054906101000a90046001600160a01b03166001600160a01b0316630fb27d8c6040518163ffffffff1660e01b815260040160206040518083038186803b15801561328b57600080fd5b505afa15801561329f573d6000803e3d6000fd5b505050506040513d601f19601f820116820180604052508101906132c391906136d2565b604051637b51e92760e11b81526001600160a01b038481166004830152919091169063f6a3d24e9060240160206040518083038186803b15801561330657600080fd5b505afa15801561331a573d6000803e3d6000fd5b505050506040513d601f19601f8201168201806040525081019061333e9190613924565b806126635750600860009054906101000a90046001600160a01b03166001600160a01b031663924db13f6040518163ffffffff1660e01b815260040160206040518083038186803b15801561339257600080fd5b505afa1580156133a6573d6000803e3d6000fd5b505050506040513d601f19601f820116820180604052508101906133ca91906136d2565b604051637b51e92760e11b81526001600160a01b038481166004830152919091169063f6a3d24e9060240160206040518083038186803b15801561340d57600080fd5b505afa158015613421573d6000803e3d6000fd5b505050506040513d601f19601f820116820180604052508101906126639190613924565b600061349a826040518060400160405280602081526020017f5361666545524332303a206c6f772d6c6576656c2063616c6c206661696c6564815250856001600160a01b031661351c9092919063ffffffff16565b80519091501561351757808060200190518101906134b89190613924565b6135175760405162461bcd60e51b815260206004820152602a60248201527f5361666545524332303a204552433230206f7065726174696f6e20646964206e6044820152691bdd081cdd58d8d9595960b21b60648201526084016105a3565b505050565b606061352b8484600085613535565b90505b9392505050565b6060824710156135965760405162461bcd60e51b815260206004820152602660248201527f416464726573733a20696e73756666696369656e742062616c616e636520666f6044820152651c8818d85b1b60d21b60648201526084016105a3565b6001600160a01b0385163b6135ed5760405162461bcd60e51b815260206004820152601d60248201527f416464726573733a2063616c6c20746f206e6f6e2d636f6e747261637400000060448201526064016105a3565b600080866001600160a01b0316858760405161360991906139d6565b60006040518083038185875af1925050503d8060008114613646576040519150601f19603f3d011682016040523d82523d6000602084013e61364b565b606091505b509150915061365b828286613666565b979650505050505050565b6060831561367557508161352e565b8251156136855782518084602001fd5b8160405162461bcd60e51b81526004016105a39190613a41565b803561ffff811681146136b157600080fd5b919050565b6000602082840312156136c7578081fd5b813561352e81613e08565b6000602082840312156136e3578081fd5b815161352e81613e08565b60008060008060808587031215613703578283fd5b843561370e81613e08565b9350602085013561371e81613e08565b925061372c6040860161369f565b9150606085013561373c81613e08565b939692955090935050565b60008060408385031215613759578182fd5b823561376481613e08565b946020939093013593505050565b600080600060608486031215613786578283fd5b833561379181613e08565b92506020840135915060408401356137a881613e08565b809150509250925092565b600080600080608085870312156137c8578384fd5b84356137d381613e08565b935060208501359250604085013561372c81613e08565b600080600080608085870312156137ff578384fd5b843561380a81613e08565b935060208501359250604085013561382181613e08565b9396929550929360600135925050565b60008060008060008060c08789031215613849578182fd5b863561385481613e08565b955060208701359450604087013561386b81613e08565b959894975094956060810135955060808101359460a0909101359350915050565b6000806000606084860312156138a0578283fd5b83356138ab81613e08565b9250602084013591506138c06040850161369f565b90509250925092565b60008060008060008060c087890312156138e1578384fd5b86356138ec81613e08565b95506020870135945060408701359350606087013561390a81613e08565b9598949750929560808101359460a0909101359350915050565b600060208284031215613935578081fd5b8151801515811461352e578182fd5b60008060408385031215613956578182fd5b82519150602083015160ff8116811461396d578182fd5b809150509250929050565b600060208284031215613989578081fd5b6126608261369f565b6000602082840312156139a3578081fd5b5051919050565b600081518084526139c2816020860160208601613db0565b601f01601f19169290920160200192915050565b600082516139e8818460208701613db0565b9190910192915050565b6001600160a01b03868116825285166020820152604081018490526060810183905260a06080820181905260009061365b908301846139aa565b6001600160e01b031991909116815260200190565b60208152600061266060208301846139aa565b602080825260139082015272696e76616c6964206e6674206164647265737360681b604082015260600190565b6020808252600f908201526e6e6f74206f776e696e67206974656d60881b604082015260600190565b6020808252601f908201527f5265656e7472616e637947756172643a207265656e7472616e742063616c6c00604082015260600190565b6020808252600f908201526e6e6f74206c6973746564206974656d60881b604082015260600190565b94855260208501939093526001600160a01b039190911660408401526060830152608082015260a00190565b60008219821115613b4957613b49613ddc565b500190565b600082613b5d57613b5d613df2565b600160ff1b821460001984141615613b7757613b77613ddc565b500590565b600082613b8b57613b8b613df2565b500490565b80825b6001808611613ba25750613bd5565b6001600160ff1b03829004821115613bbc57613bbc613ddc565b80861615613bc957918102915b9490941c938002613b93565b935093915050565b6000828015613bf35760018114613bfd57613c06565b6001915050612663565b82915050612663565b5081613c1457506000612663565b50600160008213808214613c2d578015613c4c57613c66565b6001600160ff1b03839004831115613c4757613c47613ddc565b613c66565b6001600160ff1b03839005831215613c6657613c66613ddc565b5080831615613c725750805b613c828360011c83840283613b90565b600082136001600160ff1b0382900483111615613ca157613ca1613ddc565b60008212600160ff1b82900583121615613cbd57613cbd613ddc565b029392505050565b600061266060ff841683613bdd565b60006001600160ff1b0381841382841380821686840486111615613cfa57613cfa613ddc565b600160ff1b84871282811687830589121615613d1857613d18613ddc565b858712925087820587128484161615613d3357613d33613ddc565b87850587128184161615613d4957613d49613ddc565b505050929093029392505050565b6000816000190483118215151615613d7157613d71613ddc565b500290565b600082821015613d8857613d88613ddc565b500390565b600060ff821660ff841680821015613da757613da7613ddc565b90039392505050565b60005b83811015613dcb578181015183820152602001613db3565b83811115611e8d5750506000910152565b634e487b7160e01b600052601160045260246000fd5b634e487b7160e01b600052601260045260246000fd5b6001600160a01b038116811461225457600080fdfea26469706673582212205414fbbd4f8b39b83026a5e12f88407276663fc36afd071b126cfb890495cddc64736f6c63430008040033",
  "linkReferences": {},
  "deployedLinkReferences": {}
}