{
  "_format": "hh-sol-artifact-1",
  "contractName": "NFTMarketplace",
  "sourceName": "contracts/NFTMarketplace.sol",
  "abi": [
    {
      "inputs": [
        {
          "internalType": "address payable",
          "name": "_feeRecipient",
          "type": "address"
        },
        {
          "internalType": "uint256",
          "name": "_platformFee",
          "type": "uint256"
        }
      ],
      "stateMutability": "nonpayable",
      "type": "constructor"
    },
    {
      "anonymous": false,
      "inputs": [
        {
          "indexed": true,
          "internalType": "address",
          "name": "nft",
          "type": "address"
        },
        {
          "indexed": true,
          "internalType": "uint256",
          "name": "tokenId",
          "type": "uint256"
        },
        {
          "indexed": false,
          "internalType": "address",
          "name": "payToken",
          "type": "address"
        },
        {
          "indexed": false,
          "internalType": "uint256",
          "name": "offerPrice",
          "type": "uint256"
        },
        {
          "indexed": false,
          "internalType": "address",
          "name": "offerer",
          "type": "address"
        },
        {
          "indexed": true,
          "internalType": "address payable",
          "name": "nftOwner",
          "type": "address"
        }
      ],
      "name": "AcceptedNFT",
      "type": "event"
    },
    {
      "anonymous": false,
      "inputs": [
        {
          "indexed": true,
          "internalType": "address",
          "name": "nft",
          "type": "address"
        },
        {
          "indexed": true,
          "internalType": "uint256",
          "name": "tokenId",
          "type": "uint256"
        },
        {
          "indexed": false,
          "internalType": "address",
          "name": "payToken",
          "type": "address"
        },
        {
          "indexed": false,
          "internalType": "uint256",
          "name": "price",
          "type": "uint256"
        },
        {
          "indexed": false,
          "internalType": "address payable",
          "name": "seller",
          "type": "address"
        },
        {
          "indexed": true,
          "internalType": "address",
          "name": "buyer",
          "type": "address"
        }
      ],
      "name": "BoughtNFT",
      "type": "event"
    },
    {
      "anonymous": false,
      "inputs": [
        {
          "indexed": true,
          "internalType": "address",
          "name": "nft",
          "type": "address"
        },
        {
          "indexed": true,
          "internalType": "uint256",
          "name": "tokenId",
          "type": "uint256"
        },
        {
          "indexed": false,
          "internalType": "address",
          "name": "payToken",
          "type": "address"
        },
        {
          "indexed": false,
          "internalType": "uint256",
          "name": "offerPrice",
          "type": "uint256"
        },
        {
          "indexed": true,
          "internalType": "address",
          "name": "offerer",
          "type": "address"
        }
      ],
      "name": "CanceledOfferredNFT",
      "type": "event"
    },
    {
      "anonymous": false,
      "inputs": [
        {
          "indexed": true,
          "internalType": "address",
          "name": "nft",
          "type": "address"
        },
        {
          "indexed": true,
          "internalType": "uint256",
          "name": "tokenId",
          "type": "uint256"
        },
        {
          "indexed": false,
          "internalType": "address",
          "name": "payToken",
          "type": "address"
        },
        {
          "indexed": false,
          "internalType": "uint256",
          "name": "price",
          "type": "uint256"
        },
        {
          "indexed": false,
          "internalType": "uint256",
          "name": "minBid",
          "type": "uint256"
        },
        {
          "indexed": false,
          "internalType": "uint256",
          "name": "startTime",
          "type": "uint256"
        },
        {
          "indexed": false,
          "internalType": "uint256",
          "name": "endTime",
          "type": "uint256"
        },
        {
          "indexed": true,
          "internalType": "address payable",
          "name": "creator",
          "type": "address"
        }
      ],
      "name": "CreatedAuction",
      "type": "event"
    },
    {
      "anonymous": false,
      "inputs": [
        {
          "indexed": true,
          "internalType": "address",
          "name": "nft",
          "type": "address"
        },
        {
          "indexed": true,
          "internalType": "uint256",
          "name": "tokenId",
          "type": "uint256"
        },
        {
          "indexed": false,
          "internalType": "address",
          "name": "payToken",
          "type": "address"
        },
        {
          "indexed": false,
          "internalType": "uint256",
          "name": "price",
          "type": "uint256"
        },
        {
          "indexed": true,
          "internalType": "address",
          "name": "seller",
          "type": "address"
        }
      ],
      "name": "ListedNFT",
      "type": "event"
    },
    {
      "anonymous": false,
      "inputs": [
        {
          "indexed": true,
          "internalType": "address",
          "name": "nft",
          "type": "address"
        },
        {
          "indexed": true,
          "internalType": "uint256",
          "name": "tokenId",
          "type": "uint256"
        },
        {
          "indexed": false,
          "internalType": "address",
          "name": "payToken",
          "type": "address"
        },
        {
          "indexed": false,
          "internalType": "uint256",
          "name": "offerPrice",
          "type": "uint256"
        },
        {
          "indexed": true,
          "internalType": "address",
          "name": "offerer",
          "type": "address"
        }
      ],
      "name": "OfferredNFT",
      "type": "event"
    },
    {
      "anonymous": false,
      "inputs": [
        {
          "indexed": true,
          "internalType": "address",
          "name": "previousOwner",
          "type": "address"
        },
        {
          "indexed": true,
          "internalType": "address",
          "name": "newOwner",
          "type": "address"
        }
      ],
      "name": "OwnershipTransferred",
      "type": "event"
    },
    {
      "anonymous": false,
      "inputs": [
        {
          "indexed": true,
          "internalType": "address",
          "name": "nft",
          "type": "address"
        },
        {
          "indexed": true,
          "internalType": "uint256",
          "name": "tokenId",
          "type": "uint256"
        },
        {
          "indexed": false,
          "internalType": "address",
          "name": "payToken",
          "type": "address"
        },
        {
          "indexed": false,
          "internalType": "uint256",
          "name": "bidPrice",
          "type": "uint256"
        },
        {
          "indexed": true,
          "internalType": "address payable",
          "name": "bidder",
          "type": "address"
        }
      ],
      "name": "PlacedBid",
      "type": "event"
    },
    {
      "anonymous": false,
      "inputs": [
        {
          "indexed": true,
          "internalType": "address",
          "name": "nft",
          "type": "address"
        },
        {
          "indexed": true,
          "internalType": "uint256",
          "name": "tokenId",
          "type": "uint256"
        },
        {
          "indexed": false,
          "internalType": "address payable",
          "name": "creator",
          "type": "address"
        },
        {
          "indexed": true,
          "internalType": "address",
          "name": "winner",
          "type": "address"
        },
        {
          "indexed": false,
          "internalType": "uint256",
          "name": "price",
          "type": "uint256"
        },
        {
          "indexed": false,
          "internalType": "address",
          "name": "caller",
          "type": "address"
        }
      ],
      "name": "ResultedAuction",
      "type": "event"
    },
    {
      "inputs": [
        {
          "internalType": "address",
          "name": "_nft",
          "type": "address"
        },
        {
          "internalType": "uint256",
          "name": "_tokenId",
          "type": "uint256"
        },
        {
          "internalType": "address",
          "name": "_offerer",
          "type": "address"
        }
      ],
      "name": "acceptOfferNFT",
      "outputs": [],
      "stateMutability": "nonpayable",
      "type": "function"
    },
    {
      "inputs": [
        {
          "internalType": "address",
          "name": "_token",
          "type": "address"
        }
      ],
      "name": "addPayableToken",
      "outputs": [],
      "stateMutability": "nonpayable",
      "type": "function"
    },
    {
      "inputs": [
        {
          "internalType": "address",
          "name": "_nft",
          "type": "address"
        },
        {
          "internalType": "uint256",
          "name": "_tokenId",
          "type": "uint256"
        },
        {
          "internalType": "uint256",
          "name": "_bidPrice",
          "type": "uint256"
        }
      ],
      "name": "bidAuction",
      "outputs": [],
      "stateMutability": "nonpayable",
      "type": "function"
    },
    {
      "inputs": [
        {
          "internalType": "address",
          "name": "_nft",
          "type": "address"
        },
        {
          "internalType": "uint256",
          "name": "_tokenId",
          "type": "uint256"
        }
      ],
      "name": "buyItem",
      "outputs": [],
      "stateMutability": "payable",
      "type": "function"
    },
    {
      "inputs": [
        {
          "internalType": "uint256",
          "name": "_price",
          "type": "uint256"
        }
      ],
      "name": "calculatePlatformFee",
      "outputs": [
        {
          "internalType": "uint256",
          "name": "",
          "type": "uint256"
        }
      ],
      "stateMutability": "view",
      "type": "function"
    },
    {
      "inputs": [
        {
          "internalType": "uint256",
          "name": "_royalty",
          "type": "uint256"
        },
        {
          "internalType": "uint256",
          "name": "_price",
          "type": "uint256"
        }
      ],
      "name": "calculateRoyalty",
      "outputs": [
        {
          "internalType": "uint256",
          "name": "",
          "type": "uint256"
        }
      ],
      "stateMutability": "pure",
      "type": "function"
    },
    {
      "inputs": [
        {
          "internalType": "address",
          "name": "_nft",
          "type": "address"
        },
        {
          "internalType": "uint256",
          "name": "_tokenId",
          "type": "uint256"
        }
      ],
      "name": "cancelAuction",
      "outputs": [],
      "stateMutability": "nonpayable",
      "type": "function"
    },
    {
      "inputs": [
        {
          "internalType": "address",
          "name": "_nft",
          "type": "address"
        },
        {
          "internalType": "uint256",
          "name": "_tokenId",
          "type": "uint256"
        }
      ],
      "name": "cancelListedItem",
      "outputs": [],
      "stateMutability": "nonpayable",
      "type": "function"
    },
    {
      "inputs": [
        {
          "internalType": "address",
          "name": "_nft",
          "type": "address"
        },
        {
          "internalType": "uint256",
          "name": "_tokenId",
          "type": "uint256"
        }
      ],
      "name": "cancelOfferNFT",
      "outputs": [],
      "stateMutability": "nonpayable",
      "type": "function"
    },
    {
      "inputs": [
        {
          "internalType": "address payable",
          "name": "_feeRecipient",
          "type": "address"
        }
      ],
      "name": "changeFeeRecipient",
      "outputs": [],
      "stateMutability": "nonpayable",
      "type": "function"
    },
    {
      "inputs": [
        {
          "internalType": "address",
          "name": "_payableToken",
          "type": "address"
        }
      ],
      "name": "checkIsPayableToken",
      "outputs": [
        {
          "internalType": "bool",
          "name": "",
          "type": "bool"
        }
      ],
      "stateMutability": "view",
      "type": "function"
    },
    {
      "inputs": [
        {
          "internalType": "address",
          "name": "_nft",
          "type": "address"
        },
        {
          "internalType": "uint256",
          "name": "_tokenId",
          "type": "uint256"
        },
        {
          "internalType": "address",
          "name": "_payToken",
          "type": "address"
        },
        {
          "internalType": "uint256",
          "name": "_price",
          "type": "uint256"
        },
        {
          "internalType": "uint256",
          "name": "_minBid",
          "type": "uint256"
        },
        {
          "internalType": "uint256",
          "name": "_startTime",
          "type": "uint256"
        },
        {
          "internalType": "uint256",
          "name": "_endTime",
          "type": "uint256"
        }
      ],
      "name": "createAuction",
      "outputs": [],
      "stateMutability": "nonpayable",
      "type": "function"
    },
    {
      "inputs": [
        {
          "internalType": "address",
          "name": "_nft",
          "type": "address"
        },
        {
          "internalType": "uint256",
          "name": "_tokenId",
          "type": "uint256"
        }
      ],
      "name": "getListedItem",
      "outputs": [
        {
          "components": [
            {
              "internalType": "address",
              "name": "nft",
              "type": "address"
            },
            {
              "internalType": "uint256",
              "name": "tokenId",
              "type": "uint256"
            },
            {
              "internalType": "address payable",
              "name": "seller",
              "type": "address"
            },
            {
              "internalType": "address",
              "name": "payToken",
              "type": "address"
            },
            {
              "internalType": "uint256",
              "name": "price",
              "type": "uint256"
            },
            {
              "internalType": "bool",
              "name": "sold",
              "type": "bool"
            }
          ],
          "internalType": "struct NFTMarketplace.ListNFT",
          "name": "",
          "type": "tuple"
        }
      ],
      "stateMutability": "view",
      "type": "function"
    },
    {
      "inputs": [],
      "name": "getPayableTokens",
      "outputs": [
        {
          "internalType": "address[]",
          "name": "",
          "type": "address[]"
        }
      ],
      "stateMutability": "view",
      "type": "function"
    },
    {
      "inputs": [
        {
          "internalType": "address",
          "name": "_nft",
          "type": "address"
        },
        {
          "internalType": "uint256",
          "name": "_tokenId",
          "type": "uint256"
        },
        {
          "internalType": "address",
          "name": "_payToken",
          "type": "address"
        },
        {
          "internalType": "uint256",
          "name": "_price",
          "type": "uint256"
        }
      ],
      "name": "listItem",
      "outputs": [],
      "stateMutability": "nonpayable",
      "type": "function"
    },
    {
      "inputs": [
        {
          "internalType": "address",
          "name": "_nft",
          "type": "address"
        },
        {
          "internalType": "uint256",
          "name": "_tokenId",
          "type": "uint256"
        },
        {
          "internalType": "address",
          "name": "_payToken",
          "type": "address"
        },
        {
          "internalType": "uint256",
          "name": "_offerPrice",
          "type": "uint256"
        }
      ],
      "name": "offerNFT",
      "outputs": [],
      "stateMutability": "nonpayable",
      "type": "function"
    },
    {
      "inputs": [],
      "name": "owner",
      "outputs": [
        {
          "internalType": "address",
          "name": "",
          "type": "address"
        }
      ],
      "stateMutability": "view",
      "type": "function"
    },
    {
      "inputs": [],
      "name": "renounceOwnership",
      "outputs": [],
      "stateMutability": "nonpayable",
      "type": "function"
    },
    {
      "inputs": [
        {
          "internalType": "address",
          "name": "_nft",
          "type": "address"
        },
        {
          "internalType": "uint256",
          "name": "_tokenId",
          "type": "uint256"
        }
      ],
      "name": "resultAuction",
      "outputs": [],
      "stateMutability": "nonpayable",
      "type": "function"
    },
    {
      "inputs": [
        {
          "internalType": "address",
          "name": "newOwner",
          "type": "address"
        }
      ],
      "name": "transferOwnership",
      "outputs": [],
      "stateMutability": "nonpayable",
      "type": "function"
    },
    {
      "inputs": [
        {
          "internalType": "uint256",
          "name": "_platformFee",
          "type": "uint256"
        }
      ],
      "name": "updatePlatformFee",
      "outputs": [],
      "stateMutability": "nonpayable",
      "type": "function"
    }
  ],
  "bytecode": "0x60806040523480156200001157600080fd5b506040516200333d3803806200333d833981016040819052620000349162000114565b6200003f33620000c4565b600180556127108111156200009a5760405162461bcd60e51b815260206004820152601a60248201527f63616e2774206d6f7265207468616e2031302070657263656e74000000000000604482015260640160405180910390fd5b600380546001600160a01b0319166001600160a01b0393909316929092179091556002556200014e565b600080546001600160a01b038381166001600160a01b0319831681178455604051919092169283917f8be0079c531659141344cd1fd0a4f28419497f9722a3daafe3b4186f6b6457e09190a35050565b6000806040838503121562000127578182fd5b82516001600160a01b03811681146200013e578283fd5b6020939093015192949293505050565b6131df806200015e6000396000f3fe60806040526004361061012a5760003560e01c8063715018a6116100ab5780639f37092a1161006f5780639f37092a14610449578063aa0b59881461045c578063b0708a351461047c578063ea7e728d1461049c578063eb95711b146104bc578063f2fde38b146104dc57600080fd5b8063715018a614610383578063859b97fe146103985780638da5cb5b146103b8578063981b836c146103e05780639d8f4f551461040057600080fd5b806338a7cab5116100f257806338a7cab5146101e457806338af40d61461020457806346f5ab31146103215780635b5b3314146103415780635f7063ef1461036357600080fd5b80630cbab4f71461012f578063122b064514610162578063132013851461018457806323604071146101a45780633535db22146101c4575b600080fd5b34801561013b57600080fd5b5061014f61014a366004612ff2565b6104fc565b6040519081526020015b60405180910390f35b34801561016e57600080fd5b5061018261017d366004612f3a565b61051f565b005b34801561019057600080fd5b5061018261019f366004612e4f565b610a6d565b3480156101b057600080fd5b506101826101bf366004612e4f565b610b82565b3480156101d057600080fd5b506101826101df366004612ef3565b610bf7565b3480156101f057600080fd5b506101826101ff366004612f9e565b610f1f565b34801561021057600080fd5b506102c861021f366004612e87565b6040805160c081018252600080825260208201819052918101829052606081018290526080810182905260a0810191909152506001600160a01b03918216600090815260066020908152604080832093835292815290829020825160c081018452815485168152600182015492810192909252600281015484169282019290925260038201549092166060830152600481015460808301526005015460ff16151560a082015290565b604051610159919081516001600160a01b03908116825260208084015190830152604080840151821690830152606080840151909116908201526080808301519082015260a09182015115159181019190915260c00190565b34801561032d57600080fd5b5061018261033c366004612e87565b611329565b34801561034d57600080fd5b5061035661165a565b6040516101599190613068565b34801561036f57600080fd5b5061018261037e366004612e87565b6116bc565b34801561038f57600080fd5b50610182611a39565b3480156103a457600080fd5b506101826103b3366004612e87565b611a4d565b3480156103c457600080fd5b506000546040516001600160a01b039091168152602001610159565b3480156103ec57600080fd5b506101826103fb366004612ef3565b611dd8565b34801561040c57600080fd5b5061043961041b366004612e4f565b6001600160a01b031660009081526004602052604090205460ff1690565b6040519015158152602001610159565b610182610457366004612e87565b612164565b34801561046857600080fd5b50610182610477366004612ff2565b612577565b34801561048857600080fd5b5061014f61049736600461300a565b6125d6565b3480156104a857600080fd5b506101826104b7366004612e87565b6125f6565b3480156104c857600080fd5b506101826104d7366004612eb2565b61281a565b3480156104e857600080fd5b506101826104f7366004612e4f565b612d2c565b60006127106002548361050f9190613148565b6105199190613128565b92915050565b846001600160a01b038116158061054e57506001600160a01b03811660009081526004602052604090205460ff165b6105935760405162461bcd60e51b815260206004820152601160248201527034b73b30b634b2103830bc903a37b5b2b760791b60448201526064015b60405180910390fd5b6001600160a01b0388811660009081526008602081815260408084208c855282529283902083516101808101855281548616808252600183015493820193909352600282015486169481019490945260038101548516606085015260048101546080850152600581015460a0850152600681015460c0850152600781015460e08501529182015484166101008401526009820154610120840152600a90910154928316610140830152600160a01b90920460ff1615156101608201528991899190158061066257508061016001515b61067e5760405162461bcd60e51b815260040161058a906130b5565b6040516331a9108f60e11b8152600481018b90528b9033906001600160a01b03831690636352211e9060240160206040518083038186803b1580156106c257600080fd5b505afa1580156106d6573d6000803e3d6000fd5b505050506040513d601f19601f820116820180604052508101906106fa9190612e6b565b6001600160a01b0316146107405760405162461bcd60e51b815260206004820152600d60248201526c3737ba1037333a1037bbb732b960991b604482015260640161058a565b8686116107825760405162461bcd60e51b815260206004820152601060248201526f696e76616c696420656e642074696d6560801b604482015260640161058a565b806001600160a01b03166323b872dd33308e6040518463ffffffff1660e01b81526004016107b293929190613044565b600060405180830381600087803b1580156107cc57600080fd5b505af11580156107e0573d6000803e3d6000fd5b505050506040518061018001604052808d6001600160a01b031681526020018c8152602001336001600160a01b031681526020018b6001600160a01b031681526020018a815260200189815260200188815260200187815260200160006001600160a01b031681526020018a815260200160006001600160a01b0316815260200160001515815250600860008e6001600160a01b03166001600160a01b0316815260200190815260200160002060008d815260200190815260200160002060008201518160000160006101000a8154816001600160a01b0302191690836001600160a01b031602179055506020820151816001015560408201518160020160006101000a8154816001600160a01b0302191690836001600160a01b0316021790555060608201518160030160006101000a8154816001600160a01b0302191690836001600160a01b031602179055506080820151816004015560a0820151816005015560c0820151816006015560e082015181600701556101008201518160080160006101000a8154816001600160a01b0302191690836001600160a01b03160217905550610120820151816009015561014082015181600a0160006101000a8154816001600160a01b0302191690836001600160a01b0316021790555061016082015181600a0160146101000a81548160ff021916908315150217905550905050336001600160a01b03168b8d6001600160a01b03167f15888491dd8f256e5e28ceaf57c0db6819ae0399cc259e9764887563223f7acd8d8d8d8d8d604051610a579594939291906001600160a01b03959095168552602085019390935260408401919091526060830152608082015260a00190565b60405180910390a4505050505050505050505050565b610a75612da5565b6001600160a01b038116610abb5760405162461bcd60e51b815260206004820152600d60248201526c34b73b30b634b2103a37b5b2b760991b604482015260640161058a565b6001600160a01b03811660009081526004602052604090205460ff1615610b1c5760405162461bcd60e51b815260206004820152601560248201527430b63932b0b23c903830bcb0b13632903a37b5b2b760591b604482015260640161058a565b6001600160a01b03166000818152600460205260408120805460ff191660019081179091556005805491820181559091527f036b6384b5eca791c62761152d0c79bb0604c104a5fb6f4eb0703f3154bb3db00180546001600160a01b0319169091179055565b610b8a612da5565b6001600160a01b038116610bd55760405162461bcd60e51b815260206004820152601260248201527163616e27742062652030206164647265737360701b604482015260640161058a565b600380546001600160a01b0319166001600160a01b0392909216919091179055565b816001600160a01b0381161580610c2657506001600160a01b03811660009081526004602052604090205460ff165b610c665760405162461bcd60e51b815260206004820152601160248201527034b73b30b634b2103830bc903a37b5b2b760791b604482015260640161058a565b6040516331a9108f60e11b815260048101859052859033906001600160a01b03831690636352211e9060240160206040518083038186803b158015610caa57600080fd5b505afa158015610cbe573d6000803e3d6000fd5b505050506040513d601f19601f82011682018060405250810190610ce29190612e6b565b6001600160a01b031614610d285760405162461bcd60e51b815260206004820152600d60248201526c3737ba1037333a1037bbb732b960991b604482015260640161058a565b6040516323b872dd60e01b81526001600160a01b038216906323b872dd90610d5890339030908a90600401613044565b600060405180830381600087803b158015610d7257600080fd5b505af1158015610d86573d6000803e3d6000fd5b505050506040518060c00160405280876001600160a01b03168152602001868152602001336001600160a01b03168152602001856001600160a01b031681526020018481526020016000151581525060066000886001600160a01b03166001600160a01b03168152602001908152602001600020600087815260200190815260200160002060008201518160000160006101000a8154816001600160a01b0302191690836001600160a01b031602179055506020820151816001015560408201518160020160006101000a8154816001600160a01b0302191690836001600160a01b0316021790555060608201518160030160006101000a8154816001600160a01b0302191690836001600160a01b031602179055506080820151816004015560a08201518160050160006101000a81548160ff021916908315150217905550905050336001600160a01b031685876001600160a01b03167fd3c529cf7f810e6effd6ee492c3c44aaaeaab46bb7b4d6d3f01d0aecf487f6b98787604051610f0f92919061302b565b60405180910390a4505050505050565b6001600160a01b03838116600090815260086020818152604080842087855282529283902083516101808101855281548616808252600183015493820193909352600282015486169481019490945260038101548516606085015260048101546080850152600581015460a0850152600681015460c0850152600781015460e08501529182015484166101008401526009820154610120840152600a90910154928316610140830152600160a01b90920460ff161515610160820152849184919015801590610ff15750806101600151155b61100d5760405162461bcd60e51b815260040161058a906130b5565b6001600160a01b03861660009081526008602090815260408083208884529091529020600601544210156110775760405162461bcd60e51b8152602060048201526011602482015270185d58dd1a5bdb881b9bdd081cdd185c9d607a1b604482015260640161058a565b6001600160a01b03861660009081526008602090815260408083208884529091529020600701544211156110dd5760405162461bcd60e51b815260206004820152600d60248201526c185d58dd1a5bdb88195b991959609a1b604482015260640161058a565b6001600160a01b0386166000908152600860209081526040808320888452909152902060058101546009909101546111159190613110565b8410156111645760405162461bcd60e51b815260206004820152601760248201527f6c657373207468616e206d696e20626964207072696365000000000000000000604482015260640161058a565b6001600160a01b03808716600090815260086020908152604080832089845290915290819020600381015491516323b872dd60e01b81529092919091169081906323b872dd906111bc90339030908b90600401613044565b602060405180830381600087803b1580156111d657600080fd5b505af11580156111ea573d6000803e3d6000fd5b505050506040513d601f19601f8201168201806040525081019061120e9190612fd2565b5060088201546001600160a01b0316156112b4576008820154600983015460405163a9059cbb60e01b81526001600160a01b039283169284169063a9059cbb9061125e908590859060040161302b565b602060405180830381600087803b15801561127857600080fd5b505af115801561128c573d6000803e3d6000fd5b505050506040513d601f19601f820116820180604052508101906112b09190612fd2565b5050505b6008820180546001600160a01b0319163390811790915560098301879055600383015460405189916001600160a01b038c8116927f1366a066e0b6138abe26f53c966c9de1cfc0f79f586100f5c785c9a5ea198905926113179216908c9061302b565b60405180910390a45050505050505050565b6001600160a01b03808316600090815260076020908152604080832085845282528083203380855290835292819020815160c08101835281548616815260018201549381019390935260028101548516918301919091526003810154909316606082015260048301546080820181905260059093015460ff16151560a0820152849284929190158015906113c9575060408101516001600160a01b031615155b6114085760405162461bcd60e51b815260206004820152601060248201526f1b9bdd081bd999995c9c9959081b999d60821b604482015260640161058a565b6001600160a01b03808716600090815260076020908152604080832089845282528083203380855290835292819020815160c08101835281548616815260018201549381019390935260028101548516918301829052600381015490941660608301526004840154608083015260059093015460ff16151560a082015291146114c15760405162461bcd60e51b815260206004820152600b60248201526a3737ba1037b33332b932b960a91b604482015260640161058a565b8060a001511561150c5760405162461bcd60e51b81526020600482015260166024820152751bd999995c88185b1c9958591e481858d8d95c1d195960521b604482015260640161058a565b6001600160a01b0380881660009081526007602090815260408083208a8452825280832033845290915280822080546001600160a01b0319908116825560018201849055600282018054821690556003820180549091169055600480820193909355600501805460ff191690556060840151848201516080860151925163a9059cbb60e01b8152919094169363a9059cbb936115aa9391920161302b565b602060405180830381600087803b1580156115c457600080fd5b505af11580156115d8573d6000803e3d6000fd5b505050506040513d601f19601f820116820180604052508101906115fc9190612fd2565b5060208101518151606083015160808401516040513394936001600160a01b0316927fefb35510217b7f826a226a55de4a753e6944118842f02b483169782e250c291c926116499261302b565b60405180910390a450505050505050565b606060058054806020026020016040519081016040528092919081815260200182805480156116b257602002820191906000526020600020905b81546001600160a01b03168152600190910190602001808311611694575b5050505050905090565b6001600160a01b03821660009081526008602090815260408083208484529091529020600a0154600160a01b900460ff161561172d5760405162461bcd60e51b815260206004820152601060248201526f185b1c9958591e481c995cdd5b1d195960821b604482015260640161058a565b6000546001600160a01b031633148061176d57506001600160a01b0382811660009081526008602090815260408083208584529091529020600201541633145b8061179e57506001600160a01b03828116600090815260086020818152604080842086855290915290912001541633145b6117ea5760405162461bcd60e51b815260206004820152601d60248201527f6e6f742063726561746f722c2077696e6e65722c206f72206f776e6572000000604482015260640161058a565b6001600160a01b038083166000908152600860209081526040808320858452909152812060038101548154600a8301805460028501546001600160a81b031990911690871617600160a01b1790556009830154929491821693911691908190611852826104fc565b60035460405163a9059cbb60e01b81529192506001600160a01b038088169263a9059cbb92611887921690859060040161302b565b602060405180830381600087803b1580156118a157600080fd5b505af11580156118b5573d6000803e3d6000fd5b505050506040513d601f19601f820116820180604052508101906118d99190612fd2565b5060028601546001600160a01b038087169163a9059cbb91166118fc8486613167565b6040518363ffffffff1660e01b815260040161191992919061302b565b602060405180830381600087803b15801561193357600080fd5b505af1158015611947573d6000803e3d6000fd5b505050506040513d601f19601f8201168201806040525081019061196b9190612fd2565b50600886015460018701546040516323b872dd60e01b81526001600160a01b03878116936323b872dd936119a793309390921691600401613044565b600060405180830381600087803b1580156119c157600080fd5b505af11580156119d5573d6000803e3d6000fd5b50505050600886015460028701546009880154604080516001600160a01b039384168152602081019290925233908201529181169189918b16907f69b9e47c169c6463a921b70743b7d6705d5ee0b376296ae9bf0b1a3678fb3f5d90606001611317565b611a41612da5565b611a4b6000612dff565b565b6001600160a01b03828116600090815260086020818152604080842086855282529283902083516101808101855281548616808252600183015493820193909352600282015486169481019490945260038101548516606085015260048101546080850152600581015460a0850152600681015460c0850152600781015460e08501529182015484166101008401526009820154610120840152600a90910154928316610140830152600160a01b90920460ff161515610160820152839183919015801590611b1f5750806101600151155b611b3b5760405162461bcd60e51b815260040161058a906130b5565b6001600160a01b0385811660009081526008602081815260408084208985528252928390208351610180810185528154861681526001820154928101929092526002810154851693820184905260038101548516606083015260048101546080830152600581015460a0830152600681015460c0830152600781015460e08301529182015484166101008201526009820154610120820152600a90910154928316610140820152600160a01b90920460ff1615156101608301523314611c395760405162461bcd60e51b81526020600482015260136024820152723737ba1030bab1ba34b7b71031b932b0ba37b960691b604482015260640161058a565b8060c001514210611c8c5760405162461bcd60e51b815260206004820152601760248201527f61756374696f6e20616c72656164792073746172746564000000000000000000604482015260640161058a565b6101008101516001600160a01b031615611cde5760405162461bcd60e51b815260206004820152601360248201527230b63932b0b23c903430bb32903134b23232b960691b604482015260640161058a565b6040516323b872dd60e01b815286906001600160a01b038216906323b872dd90611d1090309033908b90600401613044565b600060405180830381600087803b158015611d2a57600080fd5b505af1158015611d3e573d6000803e3d6000fd5b5050506001600160a01b03909716600090815260086020818152604080842099845298905296812080546001600160a01b031990811682556001820183905560028201805482169055600382018054821690556004820183905560058201839055600682018390556007820183905597810180549098169097556009870155505050600a90920180546001600160a81b0319169055505050565b6001600160a01b038085166000908152600660209081526040808320878452825291829020825160c08101845281548516815260018201549281019290925260028101548416928201839052600381015490931660608201526004830154608082015260059092015460ff16151560a08301528591859115801590611e5f57508060a00151155b611e7b5760405162461bcd60e51b815260040161058a906130ec565b60008411611ebd5760405162461bcd60e51b815260206004820152600f60248201526e070726963652063616e206e6f74203608c1b604482015260640161058a565b6001600160a01b0380881660009081526006602090815260408083208a8452825291829020825160c0810184528154851681526001820154928101929092526002810154841682840152600381015490931660608201819052600480850154608084015260059094015460ff16151560a083015291516323b872dd60e01b815290926323b872dd91611f5591339130918b9101613044565b602060405180830381600087803b158015611f6f57600080fd5b505af1158015611f83573d6000803e3d6000fd5b505050506040513d601f19601f82011682018060405250810190611fa79190612fd2565b506040518060c0016040528082600001516001600160a01b0316815260200182602001518152602001336001600160a01b03168152602001876001600160a01b0316815260200186815260200160001515815250600760008a6001600160a01b03166001600160a01b0316815260200190815260200160002060008981526020019081526020016000206000336001600160a01b03166001600160a01b0316815260200190815260200160002060008201518160000160006101000a8154816001600160a01b0302191690836001600160a01b031602179055506020820151816001015560408201518160020160006101000a8154816001600160a01b0302191690836001600160a01b0316021790555060608201518160030160006101000a8154816001600160a01b0302191690836001600160a01b031602179055506080820151816004015560a08201518160050160006101000a81548160ff021916908315150217905550905050336001600160a01b0316816020015182600001516001600160a01b03167f68440885b8f55b92e46c64e6e8e8e58f2cdfeb729aef39fae95e9ac07557212984606001518960405161131792919061302b565b6001600160a01b038083166000908152600660209081526040808320858452825291829020825160c08101845281548516815260018201549281019290925260028101548416928201839052600381015490931660608201526004830154608082015260059092015460ff16151560a083015283918391158015906121eb57508060a00151155b6122075760405162461bcd60e51b815260040161058a906130ec565b6001600160a01b03851660009081526006602090815260408083208784529091529020600581015460ff16156122725760405162461bcd60e51b815260206004820152601060248201526f1b999d08185b1c9958591e481cdbdb1960821b604482015260640161058a565b60058101805460ff1916600117905560048101546000612291826104fc565b60038401549091506001600160a01b031661237e5782600401543410156122fa5760405162461bcd60e51b815260206004820152601860248201527f6275794974656d3a20696e636f72726563742070726963650000000000000000604482015260640161058a565b6003546040516001600160a01b039091169082156108fc029083906000818181858888f19350505050158015612334573d6000803e3d6000fd5b5060028301546001600160a01b03166108fc6123508385613167565b6040518115909202916000818181858888f19350505050158015612378573d6000803e3d6000fd5b506124a7565b60038381015490546040516323b872dd60e01b81526001600160a01b03928316926323b872dd926123b9923392909116908690600401613044565b602060405180830381600087803b1580156123d357600080fd5b505af11580156123e7573d6000803e3d6000fd5b505050506040513d601f19601f8201168201806040525081019061240b9190612fd2565b50600383015460028401546001600160a01b03918216916323b872dd913391166124358587613167565b6040518463ffffffff1660e01b815260040161245393929190613044565b602060405180830381600087803b15801561246d57600080fd5b505af1158015612481573d6000803e3d6000fd5b505050506040513d601f19601f820116820180604052508101906124a59190612fd2565b505b82546001840154604051632142170760e11b81526001600160a01b03909216916342842e0e916124dd9130913391600401613044565b600060405180830381600087803b1580156124f757600080fd5b505af115801561250b573d6000803e3d6000fd5b5050505060018301548354600385015460048601546002870154604080516001600160a01b03948516815260208101939093529083169082015233939291909116907f72136ea02664c7ef94168318a5622b2f8cc9e3a3f2bfd6fbdff378aa303e4beb90606001611317565b61257f612da5565b6127108111156125d15760405162461bcd60e51b815260206004820152601a60248201527f63616e2774206d6f7265207468616e2031302070657263656e74000000000000604482015260640161058a565b600255565b60006127106125e58484613148565b6125ef9190613128565b9392505050565b6001600160a01b038083166000908152600660209081526040808320858452825291829020825160c08101845281548516815260018201549281019290925260028101548416928201839052600381015490931660608201526004830154608082015260059092015460ff16151560a0830152839183911580159061267d57508060a00151155b6126995760405162461bcd60e51b815260040161058a906130ec565b6001600160a01b038086166000908152600660209081526040808320888452825291829020825160c08101845281548516815260018201549281019290925260028101548416928201839052600381015490931660608201526004830154608082015260059092015460ff16151560a0830152331461274d5760405162461bcd60e51b815260206004820152601060248201526f3737ba103634b9ba32b21037bbb732b960811b604482015260640161058a565b6040516323b872dd60e01b81526001600160a01b038716906323b872dd9061277d90309033908a90600401613044565b600060405180830381600087803b15801561279757600080fd5b505af11580156127ab573d6000803e3d6000fd5b505050506001600160a01b0395909516600090815260066020908152604080832096835295905293842080546001600160a01b03199081168255600182018690556002820180548216905560038201805490911690556004810194909455505050600501805460ff1916905550565b6001600160a01b03808416600090815260076020908152604080832086845282528083208486168452825291829020825160c08101845281548516815260018201549281019290925260028101548416928201929092526003820154909216606083015260048101546080830181905260059091015460ff16151560a083015284918491849190158015906128bb575060408101516001600160a01b031615155b6128fa5760405162461bcd60e51b815260206004820152601060248201526f1b9bdd081bd999995c9c9959081b999d60821b604482015260640161058a565b6001600160a01b0380881660009081526006602090815260408083208a8452825291829020825160c08101845281548516815260018201549281019290925260028101548416928201839052600381015490931660608201526004830154608082015260059092015460ff16151560a0830152889188911580159061298157508060a00151155b61299d5760405162461bcd60e51b815260040161058a906130ec565b6001600160a01b038a811660009081526006602090815260408083208d8452909152902060020154163314612a075760405162461bcd60e51b815260206004820152601060248201526f3737ba103634b9ba32b21037bbb732b960811b604482015260640161058a565b6001600160a01b03808b1660009081526007602090815260408083208d845282528083208c8516845282528083208054909416835260068252808320600185015484529091529020600581015460ff1615612a935760405162461bcd60e51b815260206004820152600c60248201526b185b1c9958591e481cdbdb1960a21b604482015260640161058a565b600582015460ff1615612ae15760405162461bcd60e51b81526020600482015260166024820152751bd999995c88185b1c9958591e481858d8d95c1d195960521b604482015260640161058a565b60058181018054600160ff19918216811790925591840180549092161790556004820154600383015481906001600160a01b03166000612b20836104fc565b60035460405163a9059cbb60e01b81529192506001600160a01b038085169263a9059cbb92612b55921690859060040161302b565b602060405180830381600087803b158015612b6f57600080fd5b505af1158015612b83573d6000803e3d6000fd5b505050506040513d601f19601f82011682018060405250810190612ba79190612fd2565b5060028501546001600160a01b038084169163a9059cbb9116612bca8487613167565b6040518363ffffffff1660e01b8152600401612be792919061302b565b602060405180830381600087803b158015612c0157600080fd5b505af1158015612c15573d6000803e3d6000fd5b505050506040513d601f19601f82011682018060405250810190612c399190612fd2565b50845460028701546001870154604051632142170760e11b81526001600160a01b03938416936342842e0e93612c789330939290911691600401613044565b600060405180830381600087803b158015612c9257600080fd5b505af1158015612ca6573d6000803e3d6000fd5b505050506002858101546001880154885460038a015460048b0154948b0154604080516001600160a01b03938416815260208101979097529082169086015292831693919216907f9e4a193680f4538a4b29d70aa5b240ca9068a1d971f7932be2c8b92e6c4b31ce9060600160405180910390a450505050505050505050505050505050565b612d34612da5565b6001600160a01b038116612d995760405162461bcd60e51b815260206004820152602660248201527f4f776e61626c653a206e6577206f776e657220697320746865207a65726f206160448201526564647265737360d01b606482015260840161058a565b612da281612dff565b50565b6000546001600160a01b03163314611a4b5760405162461bcd60e51b815260206004820181905260248201527f4f776e61626c653a2063616c6c6572206973206e6f7420746865206f776e6572604482015260640161058a565b600080546001600160a01b038381166001600160a01b0319831681178455604051919092169283917f8be0079c531659141344cd1fd0a4f28419497f9722a3daafe3b4186f6b6457e09190a35050565b600060208284031215612e60578081fd5b81356125ef81613194565b600060208284031215612e7c578081fd5b81516125ef81613194565b60008060408385031215612e99578081fd5b8235612ea481613194565b946020939093013593505050565b600080600060608486031215612ec6578081fd5b8335612ed181613194565b9250602084013591506040840135612ee881613194565b809150509250925092565b60008060008060808587031215612f08578081fd5b8435612f1381613194565b9350602085013592506040850135612f2a81613194565b9396929550929360600135925050565b600080600080600080600060e0888a031215612f54578283fd5b8735612f5f81613194565b9650602088013595506040880135612f7681613194565b969995985095966060810135965060808101359560a0820135955060c0909101359350915050565b600080600060608486031215612fb2578283fd5b8335612fbd81613194565b95602085013595506040909401359392505050565b600060208284031215612fe3578081fd5b815180151581146125ef578182fd5b600060208284031215613003578081fd5b5035919050565b6000806040838503121561301c578182fd5b50508035926020909101359150565b6001600160a01b03929092168252602082015260400190565b6001600160a01b039384168152919092166020820152604081019190915260600190565b6020808252825182820181905260009190848201906040850190845b818110156130a95783516001600160a01b031683529284019291840191600101613084565b50909695505050505050565b60208082526017908201527f61756374696f6e20616c72656164792063726561746564000000000000000000604082015260600190565b6020808252600a90820152691b9bdd081b1a5cdd195960b21b604082015260600190565b600082198211156131235761312361317e565b500190565b60008261314357634e487b7160e01b81526012600452602481fd5b500490565b60008160001904831182151516156131625761316261317e565b500290565b6000828210156131795761317961317e565b500390565b634e487b7160e01b600052601160045260246000fd5b6001600160a01b0381168114612da257600080fdfea26469706673582212208d80addd63f53845c2439b95507f3b236cbde1c4255a92190860d7a3732d1b5864736f6c63430008040033",
  "linkReferences": {},
  "deployedLinkReferences": {}
}