{
  "_format": "hh-sol-artifact-1",
  "contractName": "NFTMarketplace",
  "sourceName": "contracts/NFTMarketplace.sol",
  "abi": [
    {
      "inputs": [
        {
          "internalType": "address",
          "name": "_feeRecipient",
          "type": "address"
        },
        {
          "internalType": "uint256",
          "name": "_platformFee",
          "type": "uint256"
        }
      ],
      "stateMutability": "nonpayable",
      "type": "constructor"
    },
    {
      "anonymous": false,
      "inputs": [
        {
          "indexed": true,
          "internalType": "address",
          "name": "nft",
          "type": "address"
        },
        {
          "indexed": true,
          "internalType": "uint256",
          "name": "tokenId",
          "type": "uint256"
        },
        {
          "indexed": false,
          "internalType": "address",
          "name": "payToken",
          "type": "address"
        },
        {
          "indexed": false,
          "internalType": "uint256",
          "name": "offerPrice",
          "type": "uint256"
        },
        {
          "indexed": false,
          "internalType": "address",
          "name": "offerer",
          "type": "address"
        },
        {
          "indexed": true,
          "internalType": "address",
          "name": "nftOwner",
          "type": "address"
        }
      ],
      "name": "AcceptedNFT",
      "type": "event"
    },
    {
      "anonymous": false,
      "inputs": [
        {
          "indexed": true,
          "internalType": "address",
          "name": "nft",
          "type": "address"
        },
        {
          "indexed": true,
          "internalType": "uint256",
          "name": "tokenId",
          "type": "uint256"
        },
        {
          "indexed": false,
          "internalType": "address",
          "name": "payToken",
          "type": "address"
        },
        {
          "indexed": false,
          "internalType": "uint256",
          "name": "price",
          "type": "uint256"
        },
        {
          "indexed": false,
          "internalType": "address",
          "name": "seller",
          "type": "address"
        },
        {
          "indexed": true,
          "internalType": "address",
          "name": "buyer",
          "type": "address"
        }
      ],
      "name": "BoughtNFT",
      "type": "event"
    },
    {
      "anonymous": false,
      "inputs": [
        {
          "indexed": true,
          "internalType": "address",
          "name": "nft",
          "type": "address"
        },
        {
          "indexed": true,
          "internalType": "uint256",
          "name": "tokenId",
          "type": "uint256"
        },
        {
          "indexed": false,
          "internalType": "address",
          "name": "payToken",
          "type": "address"
        },
        {
          "indexed": false,
          "internalType": "uint256",
          "name": "offerPrice",
          "type": "uint256"
        },
        {
          "indexed": true,
          "internalType": "address",
          "name": "offerer",
          "type": "address"
        }
      ],
      "name": "CanceledOfferredNFT",
      "type": "event"
    },
    {
      "anonymous": false,
      "inputs": [
        {
          "indexed": true,
          "internalType": "address",
          "name": "nft",
          "type": "address"
        },
        {
          "indexed": true,
          "internalType": "uint256",
          "name": "tokenId",
          "type": "uint256"
        },
        {
          "indexed": false,
          "internalType": "address",
          "name": "payToken",
          "type": "address"
        },
        {
          "indexed": false,
          "internalType": "uint256",
          "name": "price",
          "type": "uint256"
        },
        {
          "indexed": false,
          "internalType": "uint256",
          "name": "minBid",
          "type": "uint256"
        },
        {
          "indexed": false,
          "internalType": "uint256",
          "name": "startTime",
          "type": "uint256"
        },
        {
          "indexed": false,
          "internalType": "uint256",
          "name": "endTime",
          "type": "uint256"
        },
        {
          "indexed": true,
          "internalType": "address",
          "name": "creator",
          "type": "address"
        }
      ],
      "name": "CreatedAuction",
      "type": "event"
    },
    {
      "anonymous": false,
      "inputs": [
        {
          "indexed": true,
          "internalType": "address",
          "name": "nft",
          "type": "address"
        },
        {
          "indexed": true,
          "internalType": "uint256",
          "name": "tokenId",
          "type": "uint256"
        },
        {
          "indexed": false,
          "internalType": "address",
          "name": "payToken",
          "type": "address"
        },
        {
          "indexed": false,
          "internalType": "uint256",
          "name": "price",
          "type": "uint256"
        },
        {
          "indexed": true,
          "internalType": "address",
          "name": "seller",
          "type": "address"
        }
      ],
      "name": "ListedNFT",
      "type": "event"
    },
    {
      "anonymous": false,
      "inputs": [
        {
          "indexed": true,
          "internalType": "address",
          "name": "nft",
          "type": "address"
        },
        {
          "indexed": true,
          "internalType": "uint256",
          "name": "tokenId",
          "type": "uint256"
        },
        {
          "indexed": false,
          "internalType": "address",
          "name": "payToken",
          "type": "address"
        },
        {
          "indexed": false,
          "internalType": "uint256",
          "name": "offerPrice",
          "type": "uint256"
        },
        {
          "indexed": true,
          "internalType": "address",
          "name": "offerer",
          "type": "address"
        }
      ],
      "name": "OfferredNFT",
      "type": "event"
    },
    {
      "anonymous": false,
      "inputs": [
        {
          "indexed": true,
          "internalType": "address",
          "name": "previousOwner",
          "type": "address"
        },
        {
          "indexed": true,
          "internalType": "address",
          "name": "newOwner",
          "type": "address"
        }
      ],
      "name": "OwnershipTransferred",
      "type": "event"
    },
    {
      "anonymous": false,
      "inputs": [
        {
          "indexed": true,
          "internalType": "address",
          "name": "nft",
          "type": "address"
        },
        {
          "indexed": true,
          "internalType": "uint256",
          "name": "tokenId",
          "type": "uint256"
        },
        {
          "indexed": false,
          "internalType": "address",
          "name": "payToken",
          "type": "address"
        },
        {
          "indexed": false,
          "internalType": "uint256",
          "name": "bidPrice",
          "type": "uint256"
        },
        {
          "indexed": true,
          "internalType": "address",
          "name": "bidder",
          "type": "address"
        }
      ],
      "name": "PlacedBid",
      "type": "event"
    },
    {
      "anonymous": false,
      "inputs": [
        {
          "indexed": true,
          "internalType": "address",
          "name": "nft",
          "type": "address"
        },
        {
          "indexed": true,
          "internalType": "uint256",
          "name": "tokenId",
          "type": "uint256"
        },
        {
          "indexed": false,
          "internalType": "address",
          "name": "creator",
          "type": "address"
        },
        {
          "indexed": true,
          "internalType": "address",
          "name": "winner",
          "type": "address"
        },
        {
          "indexed": false,
          "internalType": "uint256",
          "name": "price",
          "type": "uint256"
        },
        {
          "indexed": false,
          "internalType": "address",
          "name": "caller",
          "type": "address"
        }
      ],
      "name": "ResultedAuction",
      "type": "event"
    },
    {
      "inputs": [
        {
          "internalType": "address",
          "name": "_nft",
          "type": "address"
        },
        {
          "internalType": "uint256",
          "name": "_tokenId",
          "type": "uint256"
        },
        {
          "internalType": "address",
          "name": "_offerer",
          "type": "address"
        }
      ],
      "name": "acceptOfferNFT",
      "outputs": [],
      "stateMutability": "nonpayable",
      "type": "function"
    },
    {
      "inputs": [
        {
          "internalType": "address",
          "name": "_token",
          "type": "address"
        }
      ],
      "name": "addPayableToken",
      "outputs": [],
      "stateMutability": "nonpayable",
      "type": "function"
    },
    {
      "inputs": [
        {
          "internalType": "address",
          "name": "_nft",
          "type": "address"
        },
        {
          "internalType": "uint256",
          "name": "_tokenId",
          "type": "uint256"
        },
        {
          "internalType": "uint256",
          "name": "_bidPrice",
          "type": "uint256"
        }
      ],
      "name": "bidAuction",
      "outputs": [],
      "stateMutability": "nonpayable",
      "type": "function"
    },
    {
      "inputs": [
        {
          "internalType": "address",
          "name": "_nft",
          "type": "address"
        },
        {
          "internalType": "uint256",
          "name": "_tokenId",
          "type": "uint256"
        },
        {
          "internalType": "address",
          "name": "_payToken",
          "type": "address"
        }
      ],
      "name": "buyItem",
      "outputs": [],
      "stateMutability": "nonpayable",
      "type": "function"
    },
    {
      "inputs": [
        {
          "internalType": "uint256",
          "name": "_price",
          "type": "uint256"
        }
      ],
      "name": "calculatePlatformFee",
      "outputs": [
        {
          "internalType": "uint256",
          "name": "",
          "type": "uint256"
        }
      ],
      "stateMutability": "view",
      "type": "function"
    },
    {
      "inputs": [
        {
          "internalType": "uint256",
          "name": "_royalty",
          "type": "uint256"
        },
        {
          "internalType": "uint256",
          "name": "_price",
          "type": "uint256"
        }
      ],
      "name": "calculateRoyalty",
      "outputs": [
        {
          "internalType": "uint256",
          "name": "",
          "type": "uint256"
        }
      ],
      "stateMutability": "pure",
      "type": "function"
    },
    {
      "inputs": [
        {
          "internalType": "address",
          "name": "_nft",
          "type": "address"
        },
        {
          "internalType": "uint256",
          "name": "_tokenId",
          "type": "uint256"
        }
      ],
      "name": "cancelAuction",
      "outputs": [],
      "stateMutability": "nonpayable",
      "type": "function"
    },
    {
      "inputs": [
        {
          "internalType": "address",
          "name": "_nft",
          "type": "address"
        },
        {
          "internalType": "uint256",
          "name": "_tokenId",
          "type": "uint256"
        }
      ],
      "name": "cancelListedItem",
      "outputs": [],
      "stateMutability": "nonpayable",
      "type": "function"
    },
    {
      "inputs": [
        {
          "internalType": "address",
          "name": "_nft",
          "type": "address"
        },
        {
          "internalType": "uint256",
          "name": "_tokenId",
          "type": "uint256"
        }
      ],
      "name": "cancelOfferNFT",
      "outputs": [],
      "stateMutability": "nonpayable",
      "type": "function"
    },
    {
      "inputs": [
        {
          "internalType": "address",
          "name": "_feeRecipient",
          "type": "address"
        }
      ],
      "name": "changeFeeRecipient",
      "outputs": [],
      "stateMutability": "nonpayable",
      "type": "function"
    },
    {
      "inputs": [
        {
          "internalType": "address",
          "name": "_payableToken",
          "type": "address"
        }
      ],
      "name": "checkIsPayableToken",
      "outputs": [
        {
          "internalType": "bool",
          "name": "",
          "type": "bool"
        }
      ],
      "stateMutability": "view",
      "type": "function"
    },
    {
      "inputs": [
        {
          "internalType": "address",
          "name": "_nft",
          "type": "address"
        },
        {
          "internalType": "uint256",
          "name": "_tokenId",
          "type": "uint256"
        },
        {
          "internalType": "address",
          "name": "_payToken",
          "type": "address"
        },
        {
          "internalType": "uint256",
          "name": "_price",
          "type": "uint256"
        },
        {
          "internalType": "uint256",
          "name": "_minBid",
          "type": "uint256"
        },
        {
          "internalType": "uint256",
          "name": "_startTime",
          "type": "uint256"
        },
        {
          "internalType": "uint256",
          "name": "_endTime",
          "type": "uint256"
        }
      ],
      "name": "createAuction",
      "outputs": [],
      "stateMutability": "nonpayable",
      "type": "function"
    },
    {
      "inputs": [
        {
          "internalType": "address",
          "name": "_nft",
          "type": "address"
        },
        {
          "internalType": "uint256",
          "name": "_tokenId",
          "type": "uint256"
        }
      ],
      "name": "getListedItem",
      "outputs": [
        {
          "components": [
            {
              "internalType": "address",
              "name": "nft",
              "type": "address"
            },
            {
              "internalType": "uint256",
              "name": "tokenId",
              "type": "uint256"
            },
            {
              "internalType": "address",
              "name": "seller",
              "type": "address"
            },
            {
              "internalType": "address",
              "name": "payToken",
              "type": "address"
            },
            {
              "internalType": "uint256",
              "name": "price",
              "type": "uint256"
            },
            {
              "internalType": "bool",
              "name": "sold",
              "type": "bool"
            }
          ],
          "internalType": "struct NFTMarketplace.ListNFT",
          "name": "",
          "type": "tuple"
        }
      ],
      "stateMutability": "view",
      "type": "function"
    },
    {
      "inputs": [],
      "name": "getPayableTokens",
      "outputs": [
        {
          "internalType": "address[]",
          "name": "",
          "type": "address[]"
        }
      ],
      "stateMutability": "view",
      "type": "function"
    },
    {
      "inputs": [
        {
          "internalType": "address",
          "name": "_nft",
          "type": "address"
        },
        {
          "internalType": "uint256",
          "name": "_tokenId",
          "type": "uint256"
        },
        {
          "internalType": "address",
          "name": "_payToken",
          "type": "address"
        },
        {
          "internalType": "uint256",
          "name": "_price",
          "type": "uint256"
        }
      ],
      "name": "listItem",
      "outputs": [],
      "stateMutability": "nonpayable",
      "type": "function"
    },
    {
      "inputs": [
        {
          "internalType": "address",
          "name": "_nft",
          "type": "address"
        },
        {
          "internalType": "uint256",
          "name": "_tokenId",
          "type": "uint256"
        },
        {
          "internalType": "address",
          "name": "_payToken",
          "type": "address"
        },
        {
          "internalType": "uint256",
          "name": "_offerPrice",
          "type": "uint256"
        }
      ],
      "name": "offerNFT",
      "outputs": [],
      "stateMutability": "nonpayable",
      "type": "function"
    },
    {
      "inputs": [],
      "name": "owner",
      "outputs": [
        {
          "internalType": "address",
          "name": "",
          "type": "address"
        }
      ],
      "stateMutability": "view",
      "type": "function"
    },
    {
      "inputs": [],
      "name": "renounceOwnership",
      "outputs": [],
      "stateMutability": "nonpayable",
      "type": "function"
    },
    {
      "inputs": [
        {
          "internalType": "address",
          "name": "_nft",
          "type": "address"
        },
        {
          "internalType": "uint256",
          "name": "_tokenId",
          "type": "uint256"
        }
      ],
      "name": "resultAuction",
      "outputs": [],
      "stateMutability": "nonpayable",
      "type": "function"
    },
    {
      "inputs": [
        {
          "internalType": "address",
          "name": "newOwner",
          "type": "address"
        }
      ],
      "name": "transferOwnership",
      "outputs": [],
      "stateMutability": "nonpayable",
      "type": "function"
    },
    {
      "inputs": [
        {
          "internalType": "uint256",
          "name": "_platformFee",
          "type": "uint256"
        }
      ],
      "name": "updatePlatformFee",
      "outputs": [],
      "stateMutability": "nonpayable",
      "type": "function"
    }
  ],
  "bytecode": "0x60806040523480156200001157600080fd5b506040516200334538038062003345833981016040819052620000349162000114565b6200003f33620000c4565b600180556127108111156200009a5760405162461bcd60e51b815260206004820152601a60248201527f63616e2774206d6f7265207468616e2031302070657263656e74000000000000604482015260640160405180910390fd5b600380546001600160a01b0319166001600160a01b0393909316929092179091556002556200014e565b600080546001600160a01b038381166001600160a01b0319831681178455604051919092169283917f8be0079c531659141344cd1fd0a4f28419497f9722a3daafe3b4186f6b6457e09190a35050565b6000806040838503121562000127578182fd5b82516001600160a01b03811681146200013e578283fd5b6020939093015192949293505050565b6131e7806200015e6000396000f3fe608060405234801561001057600080fd5b50600436106101375760003560e01c80635f7063ef116100b85780639d8f4f551161007c5780639d8f4f551461036a578063aa0b5988146103a6578063b0708a35146103b9578063ea7e728d146103cc578063eb95711b146103df578063f2fde38b146103f257600080fd5b80635f7063ef1461030e578063715018a614610321578063859b97fe146103295780638da5cb5b1461033c578063981b836c1461035757600080fd5b80633535db22116100ff5780633535db22146101b057806338a7cab5146101c357806338af40d6146101d657806346f5ab31146102e65780635b5b3314146102f957600080fd5b80630cbab4f71461013c578063122b0645146101625780631320138514610177578063236040711461018a578063259ca3651461019d575b600080fd5b61014f61014a366004612fb7565b610405565b6040519081526020015b60405180910390f35b610175610170366004612eff565b610428565b005b610175610185366004612e14565b610958565b610175610198366004612e14565b610a6d565b6101756101ab366004612e77565b610ae2565b6101756101be366004612eb8565b610e52565b6101756101d1366004612f63565b611158565b61028d6101e4366004612e4c565b6040805160c081018252600080825260208201819052918101829052606081018290526080810182905260a0810191909152506001600160a01b03918216600090815260066020908152604080832093835292815290829020825160c081018452815485168152600182015492810192909252600281015484169282019290925260038201549092166060830152600481015460808301526005015460ff16151560a082015290565b604051610159919081516001600160a01b03908116825260208084015190830152604080840151821690830152606080840151909116908201526080808301519082015260a09182015115159181019190915260c00190565b6101756102f4366004612e4c565b611562565b610301611893565b6040516101599190613045565b61017561031c366004612e4c565b6118f5565b610175611c72565b610175610337366004612e4c565b611c86565b6000546040516001600160a01b039091168152602001610159565b610175610365366004612eb8565b612011565b610396610378366004612e14565b6001600160a01b031660009081526004602052604090205460ff1690565b6040519015158152602001610159565b6101756103b4366004612fb7565b61239d565b61014f6103c7366004612fe7565b6123fc565b6101756103da366004612e4c565b61241c565b6101756103ed366004612e77565b612640565b610175610400366004612e14565b612cf1565b6000612710600254836104189190613150565b6104229190613130565b92915050565b846001600160a01b0381161580159061045957506001600160a01b03811660009081526004602052604090205460ff165b61047e5760405162461bcd60e51b8152600401610475906130ed565b60405180910390fd5b6001600160a01b0388811660009081526008602081815260408084208c855282529283902083516101808101855281548616808252600183015493820193909352600282015486169481019490945260038101548516606085015260048101546080850152600581015460a0850152600681015460c0850152600781015460e08501529182015484166101008401526009820154610120840152600a90910154928316610140830152600160a01b90920460ff1615156101608201528991899190158061054d57508061016001515b6105695760405162461bcd60e51b815260040161047590613092565b6040516331a9108f60e11b8152600481018b90528b9033906001600160a01b03831690636352211e9060240160206040518083038186803b1580156105ad57600080fd5b505afa1580156105c1573d6000803e3d6000fd5b505050506040513d601f19601f820116820180604052508101906105e59190612e30565b6001600160a01b03161461062b5760405162461bcd60e51b815260206004820152600d60248201526c3737ba1037333a1037bbb732b960991b6044820152606401610475565b86861161066d5760405162461bcd60e51b815260206004820152601060248201526f696e76616c696420656e642074696d6560801b6044820152606401610475565b806001600160a01b03166323b872dd33308e6040518463ffffffff1660e01b815260040161069d93929190613008565b600060405180830381600087803b1580156106b757600080fd5b505af11580156106cb573d6000803e3d6000fd5b505050506040518061018001604052808d6001600160a01b031681526020018c8152602001336001600160a01b031681526020018b6001600160a01b031681526020018a815260200189815260200188815260200187815260200160006001600160a01b031681526020018a815260200160006001600160a01b0316815260200160001515815250600860008e6001600160a01b03166001600160a01b0316815260200190815260200160002060008d815260200190815260200160002060008201518160000160006101000a8154816001600160a01b0302191690836001600160a01b031602179055506020820151816001015560408201518160020160006101000a8154816001600160a01b0302191690836001600160a01b0316021790555060608201518160030160006101000a8154816001600160a01b0302191690836001600160a01b031602179055506080820151816004015560a0820151816005015560c0820151816006015560e082015181600701556101008201518160080160006101000a8154816001600160a01b0302191690836001600160a01b03160217905550610120820151816009015561014082015181600a0160006101000a8154816001600160a01b0302191690836001600160a01b0316021790555061016082015181600a0160146101000a81548160ff021916908315150217905550905050336001600160a01b03168b8d6001600160a01b03167f15888491dd8f256e5e28ceaf57c0db6819ae0399cc259e9764887563223f7acd8d8d8d8d8d6040516109429594939291906001600160a01b03959095168552602085019390935260408401919091526060830152608082015260a00190565b60405180910390a4505050505050505050505050565b610960612d6a565b6001600160a01b0381166109a65760405162461bcd60e51b815260206004820152600d60248201526c34b73b30b634b2103a37b5b2b760991b6044820152606401610475565b6001600160a01b03811660009081526004602052604090205460ff1615610a075760405162461bcd60e51b815260206004820152601560248201527430b63932b0b23c903830bcb0b13632903a37b5b2b760591b6044820152606401610475565b6001600160a01b03166000818152600460205260408120805460ff191660019081179091556005805491820181559091527f036b6384b5eca791c62761152d0c79bb0604c104a5fb6f4eb0703f3154bb3db00180546001600160a01b0319169091179055565b610a75612d6a565b6001600160a01b038116610ac05760405162461bcd60e51b815260206004820152601260248201527163616e27742062652030206164647265737360701b6044820152606401610475565b600380546001600160a01b0319166001600160a01b0392909216919091179055565b6001600160a01b038084166000908152600660209081526040808320868452825291829020825160c08101845281548516815260018201549281019290925260028101548416928201839052600381015490931660608201526004830154608082015260059092015460ff16151560a08301528491849115801590610b6957508060a00151155b610b855760405162461bcd60e51b8152600401610475906130c9565b6001600160a01b038087166000908152600660209081526040808320898452909152902090851615801590610bc9575060038101546001600160a01b038681169116145b610be55760405162461bcd60e51b8152600401610475906130ed565b600581015460ff1615610c2d5760405162461bcd60e51b815260206004820152601060248201526f1b999d08185b1c9958591e481cdbdb1960821b6044820152606401610475565b60058101805460ff1916600117905560048101546000610c4c82610405565b60038085015490546040516323b872dd60e01b81529293506001600160a01b03918216926323b872dd92610c899233929116908690600401613008565b602060405180830381600087803b158015610ca357600080fd5b505af1158015610cb7573d6000803e3d6000fd5b505050506040513d601f19601f82011682018060405250810190610cdb9190612f97565b50600383015460028401546001600160a01b03918216916323b872dd91339116610d05858761316f565b6040518463ffffffff1660e01b8152600401610d2393929190613008565b602060405180830381600087803b158015610d3d57600080fd5b505af1158015610d51573d6000803e3d6000fd5b505050506040513d601f19601f82011682018060405250810190610d759190612f97565b5082546001840154604051632142170760e11b81526001600160a01b03909216916342842e0e91610dac9130913391600401613008565b600060405180830381600087803b158015610dc657600080fd5b505af1158015610dda573d6000803e3d6000fd5b5050505060018301548354600385015460048601546002870154604080516001600160a01b0394851681526020810193909352908316828201525133949392909216917f72136ea02664c7ef94168318a5622b2f8cc9e3a3f2bfd6fbdff378aa303e4beb9181900360600190a4505050505050505050565b816001600160a01b03811615801590610e8357506001600160a01b03811660009081526004602052604090205460ff165b610e9f5760405162461bcd60e51b8152600401610475906130ed565b6040516331a9108f60e11b815260048101859052859033906001600160a01b03831690636352211e9060240160206040518083038186803b158015610ee357600080fd5b505afa158015610ef7573d6000803e3d6000fd5b505050506040513d601f19601f82011682018060405250810190610f1b9190612e30565b6001600160a01b031614610f615760405162461bcd60e51b815260206004820152600d60248201526c3737ba1037333a1037bbb732b960991b6044820152606401610475565b6040516323b872dd60e01b81526001600160a01b038216906323b872dd90610f9190339030908a90600401613008565b600060405180830381600087803b158015610fab57600080fd5b505af1158015610fbf573d6000803e3d6000fd5b505050506040518060c00160405280876001600160a01b03168152602001868152602001336001600160a01b03168152602001856001600160a01b031681526020018481526020016000151581525060066000886001600160a01b03166001600160a01b03168152602001908152602001600020600087815260200190815260200160002060008201518160000160006101000a8154816001600160a01b0302191690836001600160a01b031602179055506020820151816001015560408201518160020160006101000a8154816001600160a01b0302191690836001600160a01b0316021790555060608201518160030160006101000a8154816001600160a01b0302191690836001600160a01b031602179055506080820151816004015560a08201518160050160006101000a81548160ff021916908315150217905550905050336001600160a01b031685876001600160a01b03167fd3c529cf7f810e6effd6ee492c3c44aaaeaab46bb7b4d6d3f01d0aecf487f6b9878760405161114892919061302c565b60405180910390a4505050505050565b6001600160a01b03838116600090815260086020818152604080842087855282529283902083516101808101855281548616808252600183015493820193909352600282015486169481019490945260038101548516606085015260048101546080850152600581015460a0850152600681015460c0850152600781015460e08501529182015484166101008401526009820154610120840152600a90910154928316610140830152600160a01b90920460ff16151561016082015284918491901580159061122a5750806101600151155b6112465760405162461bcd60e51b815260040161047590613092565b6001600160a01b03861660009081526008602090815260408083208884529091529020600601544210156112b05760405162461bcd60e51b8152602060048201526011602482015270185d58dd1a5bdb881b9bdd081cdd185c9d607a1b6044820152606401610475565b6001600160a01b03861660009081526008602090815260408083208884529091529020600701544211156113165760405162461bcd60e51b815260206004820152600d60248201526c185d58dd1a5bdb88195b991959609a1b6044820152606401610475565b6001600160a01b03861660009081526008602090815260408083208884529091529020600581015460099091015461134e9190613118565b84101561139d5760405162461bcd60e51b815260206004820152601760248201527f6c657373207468616e206d696e206269642070726963650000000000000000006044820152606401610475565b6001600160a01b03808716600090815260086020908152604080832089845290915290819020600381015491516323b872dd60e01b81529092919091169081906323b872dd906113f590339030908b90600401613008565b602060405180830381600087803b15801561140f57600080fd5b505af1158015611423573d6000803e3d6000fd5b505050506040513d601f19601f820116820180604052508101906114479190612f97565b5060088201546001600160a01b0316156114ed576008820154600983015460405163a9059cbb60e01b81526001600160a01b039283169284169063a9059cbb90611497908590859060040161302c565b602060405180830381600087803b1580156114b157600080fd5b505af11580156114c5573d6000803e3d6000fd5b505050506040513d601f19601f820116820180604052508101906114e99190612f97565b5050505b6008820180546001600160a01b0319163390811790915560098301879055600383015460405189916001600160a01b038c8116927f1366a066e0b6138abe26f53c966c9de1cfc0f79f586100f5c785c9a5ea198905926115509216908c9061302c565b60405180910390a45050505050505050565b6001600160a01b03808316600090815260076020908152604080832085845282528083203380855290835292819020815160c08101835281548616815260018201549381019390935260028101548516918301919091526003810154909316606082015260048301546080820181905260059093015460ff16151560a082015284928492919015801590611602575060408101516001600160a01b031615155b6116415760405162461bcd60e51b815260206004820152601060248201526f1b9bdd081bd999995c9c9959081b999d60821b6044820152606401610475565b6001600160a01b03808716600090815260076020908152604080832089845282528083203380855290835292819020815160c08101835281548616815260018201549381019390935260028101548516918301829052600381015490941660608301526004840154608083015260059093015460ff16151560a082015291146116fa5760405162461bcd60e51b815260206004820152600b60248201526a3737ba1037b33332b932b960a91b6044820152606401610475565b8060a00151156117455760405162461bcd60e51b81526020600482015260166024820152751bd999995c88185b1c9958591e481858d8d95c1d195960521b6044820152606401610475565b6001600160a01b0380881660009081526007602090815260408083208a8452825280832033845290915280822080546001600160a01b0319908116825560018201849055600282018054821690556003820180549091169055600480820193909355600501805460ff191690556060840151848201516080860151925163a9059cbb60e01b8152919094169363a9059cbb936117e39391920161302c565b602060405180830381600087803b1580156117fd57600080fd5b505af1158015611811573d6000803e3d6000fd5b505050506040513d601f19601f820116820180604052508101906118359190612f97565b5060208101518151606083015160808401516040513394936001600160a01b0316927fefb35510217b7f826a226a55de4a753e6944118842f02b483169782e250c291c926118829261302c565b60405180910390a450505050505050565b606060058054806020026020016040519081016040528092919081815260200182805480156118eb57602002820191906000526020600020905b81546001600160a01b031681526001909101906020018083116118cd575b5050505050905090565b6001600160a01b03821660009081526008602090815260408083208484529091529020600a0154600160a01b900460ff16156119665760405162461bcd60e51b815260206004820152601060248201526f185b1c9958591e481c995cdd5b1d195960821b6044820152606401610475565b6000546001600160a01b03163314806119a657506001600160a01b0382811660009081526008602090815260408083208584529091529020600201541633145b806119d757506001600160a01b03828116600090815260086020818152604080842086855290915290912001541633145b611a235760405162461bcd60e51b815260206004820152601d60248201527f6e6f742063726561746f722c2077696e6e65722c206f72206f776e65720000006044820152606401610475565b6001600160a01b038083166000908152600860209081526040808320858452909152812060038101548154600a8301805460028501546001600160a81b031990911690871617600160a01b1790556009830154929491821693911691908190611a8b82610405565b60035460405163a9059cbb60e01b81529192506001600160a01b038088169263a9059cbb92611ac0921690859060040161302c565b602060405180830381600087803b158015611ada57600080fd5b505af1158015611aee573d6000803e3d6000fd5b505050506040513d601f19601f82011682018060405250810190611b129190612f97565b5060028601546001600160a01b038087169163a9059cbb9116611b35848661316f565b6040518363ffffffff1660e01b8152600401611b5292919061302c565b602060405180830381600087803b158015611b6c57600080fd5b505af1158015611b80573d6000803e3d6000fd5b505050506040513d601f19601f82011682018060405250810190611ba49190612f97565b50600886015460018701546040516323b872dd60e01b81526001600160a01b03878116936323b872dd93611be093309390921691600401613008565b600060405180830381600087803b158015611bfa57600080fd5b505af1158015611c0e573d6000803e3d6000fd5b50505050600886015460028701546009880154604080516001600160a01b039384168152602081019290925233908201529181169189918b16907f69b9e47c169c6463a921b70743b7d6705d5ee0b376296ae9bf0b1a3678fb3f5d90606001611550565b611c7a612d6a565b611c846000612dc4565b565b6001600160a01b03828116600090815260086020818152604080842086855282529283902083516101808101855281548616808252600183015493820193909352600282015486169481019490945260038101548516606085015260048101546080850152600581015460a0850152600681015460c0850152600781015460e08501529182015484166101008401526009820154610120840152600a90910154928316610140830152600160a01b90920460ff161515610160820152839183919015801590611d585750806101600151155b611d745760405162461bcd60e51b815260040161047590613092565b6001600160a01b0385811660009081526008602081815260408084208985528252928390208351610180810185528154861681526001820154928101929092526002810154851693820184905260038101548516606083015260048101546080830152600581015460a0830152600681015460c0830152600781015460e08301529182015484166101008201526009820154610120820152600a90910154928316610140820152600160a01b90920460ff1615156101608301523314611e725760405162461bcd60e51b81526020600482015260136024820152723737ba1030bab1ba34b7b71031b932b0ba37b960691b6044820152606401610475565b8060c001514210611ec55760405162461bcd60e51b815260206004820152601760248201527f61756374696f6e20616c726561647920737461727465640000000000000000006044820152606401610475565b6101008101516001600160a01b031615611f175760405162461bcd60e51b815260206004820152601360248201527230b63932b0b23c903430bb32903134b23232b960691b6044820152606401610475565b6040516323b872dd60e01b815286906001600160a01b038216906323b872dd90611f4990309033908b90600401613008565b600060405180830381600087803b158015611f6357600080fd5b505af1158015611f77573d6000803e3d6000fd5b5050506001600160a01b03909716600090815260086020818152604080842099845298905296812080546001600160a01b031990811682556001820183905560028201805482169055600382018054821690556004820183905560058201839055600682018390556007820183905597810180549098169097556009870155505050600a90920180546001600160a81b0319169055505050565b6001600160a01b038085166000908152600660209081526040808320878452825291829020825160c08101845281548516815260018201549281019290925260028101548416928201839052600381015490931660608201526004830154608082015260059092015460ff16151560a0830152859185911580159061209857508060a00151155b6120b45760405162461bcd60e51b8152600401610475906130c9565b600084116120f65760405162461bcd60e51b815260206004820152600f60248201526e070726963652063616e206e6f74203608c1b6044820152606401610475565b6001600160a01b0380881660009081526006602090815260408083208a8452825291829020825160c0810184528154851681526001820154928101929092526002810154841682840152600381015490931660608201819052600480850154608084015260059094015460ff16151560a083015291516323b872dd60e01b815290926323b872dd9161218e91339130918b9101613008565b602060405180830381600087803b1580156121a857600080fd5b505af11580156121bc573d6000803e3d6000fd5b505050506040513d601f19601f820116820180604052508101906121e09190612f97565b506040518060c0016040528082600001516001600160a01b0316815260200182602001518152602001336001600160a01b03168152602001876001600160a01b0316815260200186815260200160001515815250600760008a6001600160a01b03166001600160a01b0316815260200190815260200160002060008981526020019081526020016000206000336001600160a01b03166001600160a01b0316815260200190815260200160002060008201518160000160006101000a8154816001600160a01b0302191690836001600160a01b031602179055506020820151816001015560408201518160020160006101000a8154816001600160a01b0302191690836001600160a01b0316021790555060608201518160030160006101000a8154816001600160a01b0302191690836001600160a01b031602179055506080820151816004015560a08201518160050160006101000a81548160ff021916908315150217905550905050336001600160a01b0316816020015182600001516001600160a01b03167f68440885b8f55b92e46c64e6e8e8e58f2cdfeb729aef39fae95e9ac07557212984606001518960405161155092919061302c565b6123a5612d6a565b6127108111156123f75760405162461bcd60e51b815260206004820152601a60248201527f63616e2774206d6f7265207468616e2031302070657263656e740000000000006044820152606401610475565b600255565b600061271061240b8484613150565b6124159190613130565b9392505050565b6001600160a01b038083166000908152600660209081526040808320858452825291829020825160c08101845281548516815260018201549281019290925260028101548416928201839052600381015490931660608201526004830154608082015260059092015460ff16151560a083015283918391158015906124a357508060a00151155b6124bf5760405162461bcd60e51b8152600401610475906130c9565b6001600160a01b038086166000908152600660209081526040808320888452825291829020825160c08101845281548516815260018201549281019290925260028101548416928201839052600381015490931660608201526004830154608082015260059092015460ff16151560a083015233146125735760405162461bcd60e51b815260206004820152601060248201526f3737ba103634b9ba32b21037bbb732b960811b6044820152606401610475565b6040516323b872dd60e01b81526001600160a01b038716906323b872dd906125a390309033908a90600401613008565b600060405180830381600087803b1580156125bd57600080fd5b505af11580156125d1573d6000803e3d6000fd5b505050506001600160a01b0395909516600090815260066020908152604080832096835295905293842080546001600160a01b03199081168255600182018690556002820180548216905560038201805490911690556004810194909455505050600501805460ff1916905550565b6001600160a01b03808416600090815260076020908152604080832086845282528083208486168452825291829020825160c08101845281548516815260018201549281019290925260028101548416928201929092526003820154909216606083015260048101546080830181905260059091015460ff16151560a083015284918491849190158015906126e1575060408101516001600160a01b031615155b6127205760405162461bcd60e51b815260206004820152601060248201526f1b9bdd081bd999995c9c9959081b999d60821b6044820152606401610475565b6001600160a01b0380881660009081526006602090815260408083208a8452825291829020825160c08101845281548516815260018201549281019290925260028101548416928201839052600381015490931660608201526004830154608082015260059092015460ff16151560a083015288918891158015906127a757508060a00151155b6127c35760405162461bcd60e51b8152600401610475906130c9565b6001600160a01b038a811660009081526006602090815260408083208d845290915290206002015416331461282d5760405162461bcd60e51b815260206004820152601060248201526f3737ba103634b9ba32b21037bbb732b960811b6044820152606401610475565b6001600160a01b03808b1660009081526007602090815260408083208d845282528083208c8516845282528083208054909416835260068252808320600185015484529091529020600581015460ff16156128b95760405162461bcd60e51b815260206004820152600c60248201526b185b1c9958591e481cdbdb1960a21b6044820152606401610475565b600582015460ff16156129075760405162461bcd60e51b81526020600482015260166024820152751bd999995c88185b1c9958591e481858d8d95c1d195960521b6044820152606401610475565b60058181018054600160ff199182168117909255918401805490921617905560048083015483546040805163257b706360e21b81529051929384936001600160a01b039093169260009284926395edc18c928282019260209290829003018186803b15801561297557600080fd5b505afa158015612989573d6000803e3d6000fd5b505050506040513d601f19601f820116820180604052508101906129ad9190612e30565b90506000826001600160a01b031663820bdcdc6040518163ffffffff1660e01b815260040160206040518083038186803b1580156129ea57600080fd5b505afa1580156129fe573d6000803e3d6000fd5b505050506040513d601f19601f82011682018060405250810190612a229190612fcf565b60038801549091506001600160a01b03168115612ad7576000612a4583886123fc565b60405163a9059cbb60e01b81529091506001600160a01b0383169063a9059cbb90612a76908790859060040161302c565b602060405180830381600087803b158015612a9057600080fd5b505af1158015612aa4573d6000803e3d6000fd5b505050506040513d601f19601f82011682018060405250810190612ac89190612f97565b50612ad3818761316f565b9550505b6000612ae287610405565b60035460405163a9059cbb60e01b81529192506001600160a01b038085169263a9059cbb92612b17921690859060040161302c565b602060405180830381600087803b158015612b3157600080fd5b505af1158015612b45573d6000803e3d6000fd5b505050506040513d601f19601f82011682018060405250810190612b699190612f97565b5060028801546001600160a01b038084169163a9059cbb9116612b8c848a61316f565b6040518363ffffffff1660e01b8152600401612ba992919061302c565b602060405180830381600087803b158015612bc357600080fd5b505af1158015612bd7573d6000803e3d6000fd5b505050506040513d601f19601f82011682018060405250810190612bfb9190612f97565b50875460028a015460018a0154604051632142170760e11b81526001600160a01b03938416936342842e0e93612c3a9330939290911691600401613008565b600060405180830381600087803b158015612c5457600080fd5b505af1158015612c68573d6000803e3d6000fd5b5050505060028881015460018b01548b5460038d015460048e0154948e0154604080516001600160a01b03938416815260208101979097529082169086015292831693919216907f9e4a193680f4538a4b29d70aa5b240ca9068a1d971f7932be2c8b92e6c4b31ce9060600160405180910390a450505050505050505050505050505050505050565b612cf9612d6a565b6001600160a01b038116612d5e5760405162461bcd60e51b815260206004820152602660248201527f4f776e61626c653a206e6577206f776e657220697320746865207a65726f206160448201526564647265737360d01b6064820152608401610475565b612d6781612dc4565b50565b6000546001600160a01b03163314611c845760405162461bcd60e51b815260206004820181905260248201527f4f776e61626c653a2063616c6c6572206973206e6f7420746865206f776e65726044820152606401610475565b600080546001600160a01b038381166001600160a01b0319831681178455604051919092169283917f8be0079c531659141344cd1fd0a4f28419497f9722a3daafe3b4186f6b6457e09190a35050565b600060208284031215612e25578081fd5b81356124158161319c565b600060208284031215612e41578081fd5b81516124158161319c565b60008060408385031215612e5e578081fd5b8235612e698161319c565b946020939093013593505050565b600080600060608486031215612e8b578081fd5b8335612e968161319c565b9250602084013591506040840135612ead8161319c565b809150509250925092565b60008060008060808587031215612ecd578081fd5b8435612ed88161319c565b9350602085013592506040850135612eef8161319c565b9396929550929360600135925050565b600080600080600080600060e0888a031215612f19578283fd5b8735612f248161319c565b9650602088013595506040880135612f3b8161319c565b969995985095966060810135965060808101359560a0820135955060c0909101359350915050565b600080600060608486031215612f77578283fd5b8335612f828161319c565b95602085013595506040909401359392505050565b600060208284031215612fa8578081fd5b81518015158114612415578182fd5b600060208284031215612fc8578081fd5b5035919050565b600060208284031215612fe0578081fd5b5051919050565b60008060408385031215612ff9578182fd5b50508035926020909101359150565b6001600160a01b039384168152919092166020820152604081019190915260600190565b6001600160a01b03929092168252602082015260400190565b6020808252825182820181905260009190848201906040850190845b818110156130865783516001600160a01b031683529284019291840191600101613061565b50909695505050505050565b60208082526017908201527f61756374696f6e20616c72656164792063726561746564000000000000000000604082015260600190565b6020808252600a90820152691b9bdd081b1a5cdd195960b21b604082015260600190565b60208082526011908201527034b73b30b634b2103830bc903a37b5b2b760791b604082015260600190565b6000821982111561312b5761312b613186565b500190565b60008261314b57634e487b7160e01b81526012600452602481fd5b500490565b600081600019048311821515161561316a5761316a613186565b500290565b60008282101561318157613181613186565b500390565b634e487b7160e01b600052601160045260246000fd5b6001600160a01b0381168114612d6757600080fdfea26469706673582212209d127e4fc8c28e3a0dc3d2acd1974a844bfc5c4d9956c859575832a6856fba6c64736f6c63430008040033",
  "linkReferences": {},
  "deployedLinkReferences": {}
}