{
  "_format": "hh-sol-artifact-1",
  "contractName": "NFTMarketplace",
  "sourceName": "contracts/NFTMarketplace.sol",
  "abi": [
    {
      "inputs": [
        {
          "internalType": "address payable",
          "name": "_feeRecipient",
          "type": "address"
        },
        {
          "internalType": "uint256",
          "name": "_platformFee",
          "type": "uint256"
        }
      ],
      "stateMutability": "nonpayable",
      "type": "constructor"
    },
    {
      "anonymous": false,
      "inputs": [
        {
          "indexed": true,
          "internalType": "address",
          "name": "nft",
          "type": "address"
        },
        {
          "indexed": true,
          "internalType": "uint256",
          "name": "tokenId",
          "type": "uint256"
        },
        {
          "indexed": false,
          "internalType": "address",
          "name": "payToken",
          "type": "address"
        },
        {
          "indexed": false,
          "internalType": "uint256",
          "name": "offerPrice",
          "type": "uint256"
        },
        {
          "indexed": false,
          "internalType": "address",
          "name": "offerer",
          "type": "address"
        },
        {
          "indexed": true,
          "internalType": "address payable",
          "name": "nftOwner",
          "type": "address"
        }
      ],
      "name": "AcceptedNFT",
      "type": "event"
    },
    {
      "anonymous": false,
      "inputs": [
        {
          "indexed": true,
          "internalType": "address",
          "name": "nft",
          "type": "address"
        },
        {
          "indexed": true,
          "internalType": "uint256",
          "name": "tokenId",
          "type": "uint256"
        },
        {
          "indexed": false,
          "internalType": "address",
          "name": "payToken",
          "type": "address"
        },
        {
          "indexed": false,
          "internalType": "uint256",
          "name": "price",
          "type": "uint256"
        },
        {
          "indexed": false,
          "internalType": "address payable",
          "name": "seller",
          "type": "address"
        },
        {
          "indexed": true,
          "internalType": "address",
          "name": "buyer",
          "type": "address"
        }
      ],
      "name": "BoughtNFT",
      "type": "event"
    },
    {
      "anonymous": false,
      "inputs": [
        {
          "indexed": true,
          "internalType": "address",
          "name": "nft",
          "type": "address"
        },
        {
          "indexed": true,
          "internalType": "uint256",
          "name": "tokenId",
          "type": "uint256"
        },
        {
          "indexed": false,
          "internalType": "address",
          "name": "payToken",
          "type": "address"
        },
        {
          "indexed": false,
          "internalType": "uint256",
          "name": "offerPrice",
          "type": "uint256"
        },
        {
          "indexed": true,
          "internalType": "address",
          "name": "offerer",
          "type": "address"
        }
      ],
      "name": "CanceledOfferredNFT",
      "type": "event"
    },
    {
      "anonymous": false,
      "inputs": [
        {
          "indexed": true,
          "internalType": "address",
          "name": "nft",
          "type": "address"
        },
        {
          "indexed": true,
          "internalType": "uint256",
          "name": "tokenId",
          "type": "uint256"
        },
        {
          "indexed": false,
          "internalType": "address",
          "name": "payToken",
          "type": "address"
        },
        {
          "indexed": false,
          "internalType": "uint256",
          "name": "price",
          "type": "uint256"
        },
        {
          "indexed": false,
          "internalType": "uint256",
          "name": "minBid",
          "type": "uint256"
        },
        {
          "indexed": false,
          "internalType": "uint256",
          "name": "startTime",
          "type": "uint256"
        },
        {
          "indexed": false,
          "internalType": "uint256",
          "name": "endTime",
          "type": "uint256"
        },
        {
          "indexed": true,
          "internalType": "address payable",
          "name": "creator",
          "type": "address"
        }
      ],
      "name": "CreatedAuction",
      "type": "event"
    },
    {
      "anonymous": false,
      "inputs": [
        {
          "indexed": true,
          "internalType": "address",
          "name": "nft",
          "type": "address"
        },
        {
          "indexed": true,
          "internalType": "uint256",
          "name": "tokenId",
          "type": "uint256"
        },
        {
          "indexed": false,
          "internalType": "address",
          "name": "payToken",
          "type": "address"
        },
        {
          "indexed": false,
          "internalType": "uint256",
          "name": "price",
          "type": "uint256"
        },
        {
          "indexed": true,
          "internalType": "address",
          "name": "seller",
          "type": "address"
        }
      ],
      "name": "ListedNFT",
      "type": "event"
    },
    {
      "anonymous": false,
      "inputs": [
        {
          "indexed": true,
          "internalType": "address",
          "name": "nft",
          "type": "address"
        },
        {
          "indexed": true,
          "internalType": "uint256",
          "name": "tokenId",
          "type": "uint256"
        },
        {
          "indexed": false,
          "internalType": "address",
          "name": "payToken",
          "type": "address"
        },
        {
          "indexed": false,
          "internalType": "uint256",
          "name": "offerPrice",
          "type": "uint256"
        },
        {
          "indexed": true,
          "internalType": "address",
          "name": "offerer",
          "type": "address"
        }
      ],
      "name": "OfferredNFT",
      "type": "event"
    },
    {
      "anonymous": false,
      "inputs": [
        {
          "indexed": true,
          "internalType": "address",
          "name": "previousOwner",
          "type": "address"
        },
        {
          "indexed": true,
          "internalType": "address",
          "name": "newOwner",
          "type": "address"
        }
      ],
      "name": "OwnershipTransferred",
      "type": "event"
    },
    {
      "anonymous": false,
      "inputs": [
        {
          "indexed": true,
          "internalType": "address",
          "name": "nft",
          "type": "address"
        },
        {
          "indexed": true,
          "internalType": "uint256",
          "name": "tokenId",
          "type": "uint256"
        },
        {
          "indexed": false,
          "internalType": "address",
          "name": "payToken",
          "type": "address"
        },
        {
          "indexed": false,
          "internalType": "uint256",
          "name": "bidPrice",
          "type": "uint256"
        },
        {
          "indexed": true,
          "internalType": "address",
          "name": "bidder",
          "type": "address"
        }
      ],
      "name": "PlacedBid",
      "type": "event"
    },
    {
      "anonymous": false,
      "inputs": [
        {
          "indexed": true,
          "internalType": "address",
          "name": "nft",
          "type": "address"
        },
        {
          "indexed": true,
          "internalType": "uint256",
          "name": "tokenId",
          "type": "uint256"
        },
        {
          "indexed": false,
          "internalType": "address payable",
          "name": "creator",
          "type": "address"
        },
        {
          "indexed": true,
          "internalType": "address",
          "name": "winner",
          "type": "address"
        },
        {
          "indexed": false,
          "internalType": "uint256",
          "name": "price",
          "type": "uint256"
        },
        {
          "indexed": false,
          "internalType": "address",
          "name": "caller",
          "type": "address"
        }
      ],
      "name": "ResultedAuction",
      "type": "event"
    },
    {
      "inputs": [
        {
          "internalType": "address",
          "name": "_nft",
          "type": "address"
        },
        {
          "internalType": "uint256",
          "name": "_tokenId",
          "type": "uint256"
        },
        {
          "internalType": "address",
          "name": "_offerer",
          "type": "address"
        }
      ],
      "name": "acceptOfferNFT",
      "outputs": [],
      "stateMutability": "nonpayable",
      "type": "function"
    },
    {
      "inputs": [
        {
          "internalType": "address",
          "name": "_token",
          "type": "address"
        }
      ],
      "name": "addPayableToken",
      "outputs": [],
      "stateMutability": "nonpayable",
      "type": "function"
    },
    {
      "inputs": [
        {
          "internalType": "address",
          "name": "_nft",
          "type": "address"
        },
        {
          "internalType": "uint256",
          "name": "_tokenId",
          "type": "uint256"
        },
        {
          "internalType": "uint256",
          "name": "_bidPrice",
          "type": "uint256"
        }
      ],
      "name": "bidAuction",
      "outputs": [],
      "stateMutability": "payable",
      "type": "function"
    },
    {
      "inputs": [
        {
          "internalType": "address",
          "name": "_nft",
          "type": "address"
        },
        {
          "internalType": "uint256",
          "name": "_tokenId",
          "type": "uint256"
        }
      ],
      "name": "buyItem",
      "outputs": [],
      "stateMutability": "payable",
      "type": "function"
    },
    {
      "inputs": [
        {
          "internalType": "uint256",
          "name": "_price",
          "type": "uint256"
        }
      ],
      "name": "calculatePlatformFee",
      "outputs": [
        {
          "internalType": "uint256",
          "name": "",
          "type": "uint256"
        }
      ],
      "stateMutability": "view",
      "type": "function"
    },
    {
      "inputs": [
        {
          "internalType": "uint256",
          "name": "_royalty",
          "type": "uint256"
        },
        {
          "internalType": "uint256",
          "name": "_price",
          "type": "uint256"
        }
      ],
      "name": "calculateRoyalty",
      "outputs": [
        {
          "internalType": "uint256",
          "name": "",
          "type": "uint256"
        }
      ],
      "stateMutability": "pure",
      "type": "function"
    },
    {
      "inputs": [
        {
          "internalType": "address",
          "name": "_nft",
          "type": "address"
        },
        {
          "internalType": "uint256",
          "name": "_tokenId",
          "type": "uint256"
        }
      ],
      "name": "cancelAuction",
      "outputs": [],
      "stateMutability": "nonpayable",
      "type": "function"
    },
    {
      "inputs": [
        {
          "internalType": "address",
          "name": "_nft",
          "type": "address"
        },
        {
          "internalType": "uint256",
          "name": "_tokenId",
          "type": "uint256"
        }
      ],
      "name": "cancelListedItem",
      "outputs": [],
      "stateMutability": "nonpayable",
      "type": "function"
    },
    {
      "inputs": [
        {
          "internalType": "address",
          "name": "_nft",
          "type": "address"
        },
        {
          "internalType": "uint256",
          "name": "_tokenId",
          "type": "uint256"
        }
      ],
      "name": "cancelOfferNFT",
      "outputs": [],
      "stateMutability": "nonpayable",
      "type": "function"
    },
    {
      "inputs": [
        {
          "internalType": "address payable",
          "name": "_feeRecipient",
          "type": "address"
        }
      ],
      "name": "changeFeeRecipient",
      "outputs": [],
      "stateMutability": "nonpayable",
      "type": "function"
    },
    {
      "inputs": [
        {
          "internalType": "address",
          "name": "_payableToken",
          "type": "address"
        }
      ],
      "name": "checkIsPayableToken",
      "outputs": [
        {
          "internalType": "bool",
          "name": "",
          "type": "bool"
        }
      ],
      "stateMutability": "view",
      "type": "function"
    },
    {
      "inputs": [
        {
          "internalType": "address",
          "name": "_nft",
          "type": "address"
        },
        {
          "internalType": "uint256",
          "name": "_tokenId",
          "type": "uint256"
        },
        {
          "internalType": "address",
          "name": "_payToken",
          "type": "address"
        },
        {
          "internalType": "uint256",
          "name": "_price",
          "type": "uint256"
        },
        {
          "internalType": "uint256",
          "name": "_minBid",
          "type": "uint256"
        },
        {
          "internalType": "uint256",
          "name": "_startTime",
          "type": "uint256"
        },
        {
          "internalType": "uint256",
          "name": "_endTime",
          "type": "uint256"
        }
      ],
      "name": "createAuction",
      "outputs": [],
      "stateMutability": "nonpayable",
      "type": "function"
    },
    {
      "inputs": [
        {
          "internalType": "address",
          "name": "_nft",
          "type": "address"
        },
        {
          "internalType": "uint256",
          "name": "_tokenId",
          "type": "uint256"
        }
      ],
      "name": "getListedItem",
      "outputs": [
        {
          "components": [
            {
              "internalType": "address",
              "name": "nft",
              "type": "address"
            },
            {
              "internalType": "uint256",
              "name": "tokenId",
              "type": "uint256"
            },
            {
              "internalType": "address payable",
              "name": "seller",
              "type": "address"
            },
            {
              "internalType": "address",
              "name": "payToken",
              "type": "address"
            },
            {
              "internalType": "uint256",
              "name": "price",
              "type": "uint256"
            },
            {
              "internalType": "bool",
              "name": "sold",
              "type": "bool"
            }
          ],
          "internalType": "struct NFTMarketplace.ListNFT",
          "name": "",
          "type": "tuple"
        }
      ],
      "stateMutability": "view",
      "type": "function"
    },
    {
      "inputs": [],
      "name": "getPayableTokens",
      "outputs": [
        {
          "internalType": "address[]",
          "name": "",
          "type": "address[]"
        }
      ],
      "stateMutability": "view",
      "type": "function"
    },
    {
      "inputs": [
        {
          "internalType": "address",
          "name": "_nft",
          "type": "address"
        },
        {
          "internalType": "uint256",
          "name": "_tokenId",
          "type": "uint256"
        },
        {
          "internalType": "address",
          "name": "_payToken",
          "type": "address"
        },
        {
          "internalType": "uint256",
          "name": "_price",
          "type": "uint256"
        }
      ],
      "name": "listItem",
      "outputs": [],
      "stateMutability": "nonpayable",
      "type": "function"
    },
    {
      "inputs": [
        {
          "internalType": "address",
          "name": "_nft",
          "type": "address"
        },
        {
          "internalType": "uint256",
          "name": "_tokenId",
          "type": "uint256"
        },
        {
          "internalType": "address",
          "name": "_payToken",
          "type": "address"
        },
        {
          "internalType": "uint256",
          "name": "_offerPrice",
          "type": "uint256"
        }
      ],
      "name": "offerNFT",
      "outputs": [],
      "stateMutability": "nonpayable",
      "type": "function"
    },
    {
      "inputs": [],
      "name": "owner",
      "outputs": [
        {
          "internalType": "address",
          "name": "",
          "type": "address"
        }
      ],
      "stateMutability": "view",
      "type": "function"
    },
    {
      "inputs": [],
      "name": "renounceOwnership",
      "outputs": [],
      "stateMutability": "nonpayable",
      "type": "function"
    },
    {
      "inputs": [
        {
          "internalType": "address",
          "name": "_nft",
          "type": "address"
        },
        {
          "internalType": "uint256",
          "name": "_tokenId",
          "type": "uint256"
        }
      ],
      "name": "resultAuction",
      "outputs": [],
      "stateMutability": "nonpayable",
      "type": "function"
    },
    {
      "inputs": [
        {
          "internalType": "address",
          "name": "newOwner",
          "type": "address"
        }
      ],
      "name": "transferOwnership",
      "outputs": [],
      "stateMutability": "nonpayable",
      "type": "function"
    },
    {
      "inputs": [
        {
          "internalType": "uint256",
          "name": "_platformFee",
          "type": "uint256"
        }
      ],
      "name": "updatePlatformFee",
      "outputs": [],
      "stateMutability": "nonpayable",
      "type": "function"
    },
    {
      "stateMutability": "payable",
      "type": "receive"
    }
  ],
  "bytecode": "0x60806040523480156200001157600080fd5b50604051620034f1380380620034f1833981016040819052620000349162000114565b6200003f33620000c4565b600180556127108111156200009a5760405162461bcd60e51b815260206004820152601a60248201527f63616e2774206d6f7265207468616e2031302070657263656e74000000000000604482015260640160405180910390fd5b600380546001600160a01b0319166001600160a01b0393909316929092179091556002556200014e565b600080546001600160a01b038381166001600160a01b0319831681178455604051919092169283917f8be0079c531659141344cd1fd0a4f28419497f9722a3daafe3b4186f6b6457e09190a35050565b6000806040838503121562000127578182fd5b82516001600160a01b03811681146200013e578283fd5b6020939093015192949293505050565b613393806200015e6000396000f3fe60806040526004361061012e5760003560e01c8063715018a6116100ab5780639f37092a1161006f5780639f37092a14610447578063aa0b59881461045a578063b0708a351461047a578063ea7e728d1461049a578063eb95711b146104ba578063f2fde38b146104da57600080fd5b8063715018a614610381578063859b97fe146103965780638da5cb5b146103b6578063981b836c146103de5780639d8f4f55146103fe57600080fd5b806338a7cab5116100f257806338a7cab5146101ef57806338af40d61461020257806346f5ab311461031f5780635b5b33141461033f5780635f7063ef1461036157600080fd5b80630cbab4f71461013a578063122b06451461016d578063132013851461018f57806323604071146101af5780633535db22146101cf57600080fd5b3661013557005b600080fd5b34801561014657600080fd5b5061015a6101553660046131a6565b6104fa565b6040519081526020015b60405180910390f35b34801561017957600080fd5b5061018d6101883660046130ee565b61051d565b005b34801561019b57600080fd5b5061018d6101aa366004613003565b610a6b565b3480156101bb57600080fd5b5061018d6101ca366004613003565b610b80565b3480156101db57600080fd5b5061018d6101ea3660046130a7565b610bf5565b61018d6101fd366004613152565b610f1d565b34801561020e57600080fd5b506102c661021d36600461303b565b6040805160c081018252600080825260208201819052918101829052606081018290526080810182905260a0810191909152506001600160a01b03918216600090815260066020908152604080832093835292815290829020825160c081018452815485168152600182015492810192909252600281015484169282019290925260038201549092166060830152600481015460808301526005015460ff16151560a082015290565b604051610164919081516001600160a01b03908116825260208084015190830152604080840151821690830152606080840151909116908201526080808301519082015260a09182015115159181019190915260c00190565b34801561032b57600080fd5b5061018d61033a36600461303b565b6113e0565b34801561034b57600080fd5b50610354611711565b604051610164919061321c565b34801561036d57600080fd5b5061018d61037c36600461303b565b611773565b34801561038d57600080fd5b5061018d611bed565b3480156103a257600080fd5b5061018d6103b136600461303b565b611c01565b3480156103c257600080fd5b506000546040516001600160a01b039091168152602001610164565b3480156103ea57600080fd5b5061018d6103f93660046130a7565b611f8c565b34801561040a57600080fd5b50610437610419366004613003565b6001600160a01b031660009081526004602052604090205460ff1690565b6040519015158152602001610164565b61018d61045536600461303b565b612318565b34801561046657600080fd5b5061018d6104753660046131a6565b61272b565b34801561048657600080fd5b5061015a6104953660046131be565b61278a565b3480156104a657600080fd5b5061018d6104b536600461303b565b6127aa565b3480156104c657600080fd5b5061018d6104d5366004613066565b6129ce565b3480156104e657600080fd5b5061018d6104f5366004613003565b612ee0565b60006127106002548361050d91906132fc565b61051791906132dc565b92915050565b846001600160a01b038116158061054c57506001600160a01b03811660009081526004602052604090205460ff165b6105915760405162461bcd60e51b815260206004820152601160248201527034b73b30b634b2103830bc903a37b5b2b760791b60448201526064015b60405180910390fd5b6001600160a01b0388811660009081526008602081815260408084208c855282529283902083516101808101855281548616808252600183015493820193909352600282015486169481019490945260038101548516606085015260048101546080850152600581015460a0850152600681015460c0850152600781015460e08501529182015484166101008401526009820154610120840152600a90910154928316610140830152600160a01b90920460ff1615156101608201528991899190158061066057508061016001515b61067c5760405162461bcd60e51b815260040161058890613269565b6040516331a9108f60e11b8152600481018b90528b9033906001600160a01b03831690636352211e9060240160206040518083038186803b1580156106c057600080fd5b505afa1580156106d4573d6000803e3d6000fd5b505050506040513d601f19601f820116820180604052508101906106f8919061301f565b6001600160a01b03161461073e5760405162461bcd60e51b815260206004820152600d60248201526c3737ba1037333a1037bbb732b960991b6044820152606401610588565b8686116107805760405162461bcd60e51b815260206004820152601060248201526f696e76616c696420656e642074696d6560801b6044820152606401610588565b806001600160a01b03166323b872dd33308e6040518463ffffffff1660e01b81526004016107b0939291906131f8565b600060405180830381600087803b1580156107ca57600080fd5b505af11580156107de573d6000803e3d6000fd5b505050506040518061018001604052808d6001600160a01b031681526020018c8152602001336001600160a01b031681526020018b6001600160a01b031681526020018a815260200189815260200188815260200187815260200160006001600160a01b031681526020018a815260200160006001600160a01b0316815260200160001515815250600860008e6001600160a01b03166001600160a01b0316815260200190815260200160002060008d815260200190815260200160002060008201518160000160006101000a8154816001600160a01b0302191690836001600160a01b031602179055506020820151816001015560408201518160020160006101000a8154816001600160a01b0302191690836001600160a01b0316021790555060608201518160030160006101000a8154816001600160a01b0302191690836001600160a01b031602179055506080820151816004015560a0820151816005015560c0820151816006015560e082015181600701556101008201518160080160006101000a8154816001600160a01b0302191690836001600160a01b03160217905550610120820151816009015561014082015181600a0160006101000a8154816001600160a01b0302191690836001600160a01b0316021790555061016082015181600a0160146101000a81548160ff021916908315150217905550905050336001600160a01b03168b8d6001600160a01b03167f15888491dd8f256e5e28ceaf57c0db6819ae0399cc259e9764887563223f7acd8d8d8d8d8d604051610a559594939291906001600160a01b03959095168552602085019390935260408401919091526060830152608082015260a00190565b60405180910390a4505050505050505050505050565b610a73612f59565b6001600160a01b038116610ab95760405162461bcd60e51b815260206004820152600d60248201526c34b73b30b634b2103a37b5b2b760991b6044820152606401610588565b6001600160a01b03811660009081526004602052604090205460ff1615610b1a5760405162461bcd60e51b815260206004820152601560248201527430b63932b0b23c903830bcb0b13632903a37b5b2b760591b6044820152606401610588565b6001600160a01b03166000818152600460205260408120805460ff191660019081179091556005805491820181559091527f036b6384b5eca791c62761152d0c79bb0604c104a5fb6f4eb0703f3154bb3db00180546001600160a01b0319169091179055565b610b88612f59565b6001600160a01b038116610bd35760405162461bcd60e51b815260206004820152601260248201527163616e27742062652030206164647265737360701b6044820152606401610588565b600380546001600160a01b0319166001600160a01b0392909216919091179055565b816001600160a01b0381161580610c2457506001600160a01b03811660009081526004602052604090205460ff165b610c645760405162461bcd60e51b815260206004820152601160248201527034b73b30b634b2103830bc903a37b5b2b760791b6044820152606401610588565b6040516331a9108f60e11b815260048101859052859033906001600160a01b03831690636352211e9060240160206040518083038186803b158015610ca857600080fd5b505afa158015610cbc573d6000803e3d6000fd5b505050506040513d601f19601f82011682018060405250810190610ce0919061301f565b6001600160a01b031614610d265760405162461bcd60e51b815260206004820152600d60248201526c3737ba1037333a1037bbb732b960991b6044820152606401610588565b6040516323b872dd60e01b81526001600160a01b038216906323b872dd90610d5690339030908a906004016131f8565b600060405180830381600087803b158015610d7057600080fd5b505af1158015610d84573d6000803e3d6000fd5b505050506040518060c00160405280876001600160a01b03168152602001868152602001336001600160a01b03168152602001856001600160a01b031681526020018481526020016000151581525060066000886001600160a01b03166001600160a01b03168152602001908152602001600020600087815260200190815260200160002060008201518160000160006101000a8154816001600160a01b0302191690836001600160a01b031602179055506020820151816001015560408201518160020160006101000a8154816001600160a01b0302191690836001600160a01b0316021790555060608201518160030160006101000a8154816001600160a01b0302191690836001600160a01b031602179055506080820151816004015560a08201518160050160006101000a81548160ff021916908315150217905550905050336001600160a01b031685876001600160a01b03167fd3c529cf7f810e6effd6ee492c3c44aaaeaab46bb7b4d6d3f01d0aecf487f6b98787604051610f0d9291906131df565b60405180910390a4505050505050565b6001600160a01b03838116600090815260086020818152604080842087855282529283902083516101808101855281548616808252600183015493820193909352600282015486169481019490945260038101548516606085015260048101546080850152600581015460a0850152600681015460c0850152600781015460e08501529182015484166101008401526009820154610120840152600a90910154928316610140830152600160a01b90920460ff161515610160820152849184919015801590610fef5750806101600151155b61100b5760405162461bcd60e51b815260040161058890613269565b6001600160a01b03861660009081526008602090815260408083208884529091529020600601544210156110755760405162461bcd60e51b8152602060048201526011602482015270185d58dd1a5bdb881b9bdd081cdd185c9d607a1b6044820152606401610588565b6001600160a01b03861660009081526008602090815260408083208884529091529020600701544211156110db5760405162461bcd60e51b815260206004820152600d60248201526c185d58dd1a5bdb88195b991959609a1b6044820152606401610588565b6001600160a01b03808716600090815260086020908152604080832089845290915281206003810154909216156111125785611114565b345b6001600160a01b03891660009081526008602090815260408083208b84529091529020600581015460099091015491925061114e916132c4565b81101561119d5760405162461bcd60e51b815260206004820152601760248201527f6c657373207468616e206d696e206269642070726963650000000000000000006044820152606401610588565b60038201546001600160a01b03166111e257604051309082156108fc029083906000818181858888f193505050501580156111dc573d6000803e3d6000fd5b5061126f565b60038201546040516323b872dd60e01b81526001600160a01b039091169081906323b872dd9061121a903390309087906004016131f8565b602060405180830381600087803b15801561123457600080fd5b505af1158015611248573d6000803e3d6000fd5b505050506040513d601f19601f8201168201806040525081019061126c9190613186565b50505b60088201546001600160a01b03161561136b5760038201546001600160a01b03166112da57600882015460098301546040516001600160a01b039092169181156108fc0291906000818181858888f193505050501580156112d4573d6000803e3d6000fd5b5061136b565b60038201546008830154600984015460405163a9059cbb60e01b81526001600160a01b039384169363a9059cbb93611317939116916004016131df565b602060405180830381600087803b15801561133157600080fd5b505af1158015611345573d6000803e3d6000fd5b505050506040513d601f19601f820116820180604052508101906113699190613186565b505b6008820180546001600160a01b0319163390811790915560098301829055600383015460405189916001600160a01b038c8116927f1366a066e0b6138abe26f53c966c9de1cfc0f79f586100f5c785c9a5ea198905926113ce92169087906131df565b60405180910390a45050505050505050565b6001600160a01b03808316600090815260076020908152604080832085845282528083203380855290835292819020815160c08101835281548616815260018201549381019390935260028101548516918301919091526003810154909316606082015260048301546080820181905260059093015460ff16151560a082015284928492919015801590611480575060408101516001600160a01b031615155b6114bf5760405162461bcd60e51b815260206004820152601060248201526f1b9bdd081bd999995c9c9959081b999d60821b6044820152606401610588565b6001600160a01b03808716600090815260076020908152604080832089845282528083203380855290835292819020815160c08101835281548616815260018201549381019390935260028101548516918301829052600381015490941660608301526004840154608083015260059093015460ff16151560a082015291146115785760405162461bcd60e51b815260206004820152600b60248201526a3737ba1037b33332b932b960a91b6044820152606401610588565b8060a00151156115c35760405162461bcd60e51b81526020600482015260166024820152751bd999995c88185b1c9958591e481858d8d95c1d195960521b6044820152606401610588565b6001600160a01b0380881660009081526007602090815260408083208a8452825280832033845290915280822080546001600160a01b0319908116825560018201849055600282018054821690556003820180549091169055600480820193909355600501805460ff191690556060840151848201516080860151925163a9059cbb60e01b8152919094169363a9059cbb93611661939192016131df565b602060405180830381600087803b15801561167b57600080fd5b505af115801561168f573d6000803e3d6000fd5b505050506040513d601f19601f820116820180604052508101906116b39190613186565b5060208101518151606083015160808401516040513394936001600160a01b0316927fefb35510217b7f826a226a55de4a753e6944118842f02b483169782e250c291c92611700926131df565b60405180910390a450505050505050565b6060600580548060200260200160405190810160405280929190818152602001828054801561176957602002820191906000526020600020905b81546001600160a01b0316815260019091019060200180831161174b575b5050505050905090565b6001600160a01b03821660009081526008602090815260408083208484529091529020600a0154600160a01b900460ff16156117e45760405162461bcd60e51b815260206004820152601060248201526f185b1c9958591e481c995cdd5b1d195960821b6044820152606401610588565b6000546001600160a01b031633148061182457506001600160a01b0382811660009081526008602090815260408083208584529091529020600201541633145b8061185557506001600160a01b03828116600090815260086020818152604080842086855290915290912001541633145b6118a15760405162461bcd60e51b815260206004820152601d60248201527f6e6f742063726561746f722c2077696e6e65722c206f72206f776e65720000006044820152606401610588565b6001600160a01b0382166000908152600860209081526040808320848452909152902060070154421161190a5760405162461bcd60e51b8152602060048201526011602482015270185d58dd1a5bdb881b9bdd08195b991959607a1b6044820152606401610588565b6001600160a01b03808316600090815260086020908152604080832085845290915281208054600a8201805460028401546001600160a81b031990911690861617600160a01b179055600982015491931691611965826104fa565b60038501549091506001600160a01b03166119fe576003546040516001600160a01b039091169082156108fc029083906000818181858888f193505050501580156119b4573d6000803e3d6000fd5b5060028401546001600160a01b03166108fc6119d0838561331b565b6040518115909202916000818181858888f193505050501580156119f8573d6000803e3d6000fd5b50611b20565b600384810154905460405163a9059cbb60e01b81526001600160a01b0392831692839263a9059cbb92611a39929091169086906004016131df565b602060405180830381600087803b158015611a5357600080fd5b505af1158015611a67573d6000803e3d6000fd5b505050506040513d601f19601f82011682018060405250810190611a8b9190613186565b5060028501546001600160a01b038083169163a9059cbb9116611aae858761331b565b6040518363ffffffff1660e01b8152600401611acb9291906131df565b602060405180830381600087803b158015611ae557600080fd5b505af1158015611af9573d6000803e3d6000fd5b505050506040513d601f19601f82011682018060405250810190611b1d9190613186565b50505b600884015460018501546040516323b872dd60e01b81526001600160a01b03868116936323b872dd93611b5b933093909216916004016131f8565b600060405180830381600087803b158015611b7557600080fd5b505af1158015611b89573d6000803e3d6000fd5b50505050600884015460028501546009860154604080516001600160a01b039384168152602081019290925233908201529181169187918916907f69b9e47c169c6463a921b70743b7d6705d5ee0b376296ae9bf0b1a3678fb3f5d90606001610f0d565b611bf5612f59565b611bff6000612fb3565b565b6001600160a01b03828116600090815260086020818152604080842086855282529283902083516101808101855281548616808252600183015493820193909352600282015486169481019490945260038101548516606085015260048101546080850152600581015460a0850152600681015460c0850152600781015460e08501529182015484166101008401526009820154610120840152600a90910154928316610140830152600160a01b90920460ff161515610160820152839183919015801590611cd35750806101600151155b611cef5760405162461bcd60e51b815260040161058890613269565b6001600160a01b0385811660009081526008602081815260408084208985528252928390208351610180810185528154861681526001820154928101929092526002810154851693820184905260038101548516606083015260048101546080830152600581015460a0830152600681015460c0830152600781015460e08301529182015484166101008201526009820154610120820152600a90910154928316610140820152600160a01b90920460ff1615156101608301523314611ded5760405162461bcd60e51b81526020600482015260136024820152723737ba1030bab1ba34b7b71031b932b0ba37b960691b6044820152606401610588565b8060c001514210611e405760405162461bcd60e51b815260206004820152601760248201527f61756374696f6e20616c726561647920737461727465640000000000000000006044820152606401610588565b6101008101516001600160a01b031615611e925760405162461bcd60e51b815260206004820152601360248201527230b63932b0b23c903430bb32903134b23232b960691b6044820152606401610588565b6040516323b872dd60e01b815286906001600160a01b038216906323b872dd90611ec490309033908b906004016131f8565b600060405180830381600087803b158015611ede57600080fd5b505af1158015611ef2573d6000803e3d6000fd5b5050506001600160a01b03909716600090815260086020818152604080842099845298905296812080546001600160a01b031990811682556001820183905560028201805482169055600382018054821690556004820183905560058201839055600682018390556007820183905597810180549098169097556009870155505050600a90920180546001600160a81b0319169055505050565b6001600160a01b038085166000908152600660209081526040808320878452825291829020825160c08101845281548516815260018201549281019290925260028101548416928201839052600381015490931660608201526004830154608082015260059092015460ff16151560a0830152859185911580159061201357508060a00151155b61202f5760405162461bcd60e51b8152600401610588906132a0565b600084116120715760405162461bcd60e51b815260206004820152600f60248201526e070726963652063616e206e6f74203608c1b6044820152606401610588565b6001600160a01b0380881660009081526006602090815260408083208a8452825291829020825160c0810184528154851681526001820154928101929092526002810154841682840152600381015490931660608201819052600480850154608084015260059094015460ff16151560a083015291516323b872dd60e01b815290926323b872dd9161210991339130918b91016131f8565b602060405180830381600087803b15801561212357600080fd5b505af1158015612137573d6000803e3d6000fd5b505050506040513d601f19601f8201168201806040525081019061215b9190613186565b506040518060c0016040528082600001516001600160a01b0316815260200182602001518152602001336001600160a01b03168152602001876001600160a01b0316815260200186815260200160001515815250600760008a6001600160a01b03166001600160a01b0316815260200190815260200160002060008981526020019081526020016000206000336001600160a01b03166001600160a01b0316815260200190815260200160002060008201518160000160006101000a8154816001600160a01b0302191690836001600160a01b031602179055506020820151816001015560408201518160020160006101000a8154816001600160a01b0302191690836001600160a01b0316021790555060608201518160030160006101000a8154816001600160a01b0302191690836001600160a01b031602179055506080820151816004015560a08201518160050160006101000a81548160ff021916908315150217905550905050336001600160a01b0316816020015182600001516001600160a01b03167f68440885b8f55b92e46c64e6e8e8e58f2cdfeb729aef39fae95e9ac0755721298460600151896040516113ce9291906131df565b6001600160a01b038083166000908152600660209081526040808320858452825291829020825160c08101845281548516815260018201549281019290925260028101548416928201839052600381015490931660608201526004830154608082015260059092015460ff16151560a0830152839183911580159061239f57508060a00151155b6123bb5760405162461bcd60e51b8152600401610588906132a0565b6001600160a01b03851660009081526006602090815260408083208784529091529020600581015460ff16156124265760405162461bcd60e51b815260206004820152601060248201526f1b999d08185b1c9958591e481cdbdb1960821b6044820152606401610588565b60058101805460ff1916600117905560048101546000612445826104fa565b60038401549091506001600160a01b03166125325782600401543410156124ae5760405162461bcd60e51b815260206004820152601860248201527f6275794974656d3a20696e636f727265637420707269636500000000000000006044820152606401610588565b6003546040516001600160a01b039091169082156108fc029083906000818181858888f193505050501580156124e8573d6000803e3d6000fd5b5060028301546001600160a01b03166108fc612504838561331b565b6040518115909202916000818181858888f1935050505015801561252c573d6000803e3d6000fd5b5061265b565b60038381015490546040516323b872dd60e01b81526001600160a01b03928316926323b872dd9261256d9233929091169086906004016131f8565b602060405180830381600087803b15801561258757600080fd5b505af115801561259b573d6000803e3d6000fd5b505050506040513d601f19601f820116820180604052508101906125bf9190613186565b50600383015460028401546001600160a01b03918216916323b872dd913391166125e9858761331b565b6040518463ffffffff1660e01b8152600401612607939291906131f8565b602060405180830381600087803b15801561262157600080fd5b505af1158015612635573d6000803e3d6000fd5b505050506040513d601f19601f820116820180604052508101906126599190613186565b505b82546001840154604051632142170760e11b81526001600160a01b03909216916342842e0e9161269191309133916004016131f8565b600060405180830381600087803b1580156126ab57600080fd5b505af11580156126bf573d6000803e3d6000fd5b5050505060018301548354600385015460048601546002870154604080516001600160a01b03948516815260208101939093529083169082015233939291909116907f72136ea02664c7ef94168318a5622b2f8cc9e3a3f2bfd6fbdff378aa303e4beb906060016113ce565b612733612f59565b6127108111156127855760405162461bcd60e51b815260206004820152601a60248201527f63616e2774206d6f7265207468616e2031302070657263656e740000000000006044820152606401610588565b600255565b600061271061279984846132fc565b6127a391906132dc565b9392505050565b6001600160a01b038083166000908152600660209081526040808320858452825291829020825160c08101845281548516815260018201549281019290925260028101548416928201839052600381015490931660608201526004830154608082015260059092015460ff16151560a0830152839183911580159061283157508060a00151155b61284d5760405162461bcd60e51b8152600401610588906132a0565b6001600160a01b038086166000908152600660209081526040808320888452825291829020825160c08101845281548516815260018201549281019290925260028101548416928201839052600381015490931660608201526004830154608082015260059092015460ff16151560a083015233146129015760405162461bcd60e51b815260206004820152601060248201526f3737ba103634b9ba32b21037bbb732b960811b6044820152606401610588565b6040516323b872dd60e01b81526001600160a01b038716906323b872dd9061293190309033908a906004016131f8565b600060405180830381600087803b15801561294b57600080fd5b505af115801561295f573d6000803e3d6000fd5b505050506001600160a01b0395909516600090815260066020908152604080832096835295905293842080546001600160a01b03199081168255600182018690556002820180548216905560038201805490911690556004810194909455505050600501805460ff1916905550565b6001600160a01b03808416600090815260076020908152604080832086845282528083208486168452825291829020825160c08101845281548516815260018201549281019290925260028101548416928201929092526003820154909216606083015260048101546080830181905260059091015460ff16151560a08301528491849184919015801590612a6f575060408101516001600160a01b031615155b612aae5760405162461bcd60e51b815260206004820152601060248201526f1b9bdd081bd999995c9c9959081b999d60821b6044820152606401610588565b6001600160a01b0380881660009081526006602090815260408083208a8452825291829020825160c08101845281548516815260018201549281019290925260028101548416928201839052600381015490931660608201526004830154608082015260059092015460ff16151560a08301528891889115801590612b3557508060a00151155b612b515760405162461bcd60e51b8152600401610588906132a0565b6001600160a01b038a811660009081526006602090815260408083208d8452909152902060020154163314612bbb5760405162461bcd60e51b815260206004820152601060248201526f3737ba103634b9ba32b21037bbb732b960811b6044820152606401610588565b6001600160a01b03808b1660009081526007602090815260408083208d845282528083208c8516845282528083208054909416835260068252808320600185015484529091529020600581015460ff1615612c475760405162461bcd60e51b815260206004820152600c60248201526b185b1c9958591e481cdbdb1960a21b6044820152606401610588565b600582015460ff1615612c955760405162461bcd60e51b81526020600482015260166024820152751bd999995c88185b1c9958591e481858d8d95c1d195960521b6044820152606401610588565b60058181018054600160ff19918216811790925591840180549092161790556004820154600383015481906001600160a01b03166000612cd4836104fa565b60035460405163a9059cbb60e01b81529192506001600160a01b038085169263a9059cbb92612d0992169085906004016131df565b602060405180830381600087803b158015612d2357600080fd5b505af1158015612d37573d6000803e3d6000fd5b505050506040513d601f19601f82011682018060405250810190612d5b9190613186565b5060028501546001600160a01b038084169163a9059cbb9116612d7e848761331b565b6040518363ffffffff1660e01b8152600401612d9b9291906131df565b602060405180830381600087803b158015612db557600080fd5b505af1158015612dc9573d6000803e3d6000fd5b505050506040513d601f19601f82011682018060405250810190612ded9190613186565b50845460028701546001870154604051632142170760e11b81526001600160a01b03938416936342842e0e93612e2c93309392909116916004016131f8565b600060405180830381600087803b158015612e4657600080fd5b505af1158015612e5a573d6000803e3d6000fd5b505050506002858101546001880154885460038a015460048b0154948b0154604080516001600160a01b03938416815260208101979097529082169086015292831693919216907f9e4a193680f4538a4b29d70aa5b240ca9068a1d971f7932be2c8b92e6c4b31ce9060600160405180910390a450505050505050505050505050505050565b612ee8612f59565b6001600160a01b038116612f4d5760405162461bcd60e51b815260206004820152602660248201527f4f776e61626c653a206e6577206f776e657220697320746865207a65726f206160448201526564647265737360d01b6064820152608401610588565b612f5681612fb3565b50565b6000546001600160a01b03163314611bff5760405162461bcd60e51b815260206004820181905260248201527f4f776e61626c653a2063616c6c6572206973206e6f7420746865206f776e65726044820152606401610588565b600080546001600160a01b038381166001600160a01b0319831681178455604051919092169283917f8be0079c531659141344cd1fd0a4f28419497f9722a3daafe3b4186f6b6457e09190a35050565b600060208284031215613014578081fd5b81356127a381613348565b600060208284031215613030578081fd5b81516127a381613348565b6000806040838503121561304d578081fd5b823561305881613348565b946020939093013593505050565b60008060006060848603121561307a578081fd5b833561308581613348565b925060208401359150604084013561309c81613348565b809150509250925092565b600080600080608085870312156130bc578081fd5b84356130c781613348565b93506020850135925060408501356130de81613348565b9396929550929360600135925050565b600080600080600080600060e0888a031215613108578283fd5b873561311381613348565b965060208801359550604088013561312a81613348565b969995985095966060810135965060808101359560a0820135955060c0909101359350915050565b600080600060608486031215613166578283fd5b833561317181613348565b95602085013595506040909401359392505050565b600060208284031215613197578081fd5b815180151581146127a3578182fd5b6000602082840312156131b7578081fd5b5035919050565b600080604083850312156131d0578182fd5b50508035926020909101359150565b6001600160a01b03929092168252602082015260400190565b6001600160a01b039384168152919092166020820152604081019190915260600190565b6020808252825182820181905260009190848201906040850190845b8181101561325d5783516001600160a01b031683529284019291840191600101613238565b50909695505050505050565b60208082526017908201527f61756374696f6e20616c72656164792063726561746564000000000000000000604082015260600190565b6020808252600a90820152691b9bdd081b1a5cdd195960b21b604082015260600190565b600082198211156132d7576132d7613332565b500190565b6000826132f757634e487b7160e01b81526012600452602481fd5b500490565b600081600019048311821515161561331657613316613332565b500290565b60008282101561332d5761332d613332565b500390565b634e487b7160e01b600052601160045260246000fd5b6001600160a01b0381168114612f5657600080fdfea26469706673582212208fc37ee5dea61d2ad6f0dc6500669b5b9dfc5d66acd7ed23d69d098a7340d73464736f6c63430008040033",
  "linkReferences": {},
  "deployedLinkReferences": {}
}